{
  "contractName": "CondoGovernor",
  "abi": [
    {
      "inputs": [
        {
          "internalType": "contract ERC20Votes",
          "name": "_token",
          "type": "address"
        },
        {
          "internalType": "contract CondoRegistry",
          "name": "_condoRegistry",
          "type": "address"
        },
        {
          "internalType": "uint256",
          "name": "votingDelay_",
          "type": "uint256"
        },
        {
          "internalType": "uint256",
          "name": "votingPeriod_",
          "type": "uint256"
        }
      ],
      "stateMutability": "nonpayable",
      "type": "constructor"
    },
    {
      "anonymous": false,
      "inputs": [
        {
          "indexed": true,
          "internalType": "address",
          "name": "condoTreasury",
          "type": "address"
        }
      ],
      "name": "CreatedCondoTreasury",
      "type": "event"
    },
    {
      "anonymous": false,
      "inputs": [
        {
          "indexed": false,
          "internalType": "uint256",
          "name": "proposalId",
          "type": "uint256"
        }
      ],
      "name": "ProposalCanceled",
      "type": "event"
    },
    {
      "anonymous": false,
      "inputs": [
        {
          "indexed": false,
          "internalType": "uint256",
          "name": "proposalId",
          "type": "uint256"
        },
        {
          "indexed": false,
          "internalType": "address",
          "name": "proposer",
          "type": "address"
        },
        {
          "indexed": false,
          "internalType": "address[]",
          "name": "targets",
          "type": "address[]"
        },
        {
          "indexed": false,
          "internalType": "uint256[]",
          "name": "values",
          "type": "uint256[]"
        },
        {
          "indexed": false,
          "internalType": "string[]",
          "name": "signatures",
          "type": "string[]"
        },
        {
          "indexed": false,
          "internalType": "bytes[]",
          "name": "calldatas",
          "type": "bytes[]"
        },
        {
          "indexed": false,
          "internalType": "uint256",
          "name": "startBlock",
          "type": "uint256"
        },
        {
          "indexed": false,
          "internalType": "uint256",
          "name": "endBlock",
          "type": "uint256"
        },
        {
          "indexed": false,
          "internalType": "string",
          "name": "description",
          "type": "string"
        }
      ],
      "name": "ProposalCreated",
      "type": "event"
    },
    {
      "anonymous": false,
      "inputs": [
        {
          "indexed": false,
          "internalType": "uint256",
          "name": "proposalId",
          "type": "uint256"
        }
      ],
      "name": "ProposalExecuted",
      "type": "event"
    },
    {
      "anonymous": false,
      "inputs": [
        {
          "indexed": false,
          "internalType": "uint256",
          "name": "oldQuorumNumerator",
          "type": "uint256"
        },
        {
          "indexed": false,
          "internalType": "uint256",
          "name": "newQuorumNumerator",
          "type": "uint256"
        }
      ],
      "name": "QuorumNumeratorUpdated",
      "type": "event"
    },
    {
      "anonymous": false,
      "inputs": [
        {
          "indexed": true,
          "internalType": "address",
          "name": "voter",
          "type": "address"
        },
        {
          "indexed": false,
          "internalType": "uint256",
          "name": "proposalId",
          "type": "uint256"
        },
        {
          "indexed": false,
          "internalType": "uint8",
          "name": "support",
          "type": "uint8"
        },
        {
          "indexed": false,
          "internalType": "uint256",
          "name": "weight",
          "type": "uint256"
        },
        {
          "indexed": false,
          "internalType": "string",
          "name": "reason",
          "type": "string"
        }
      ],
      "name": "VoteCast",
      "type": "event"
    },
    {
      "inputs": [],
      "name": "BALLOT_TYPEHASH",
      "outputs": [
        {
          "internalType": "bytes32",
          "name": "",
          "type": "bytes32"
        }
      ],
      "stateMutability": "view",
      "type": "function",
      "constant": true
    },
    {
      "inputs": [],
      "name": "COUNTING_MODE",
      "outputs": [
        {
          "internalType": "string",
          "name": "",
          "type": "string"
        }
      ],
      "stateMutability": "pure",
      "type": "function",
      "constant": true
    },
    {
      "inputs": [],
      "name": "condoRegistry",
      "outputs": [
        {
          "internalType": "contract CondoRegistry",
          "name": "",
          "type": "address"
        }
      ],
      "stateMutability": "view",
      "type": "function",
      "constant": true
    },
    {
      "inputs": [],
      "name": "condoTreasury",
      "outputs": [
        {
          "internalType": "contract CondoTreasury",
          "name": "",
          "type": "address"
        }
      ],
      "stateMutability": "view",
      "type": "function",
      "constant": true
    },
    {
      "inputs": [
        {
          "internalType": "uint256",
          "name": "proposalId",
          "type": "uint256"
        },
        {
          "internalType": "address",
          "name": "account",
          "type": "address"
        }
      ],
      "name": "hasVoted",
      "outputs": [
        {
          "internalType": "bool",
          "name": "",
          "type": "bool"
        }
      ],
      "stateMutability": "view",
      "type": "function",
      "constant": true
    },
    {
      "inputs": [
        {
          "internalType": "address[]",
          "name": "targets",
          "type": "address[]"
        },
        {
          "internalType": "uint256[]",
          "name": "values",
          "type": "uint256[]"
        },
        {
          "internalType": "bytes[]",
          "name": "calldatas",
          "type": "bytes[]"
        },
        {
          "internalType": "bytes32",
          "name": "descriptionHash",
          "type": "bytes32"
        }
      ],
      "name": "hashProposal",
      "outputs": [
        {
          "internalType": "uint256",
          "name": "",
          "type": "uint256"
        }
      ],
      "stateMutability": "pure",
      "type": "function",
      "constant": true
    },
    {
      "inputs": [],
      "name": "name",
      "outputs": [
        {
          "internalType": "string",
          "name": "",
          "type": "string"
        }
      ],
      "stateMutability": "view",
      "type": "function",
      "constant": true
    },
    {
      "inputs": [
        {
          "internalType": "uint256",
          "name": "proposalId",
          "type": "uint256"
        }
      ],
      "name": "proposalDeadline",
      "outputs": [
        {
          "internalType": "uint256",
          "name": "",
          "type": "uint256"
        }
      ],
      "stateMutability": "view",
      "type": "function",
      "constant": true
    },
    {
      "inputs": [
        {
          "internalType": "uint256",
          "name": "proposalId",
          "type": "uint256"
        }
      ],
      "name": "proposalSnapshot",
      "outputs": [
        {
          "internalType": "uint256",
          "name": "",
          "type": "uint256"
        }
      ],
      "stateMutability": "view",
      "type": "function",
      "constant": true
    },
    {
      "inputs": [
        {
          "internalType": "uint256",
          "name": "proposalId",
          "type": "uint256"
        }
      ],
      "name": "proposalVotes",
      "outputs": [
        {
          "internalType": "uint256",
          "name": "againstVotes",
          "type": "uint256"
        },
        {
          "internalType": "uint256",
          "name": "forVotes",
          "type": "uint256"
        },
        {
          "internalType": "uint256",
          "name": "abstainVotes",
          "type": "uint256"
        }
      ],
      "stateMutability": "view",
      "type": "function",
      "constant": true
    },
    {
      "inputs": [],
      "name": "quorumDenominator",
      "outputs": [
        {
          "internalType": "uint256",
          "name": "",
          "type": "uint256"
        }
      ],
      "stateMutability": "view",
      "type": "function",
      "constant": true
    },
    {
      "inputs": [],
      "name": "quorumNumerator",
      "outputs": [
        {
          "internalType": "uint256",
          "name": "",
          "type": "uint256"
        }
      ],
      "stateMutability": "view",
      "type": "function",
      "constant": true
    },
    {
      "inputs": [
        {
          "internalType": "uint256",
          "name": "proposalId",
          "type": "uint256"
        }
      ],
      "name": "state",
      "outputs": [
        {
          "internalType": "enum IGovernor.ProposalState",
          "name": "",
          "type": "uint8"
        }
      ],
      "stateMutability": "view",
      "type": "function",
      "constant": true
    },
    {
      "inputs": [
        {
          "internalType": "bytes4",
          "name": "interfaceId",
          "type": "bytes4"
        }
      ],
      "name": "supportsInterface",
      "outputs": [
        {
          "internalType": "bool",
          "name": "",
          "type": "bool"
        }
      ],
      "stateMutability": "view",
      "type": "function",
      "constant": true
    },
    {
      "inputs": [],
      "name": "token",
      "outputs": [
        {
          "internalType": "contract ERC20Votes",
          "name": "",
          "type": "address"
        }
      ],
      "stateMutability": "view",
      "type": "function",
      "constant": true
    },
    {
      "inputs": [
        {
          "internalType": "uint256",
          "name": "newQuorumNumerator",
          "type": "uint256"
        }
      ],
      "name": "updateQuorumNumerator",
      "outputs": [],
      "stateMutability": "nonpayable",
      "type": "function"
    },
    {
      "inputs": [],
      "name": "version",
      "outputs": [
        {
          "internalType": "string",
          "name": "",
          "type": "string"
        }
      ],
      "stateMutability": "view",
      "type": "function",
      "constant": true
    },
    {
      "inputs": [],
      "name": "treasury",
      "outputs": [
        {
          "internalType": "address",
          "name": "",
          "type": "address"
        }
      ],
      "stateMutability": "view",
      "type": "function",
      "constant": true
    },
    {
      "inputs": [],
      "name": "treasuryName",
      "outputs": [
        {
          "internalType": "string",
          "name": "",
          "type": "string"
        }
      ],
      "stateMutability": "view",
      "type": "function",
      "constant": true
    },
    {
      "inputs": [],
      "name": "treasuryBalance",
      "outputs": [
        {
          "internalType": "uint256",
          "name": "",
          "type": "uint256"
        }
      ],
      "stateMutability": "view",
      "type": "function",
      "constant": true
    },
    {
      "inputs": [],
      "name": "votingDelay",
      "outputs": [
        {
          "internalType": "uint256",
          "name": "",
          "type": "uint256"
        }
      ],
      "stateMutability": "view",
      "type": "function",
      "constant": true
    },
    {
      "inputs": [],
      "name": "votingPeriod",
      "outputs": [
        {
          "internalType": "uint256",
          "name": "",
          "type": "uint256"
        }
      ],
      "stateMutability": "view",
      "type": "function",
      "constant": true
    },
    {
      "inputs": [
        {
          "internalType": "address[]",
          "name": "targets",
          "type": "address[]"
        },
        {
          "internalType": "uint256[]",
          "name": "values",
          "type": "uint256[]"
        },
        {
          "internalType": "bytes[]",
          "name": "calldatas",
          "type": "bytes[]"
        },
        {
          "internalType": "string",
          "name": "description",
          "type": "string"
        }
      ],
      "name": "propose",
      "outputs": [
        {
          "internalType": "uint256",
          "name": "",
          "type": "uint256"
        }
      ],
      "stateMutability": "nonpayable",
      "type": "function"
    },
    {
      "inputs": [
        {
          "internalType": "uint256",
          "name": "proposalId",
          "type": "uint256"
        },
        {
          "internalType": "uint8",
          "name": "support",
          "type": "uint8"
        }
      ],
      "name": "castVote",
      "outputs": [
        {
          "internalType": "uint256",
          "name": "",
          "type": "uint256"
        }
      ],
      "stateMutability": "nonpayable",
      "type": "function"
    },
    {
      "inputs": [
        {
          "internalType": "uint256",
          "name": "proposalId",
          "type": "uint256"
        },
        {
          "internalType": "uint8",
          "name": "support",
          "type": "uint8"
        },
        {
          "internalType": "string",
          "name": "reason",
          "type": "string"
        }
      ],
      "name": "castVoteWithReason",
      "outputs": [
        {
          "internalType": "uint256",
          "name": "",
          "type": "uint256"
        }
      ],
      "stateMutability": "nonpayable",
      "type": "function"
    },
    {
      "inputs": [
        {
          "internalType": "uint256",
          "name": "proposalId",
          "type": "uint256"
        },
        {
          "internalType": "uint8",
          "name": "support",
          "type": "uint8"
        },
        {
          "internalType": "uint8",
          "name": "v",
          "type": "uint8"
        },
        {
          "internalType": "bytes32",
          "name": "r",
          "type": "bytes32"
        },
        {
          "internalType": "bytes32",
          "name": "s",
          "type": "bytes32"
        }
      ],
      "name": "castVoteBySig",
      "outputs": [
        {
          "internalType": "uint256",
          "name": "",
          "type": "uint256"
        }
      ],
      "stateMutability": "nonpayable",
      "type": "function"
    },
    {
      "inputs": [
        {
          "internalType": "address[]",
          "name": "targets",
          "type": "address[]"
        },
        {
          "internalType": "uint256[]",
          "name": "values",
          "type": "uint256[]"
        },
        {
          "internalType": "bytes[]",
          "name": "calldatas",
          "type": "bytes[]"
        },
        {
          "internalType": "bytes32",
          "name": "descriptionHash",
          "type": "bytes32"
        }
      ],
      "name": "execute",
      "outputs": [
        {
          "internalType": "uint256",
          "name": "",
          "type": "uint256"
        }
      ],
      "stateMutability": "payable",
      "type": "function",
      "payable": true
    },
    {
      "inputs": [
        {
          "internalType": "uint256",
          "name": "blockNumber",
          "type": "uint256"
        }
      ],
      "name": "quorum",
      "outputs": [
        {
          "internalType": "uint256",
          "name": "",
          "type": "uint256"
        }
      ],
      "stateMutability": "view",
      "type": "function",
      "constant": true
    },
    {
      "inputs": [
        {
          "internalType": "address",
          "name": "account",
          "type": "address"
        },
        {
          "internalType": "uint256",
          "name": "blockNumber",
          "type": "uint256"
        }
      ],
      "name": "getVotes",
      "outputs": [
        {
          "internalType": "uint256",
          "name": "",
          "type": "uint256"
        }
      ],
      "stateMutability": "view",
      "type": "function",
      "constant": true
    }
  ],
  "bytecode": "0x6101406040523480156200001257600080fd5b506040516200614c3803806200614c8339818101604052810190620000389190620004c0565b6042846040518060400160405280600d81526020017f436f6e646f476f7665726e6f720000000000000000000000000000000000000081525080620000826200029960201b60201c565b60008280519060200120905060008280519060200120905060007f8b73c3c69bb8fe3d512ecc4cf759cc79239f7b179b0ffacaa9a75d522b39400f90508260c081815250508160e081815250504660a08181525050620000ea818484620002d660201b60201c565b608081815250508061010081815250505050505050806000908051906020019062000117929190620003bd565b50508073ffffffffffffffffffffffffffffffffffffffff166101208173ffffffffffffffffffffffffffffffffffffffff1660601b815250505062000163816200031260201b60201c565b5082600660006101000a81548173ffffffffffffffffffffffffffffffffffffffff021916908373ffffffffffffffffffffffffffffffffffffffff160217905550604051620001b3906200044e565b620001be906200062c565b604051809103906000f080158015620001db573d6000803e3d6000fd5b50600760006101000a81548173ffffffffffffffffffffffffffffffffffffffff021916908373ffffffffffffffffffffffffffffffffffffffff160217905550600760009054906101000a900473ffffffffffffffffffffffffffffffffffffffff1673ffffffffffffffffffffffffffffffffffffffff167f4cae9a8f2e93722ebc1860f5562159be9fc1dce0a31bed3a68a68b5e163360d560405160405180910390a28160048190555080600581905550505050506200084d565b60606040518060400160405280600181526020017f3100000000000000000000000000000000000000000000000000000000000000815250905090565b60008383834630604051602001620002f3959493929190620005ad565b6040516020818303038152906040528051906020012090509392505050565b62000322620003b460201b60201c565b81111562000367576040517f08c379a00000000000000000000000000000000000000000000000000000000081526004016200035e906200060a565b60405180910390fd5b60006003549050816003819055507f0553476bf02ef2726e8ce5ced78d63e26e602e4a2257b1f559418e24b46339978183604051620003a89291906200064e565b60405180910390a15050565b60006064905090565b828054620003cb90620006fc565b90600052602060002090601f016020900481019282620003ef57600085556200043b565b82601f106200040a57805160ff19168380011785556200043b565b828001600101855582156200043b579182015b828111156200043a5782518255916020019190600101906200041d565b5b5090506200044a91906200045c565b5090565b610efe806200524e83390190565b5b80821115620004775760008160009055506001016200045d565b5090565b6000815190506200048c81620007ff565b92915050565b600081519050620004a38162000819565b92915050565b600081519050620004ba8162000833565b92915050565b60008060008060808587031215620004d757600080fd5b6000620004e78782880162000492565b9450506020620004fa878288016200047b565b93505060406200050d87828801620004a9565b92505060606200052087828801620004a9565b91505092959194509250565b62000537816200068c565b82525050565b6200054881620006a0565b82525050565b60006200055d6043836200067b565b91506200056a8262000761565b606082019050919050565b600062000584600d836200067b565b91506200059182620007d6565b602082019050919050565b620005a781620006f2565b82525050565b600060a082019050620005c460008301886200053d565b620005d360208301876200053d565b620005e260408301866200053d565b620005f160608301856200059c565b6200060060808301846200052c565b9695505050505050565b6000602082019050818103600083015262000625816200054e565b9050919050565b60006020820190508181036000830152620006478162000575565b9050919050565b60006040820190506200066560008301856200059c565b6200067460208301846200059c565b9392505050565b600082825260208201905092915050565b60006200069982620006d2565b9050919050565b6000819050919050565b6000620006b7826200068c565b9050919050565b6000620006cb826200068c565b9050919050565b600073ffffffffffffffffffffffffffffffffffffffff82169050919050565b6000819050919050565b600060028204905060018216806200071557607f821691505b602082108114156200072c576200072b62000732565b5b50919050565b7f4e487b7100000000000000000000000000000000000000000000000000000000600052602260045260246000fd5b7f476f7665726e6f72566f74657351756f72756d4672616374696f6e3a2071756f60008201527f72756d4e756d657261746f72206f7665722071756f72756d44656e6f6d696e6160208201527f746f720000000000000000000000000000000000000000000000000000000000604082015250565b7f436f6e646f547265617375727900000000000000000000000000000000000000600082015250565b6200080a81620006aa565b81146200081657600080fd5b50565b6200082481620006be565b81146200083057600080fd5b50565b6200083e81620006f2565b81146200084a57600080fd5b50565b60805160a05160c05160e051610100516101205160601c6149a0620008ae6000396000818161147301528181611c220152611ce701526000612287015260006122c9015260006122a8015260006122340152600061225c01526149a06000f3fe6080604052600436106101c25760003560e01c806354fd4d50116100f7578063c01f9e3711610095578063ead01ef411610064578063ead01ef4146106c5578063eb9019d4146106f0578063f8ce560a1461072d578063fc0c546a1461076a576101c2565b8063c01f9e37146105f5578063c59057e414610632578063dd4e2ba51461066f578063deaaa7cc1461069a576101c2565b80637b3c71d3116100d15780637b3c71d3146105255780637d5e81e21461056257806397c3d3341461059f578063a7713a70146105ca576101c2565b806354fd4d501461049257806356781388146104bd57806361d027b3146104fa576101c2565b80633932abb111610164578063438596321161013e57806343859632146103c057806349c02ac3146103fd57806353b7acdf14610428578063544ffc9c14610453576101c2565b80633932abb11461031b5780633bccf4fd146103465780633e4f49e614610383576101c2565b806306fdde03116101a057806306fdde03146102585780632656227d146102835780632d63f693146102b3578063313dab20146102f0576101c2565b806301ffc9a7146101c757806302a251a31461020457806306f3f9e61461022f575b600080fd5b3480156101d357600080fd5b506101ee60048036038101906101e99190612f93565b610795565b6040516101fb919061388e565b60405180910390f35b34801561021057600080fd5b5061021961080f565b6040516102269190613c21565b60405180910390f35b34801561023b57600080fd5b5061025660048036038101906102519190612ffd565b610819565b005b34801561026457600080fd5b5061026d6108a1565b60405161027a91906139ff565b60405180910390f35b61029d60048036038101906102989190612e25565b610933565b6040516102aa9190613c21565b60405180910390f35b3480156102bf57600080fd5b506102da60048036038101906102d59190612ffd565b610a37565b6040516102e79190613c21565b60405180910390f35b3480156102fc57600080fd5b50610305610aa5565b6040516103129190613c21565b60405180910390f35b34801561032757600080fd5b50610330610b4c565b60405161033d9190613c21565b60405180910390f35b34801561035257600080fd5b5061036d60048036038101906103689190613133565b610b56565b60405161037a9190613c21565b60405180910390f35b34801561038f57600080fd5b506103aa60048036038101906103a59190612ffd565b610c5c565b6040516103b791906139e4565b60405180910390f35b3480156103cc57600080fd5b506103e760048036038101906103e2919061304f565b610e23565b6040516103f4919061388e565b60405180910390f35b34801561040957600080fd5b50610412610e8e565b60405161041f91906139ae565b60405180910390f35b34801561043457600080fd5b5061043d610eb4565b60405161044a91906139ff565b60405180910390f35b34801561045f57600080fd5b5061047a60048036038101906104759190612ffd565b610f60565b60405161048993929190613d15565b60405180910390f35b34801561049e57600080fd5b506104a7610f98565b6040516104b491906139ff565b60405180910390f35b3480156104c957600080fd5b506104e460048036038101906104df919061308b565b610fd5565b6040516104f19190613c21565b60405180910390f35b34801561050657600080fd5b5061050f6110d5565b60405161051c91906137f0565b60405180910390f35b34801561053157600080fd5b5061054c600480360381019061054791906130c7565b6110ff565b6040516105599190613c21565b60405180910390f35b34801561056e57600080fd5b5061058960048036038101906105849190612ed0565b611203565b6040516105969190613c21565b60405180910390f35b3480156105ab57600080fd5b506105b4611307565b6040516105c19190613c21565b60405180910390f35b3480156105d657600080fd5b506105df611310565b6040516105ec9190613c21565b60405180910390f35b34801561060157600080fd5b5061061c60048036038101906106179190612ffd565b61131a565b6040516106299190613c21565b60405180910390f35b34801561063e57600080fd5b5061065960048036038101906106549190612e25565b611388565b6040516106669190613c21565b60405180910390f35b34801561067b57600080fd5b506106846113c4565b60405161069191906139ff565b60405180910390f35b3480156106a657600080fd5b506106af611401565b6040516106bc91906138a9565b60405180910390f35b3480156106d157600080fd5b506106da611425565b6040516106e79190613993565b60405180910390f35b3480156106fc57600080fd5b5061071760048036038101906107129190612de9565b61144b565b6040516107249190613c21565b60405180910390f35b34801561073957600080fd5b50610754600480360381019061074f9190612ffd565b61145f565b6040516107619190613c21565b60405180910390f35b34801561077657600080fd5b5061077f611471565b60405161078c91906139c9565b60405180910390f35b60007fbf26d897000000000000000000000000000000000000000000000000000000007bffffffffffffffffffffffffffffffffffffffffffffffffffffffff1916827bffffffffffffffffffffffffffffffffffffffffffffffffffffffff19161480610808575061080782611495565b5b9050919050565b6000600554905090565b6108216114ff565b73ffffffffffffffffffffffffffffffffffffffff1661083f611507565b73ffffffffffffffffffffffffffffffffffffffff1614610895576040517f08c379a000000000000000000000000000000000000000000000000000000000815260040161088c90613a41565b60405180910390fd5b61089e8161150f565b50565b6060600080546108b090614289565b80601f01602080910402602001604051908101604052809291908181526020018280546108dc90614289565b80156109295780601f106108fe57610100808354040283529160200191610929565b820191906000526020600020905b81548152906001019060200180831161090c57829003601f168201915b5050505050905090565b600080600660009054906101000a900473ffffffffffffffffffffffffffffffffffffffff1673ffffffffffffffffffffffffffffffffffffffff166370a08231326040518263ffffffff1660e01b815260040161099191906137f0565b60206040518083038186803b1580156109a957600080fd5b505afa1580156109bd573d6000803e3d6000fd5b505050506040513d601f19601f820116820180604052508101906109e19190613026565b11610a21576040517f08c379a0000000000000000000000000000000000000000000000000000000008152600401610a1890613b81565b60405180910390fd5b610a2d858585856115a4565b9050949350505050565b6000610a94600160008481526020019081526020016000206000016040518060200160405290816000820160009054906101000a900467ffffffffffffffff1667ffffffffffffffff1667ffffffffffffffff168152505061176f565b67ffffffffffffffff169050919050565b6000600760009054906101000a900473ffffffffffffffffffffffffffffffffffffffff1673ffffffffffffffffffffffffffffffffffffffff166312065fe06040518163ffffffff1660e01b815260040160206040518083038186803b158015610b0f57600080fd5b505afa158015610b23573d6000803e3d6000fd5b505050506040513d601f19601f82011682018060405250810190610b479190613026565b905090565b6000600454905090565b600080600660009054906101000a900473ffffffffffffffffffffffffffffffffffffffff1673ffffffffffffffffffffffffffffffffffffffff166370a08231326040518263ffffffff1660e01b8152600401610bb491906137f0565b60206040518083038186803b158015610bcc57600080fd5b505afa158015610be0573d6000803e3d6000fd5b505050506040513d601f19601f82011682018060405250810190610c049190613026565b11610c44576040517f08c379a0000000000000000000000000000000000000000000000000000000008152600401610c3b90613b81565b60405180910390fd5b610c51868686868661177d565b905095945050505050565b60008060016000848152602001908152602001600020604051806080016040529081600082016040518060200160405290816000820160009054906101000a900467ffffffffffffffff1667ffffffffffffffff1667ffffffffffffffff16815250508152602001600182016040518060200160405290816000820160009054906101000a900467ffffffffffffffff1667ffffffffffffffff1667ffffffffffffffff168152505081526020016002820160009054906101000a900460ff161515151581526020016002820160019054906101000a900460ff1615151515815250509050806040015115610d55576007915050610e1e565b806060015115610d69576002915050610e1e565b610d768160000151611807565b15610d85576000915050610e1e565b610d928160200151611807565b15610da1576001915050610e1e565b610dae8160200151611821565b15610de357610dbc8361184d565b8015610dcd5750610dcc83611894565b5b610dd8576003610ddb565b60045b915050610e1e565b6040517f08c379a0000000000000000000000000000000000000000000000000000000008152600401610e1590613bc1565b60405180910390fd5b919050565b60006002600084815260200190815260200160002060030160008373ffffffffffffffffffffffffffffffffffffffff1673ffffffffffffffffffffffffffffffffffffffff16815260200190815260200160002060009054906101000a900460ff16905092915050565b600760009054906101000a900473ffffffffffffffffffffffffffffffffffffffff1681565b6060600760009054906101000a900473ffffffffffffffffffffffffffffffffffffffff1673ffffffffffffffffffffffffffffffffffffffff166306fdde036040518163ffffffff1660e01b815260040160006040518083038186803b158015610f1e57600080fd5b505afa158015610f32573d6000803e3d6000fd5b505050506040513d6000823e3d601f19601f82011682018060405250810190610f5b9190612fbc565b905090565b600080600080600260008681526020019081526020016000209050806000015481600101548260020154935093509350509193909250565b60606040518060400160405280600181526020017f3100000000000000000000000000000000000000000000000000000000000000815250905090565b600080600660009054906101000a900473ffffffffffffffffffffffffffffffffffffffff1673ffffffffffffffffffffffffffffffffffffffff166370a08231326040518263ffffffff1660e01b815260040161103391906137f0565b60206040518083038186803b15801561104b57600080fd5b505afa15801561105f573d6000803e3d6000fd5b505050506040513d601f19601f820116820180604052508101906110839190613026565b116110c3576040517f08c379a00000000000000000000000000000000000000000000000000000000081526004016110ba90613b81565b60405180910390fd5b6110cd83836118bf565b905092915050565b6000600760009054906101000a900473ffffffffffffffffffffffffffffffffffffffff16905090565b600080600660009054906101000a900473ffffffffffffffffffffffffffffffffffffffff1673ffffffffffffffffffffffffffffffffffffffff166370a08231326040518263ffffffff1660e01b815260040161115d91906137f0565b60206040518083038186803b15801561117557600080fd5b505afa158015611189573d6000803e3d6000fd5b505050506040513d601f19601f820116820180604052508101906111ad9190613026565b116111ed576040517f08c379a00000000000000000000000000000000000000000000000000000000081526004016111e490613b81565b60405180910390fd5b6111f9858585856118f0565b9050949350505050565b600080600660009054906101000a900473ffffffffffffffffffffffffffffffffffffffff1673ffffffffffffffffffffffffffffffffffffffff166370a08231326040518263ffffffff1660e01b815260040161126191906137f0565b60206040518083038186803b15801561127957600080fd5b505afa15801561128d573d6000803e3d6000fd5b505050506040513d601f19601f820116820180604052508101906112b19190613026565b116112f1576040517f08c379a00000000000000000000000000000000000000000000000000000000081526004016112e890613b81565b60405180910390fd5b6112fd85858585611958565b9050949350505050565b60006064905090565b6000600354905090565b6000611377600160008481526020019081526020016000206001016040518060200160405290816000820160009054906101000a900467ffffffffffffffff1667ffffffffffffffff1667ffffffffffffffff168152505061176f565b67ffffffffffffffff169050919050565b6000848484846040516020016113a19493929190613834565b6040516020818303038152906040528051906020012060001c9050949350505050565b60606040518060400160405280602081526020017f737570706f72743d627261766f2671756f72756d3d666f722c6162737461696e815250905090565b7f150214d74d59b7d1e90c73fc22ef3d991dd0a76b046543d4d80ab92d2a50328f81565b600660009054906101000a900473ffffffffffffffffffffffffffffffffffffffff1681565b60006114578383611c1e565b905092915050565b600061146a82611cd3565b9050919050565b7f000000000000000000000000000000000000000000000000000000000000000081565b60007f01ffc9a7000000000000000000000000000000000000000000000000000000007bffffffffffffffffffffffffffffffffffffffffffffffffffffffff1916827bffffffffffffffffffffffffffffffffffffffffffffffffffffffff1916149050919050565b600030905090565b600033905090565b611517611307565b811115611559576040517f08c379a000000000000000000000000000000000000000000000000000000000815260040161155090613a61565b60405180910390fd5b60006003549050816003819055507f0553476bf02ef2726e8ce5ced78d63e26e602e4a2257b1f559418e24b46339978183604051611598929190613cec565b60405180910390a15050565b6000806115b386868686611388565b905060006115c082610c5c565b9050600460078111156115fc577f4e487b7100000000000000000000000000000000000000000000000000000000600052602160045260246000fd5b816007811115611635577f4e487b7100000000000000000000000000000000000000000000000000000000600052602160045260246000fd5b14806116b1575060056007811115611676577f4e487b7100000000000000000000000000000000000000000000000000000000600052602160045260246000fd5b8160078111156116af577f4e487b7100000000000000000000000000000000000000000000000000000000600052602160045260246000fd5b145b6116f0576040517f08c379a00000000000000000000000000000000000000000000000000000000081526004016116e790613ba1565b60405180910390fd5b600180600084815260200190815260200160002060020160006101000a81548160ff0219169083151502179055507f712ae1383f79ac853f8d882153778e0260ef8f03b504e2866e0593e04d2b291f8260405161174d9190613c21565b60405180910390a16117628288888888611da9565b8192505050949350505050565b600081600001519050919050565b6000806117de6117d67f150214d74d59b7d1e90c73fc22ef3d991dd0a76b046543d4d80ab92d2a50328f89896040516020016117bb93929190613917565b60405160208183030381529060405280519060200120611f2a565b868686611f44565b90506117fb87828860405180602001604052806000815250611f6f565b91505095945050505050565b600043826000015167ffffffffffffffff16119050919050565b600061182c8261210f565b8015611846575043826000015167ffffffffffffffff1611155b9050919050565b600080600260008481526020019081526020016000209050806002015481600101546118799190613fe6565b61188a61188585610a37565b61145f565b1115915050919050565b6000806002600084815260200190815260200160002090508060000154816001015411915050919050565b6000806118ca611507565b90506118e784828560405180602001604052806000815250611f6f565b91505092915050565b6000806118fb611507565b905061194d86828787878080601f016020809104026020016040519081016040528093929190818152602001838380828437600081840152601f19601f82011690508083019250505050505050611f6f565b915050949350505050565b60008061196e8686868680519060200120611388565b905084518651146119b4576040517f08c379a00000000000000000000000000000000000000000000000000000000081526004016119ab90613aa1565b60405180910390fd5b83518651146119f8576040517f08c379a00000000000000000000000000000000000000000000000000000000081526004016119ef90613aa1565b60405180910390fd5b6000865111611a3c576040517f08c379a0000000000000000000000000000000000000000000000000000000008152600401611a3390613b21565b60405180910390fd5b6000600160008381526020019081526020016000209050611a9c816000016040518060200160405290816000820160009054906101000a900467ffffffffffffffff1667ffffffffffffffff1667ffffffffffffffff1681525050612129565b611adb576040517f08c379a0000000000000000000000000000000000000000000000000000000008152600401611ad290613c01565b60405180910390fd5b6000611aed611ae8610b4c565b612143565b611af643612143565b611b00919061403c565b90506000611b14611b0f61080f565b612143565b82611b1f919061403c565b9050611b37828460000161219a90919063ffffffff16565b611b4d818460010161219a90919063ffffffff16565b7f7d84a6263ae0d98d3329bd7b46bb4e8d6f98cd35a7adb45c274c8b7fd5ebd5e084611b77611507565b8b8b8d5167ffffffffffffffff811115611bba577f4e487b7100000000000000000000000000000000000000000000000000000000600052604160045260246000fd5b604051908082528060200260200182016040528015611bed57816020015b6060815260200190600190039081611bd85790505b508c88888e604051611c0799989796959493929190613c3c565b60405180910390a183945050505050949350505050565b60007f000000000000000000000000000000000000000000000000000000000000000073ffffffffffffffffffffffffffffffffffffffff16633a46b1a884846040518363ffffffff1660e01b8152600401611c7b92919061380b565b60206040518083038186803b158015611c9357600080fd5b505afa158015611ca7573d6000803e3d6000fd5b505050506040513d601f19601f82011682018060405250810190611ccb9190613026565b905092915050565b6000611cdd611307565b611ce5611310565b7f000000000000000000000000000000000000000000000000000000000000000073ffffffffffffffffffffffffffffffffffffffff16638e539e8c856040518263ffffffff1660e01b8152600401611d3e9190613c21565b60206040518083038186803b158015611d5657600080fd5b505afa158015611d6a573d6000803e3d6000fd5b505050506040513d601f19601f82011682018060405250810190611d8e9190613026565b611d9891906140ab565b611da2919061407a565b9050919050565b600060405180606001604052806027815260200161494460279139905060005b8551811015611f2157600080878381518110611e0e577f4e487b7100000000000000000000000000000000000000000000000000000000600052603260045260246000fd5b602002602001015173ffffffffffffffffffffffffffffffffffffffff16878481518110611e65577f4e487b7100000000000000000000000000000000000000000000000000000000600052603260045260246000fd5b6020026020010151878581518110611ea6577f4e487b7100000000000000000000000000000000000000000000000000000000600052603260045260246000fd5b6020026020010151604051611ebb91906137a2565b60006040518083038185875af1925050503d8060008114611ef8576040519150601f19603f3d011682016040523d82523d6000602084013e611efd565b606091505b5091509150611f0d8282866121c9565b50505080611f1a906142ec565b9050611dc9565b50505050505050565b6000611f3d611f37612230565b836122f3565b9050919050565b6000806000611f5587878787612326565b91509150611f6281612433565b8192505050949350505050565b60008060016000878152602001908152602001600020905060016007811115611fc1577f4e487b7100000000000000000000000000000000000000000000000000000000600052602160045260246000fd5b611fca87610c5c565b6007811115612002577f4e487b7100000000000000000000000000000000000000000000000000000000600052602160045260246000fd5b14612042576040517f08c379a000000000000000000000000000000000000000000000000000000000815260040161203990613b01565b60405180910390fd5b60006120a086612091846000016040518060200160405290816000820160009054906101000a900467ffffffffffffffff1667ffffffffffffffff1667ffffffffffffffff168152505061176f565b67ffffffffffffffff1661144b565b90506120ae87878784612784565b8573ffffffffffffffffffffffffffffffffffffffff167fb8e138887d0aa13bab447e82de9d5c1777041ecd21ca36ba824ff1e6c07ddda4888784886040516120fa9493929190613d4c565b60405180910390a28092505050949350505050565b600080826000015167ffffffffffffffff16119050919050565b600080826000015167ffffffffffffffff16149050919050565b600067ffffffffffffffff8016821115612192576040517f08c379a000000000000000000000000000000000000000000000000000000000815260040161218990613b61565b60405180910390fd5b819050919050565b808260000160006101000a81548167ffffffffffffffff021916908367ffffffffffffffff1602179055505050565b606083156121d957829050612229565b6000835111156121ec5782518084602001fd5b816040517f08c379a000000000000000000000000000000000000000000000000000000000815260040161222091906139ff565b60405180910390fd5b9392505050565b60007f0000000000000000000000000000000000000000000000000000000000000000461415612282577f000000000000000000000000000000000000000000000000000000000000000090506122f0565b6122ed7f00000000000000000000000000000000000000000000000000000000000000007f00000000000000000000000000000000000000000000000000000000000000007f00000000000000000000000000000000000000000000000000000000000000006129fc565b90505b90565b600082826040516020016123089291906137b9565b60405160208183030381529060405280519060200120905092915050565b6000807f7fffffffffffffffffffffffffffffff5d576e7357a4501ddfe92f46681b20a08360001c111561236157600060039150915061242a565b601b8560ff16141580156123795750601c8560ff1614155b1561238b57600060049150915061242a565b6000600187878787604051600081526020016040526040516123b0949392919061394e565b6020604051602081039080840390855afa1580156123d2573d6000803e3d6000fd5b505050602060405103519050600073ffffffffffffffffffffffffffffffffffffffff168173ffffffffffffffffffffffffffffffffffffffff1614156124215760006001925092505061242a565b80600092509250505b94509492505050565b6000600481111561246d577f4e487b7100000000000000000000000000000000000000000000000000000000600052602160045260246000fd5b8160048111156124a6577f4e487b7100000000000000000000000000000000000000000000000000000000600052602160045260246000fd5b14156124b157612781565b600160048111156124eb577f4e487b7100000000000000000000000000000000000000000000000000000000600052602160045260246000fd5b816004811115612524577f4e487b7100000000000000000000000000000000000000000000000000000000600052602160045260246000fd5b1415612565576040517f08c379a000000000000000000000000000000000000000000000000000000000815260040161255c90613a21565b60405180910390fd5b6002600481111561259f577f4e487b7100000000000000000000000000000000000000000000000000000000600052602160045260246000fd5b8160048111156125d8577f4e487b7100000000000000000000000000000000000000000000000000000000600052602160045260246000fd5b1415612619576040517f08c379a000000000000000000000000000000000000000000000000000000000815260040161261090613a81565b60405180910390fd5b60036004811115612653577f4e487b7100000000000000000000000000000000000000000000000000000000600052602160045260246000fd5b81600481111561268c577f4e487b7100000000000000000000000000000000000000000000000000000000600052602160045260246000fd5b14156126cd576040517f08c379a00000000000000000000000000000000000000000000000000000000081526004016126c490613ac1565b60405180910390fd5b600480811115612706577f4e487b7100000000000000000000000000000000000000000000000000000000600052602160045260246000fd5b81600481111561273f577f4e487b7100000000000000000000000000000000000000000000000000000000600052602160045260246000fd5b1415612780576040517f08c379a000000000000000000000000000000000000000000000000000000000815260040161277790613b41565b60405180910390fd5b5b50565b60006002600086815260200190815260200160002090508060030160008573ffffffffffffffffffffffffffffffffffffffff1673ffffffffffffffffffffffffffffffffffffffff16815260200190815260200160002060009054906101000a900460ff161561282a576040517f08c379a000000000000000000000000000000000000000000000000000000000815260040161282190613ae1565b60405180910390fd5b60018160030160008673ffffffffffffffffffffffffffffffffffffffff1673ffffffffffffffffffffffffffffffffffffffff16815260200190815260200160002060006101000a81548160ff021916908315150217905550600060028111156128be577f4e487b7100000000000000000000000000000000000000000000000000000000600052602160045260246000fd5b60ff168360ff1614156128eb57818160000160008282546128df9190613fe6565b925050819055506129f5565b60016002811115612925577f4e487b7100000000000000000000000000000000000000000000000000000000600052602160045260246000fd5b60ff168360ff16141561295257818160010160008282546129469190613fe6565b925050819055506129f4565b60028081111561298b577f4e487b7100000000000000000000000000000000000000000000000000000000600052602160045260246000fd5b60ff168360ff1614156129b857818160020160008282546129ac9190613fe6565b925050819055506129f3565b6040517f08c379a00000000000000000000000000000000000000000000000000000000081526004016129ea90613be1565b60405180910390fd5b5b5b5050505050565b60008383834630604051602001612a179594939291906138c4565b6040516020818303038152906040528051906020012090509392505050565b6000612a49612a4484613dbd565b613d98565b90508083825260208201905082856020860282011115612a6857600080fd5b60005b85811015612a985781612a7e8882612c25565b845260208401935060208301925050600181019050612a6b565b5050509392505050565b6000612ab5612ab084613de9565b613d98565b9050808382526020820190508260005b85811015612af55781358501612adb8882612ce2565b845260208401935060208301925050600181019050612ac5565b5050509392505050565b6000612b12612b0d84613e15565b613d98565b90508083825260208201905082856020860282011115612b3157600080fd5b60005b85811015612b615781612b478882612daa565b845260208401935060208301925050600181019050612b34565b5050509392505050565b6000612b7e612b7984613e41565b613d98565b905082815260208101848484011115612b9657600080fd5b612ba1848285614247565b509392505050565b6000612bbc612bb784613e72565b613d98565b905082815260208101848484011115612bd457600080fd5b612bdf848285614247565b509392505050565b6000612bfa612bf584613e72565b613d98565b905082815260208101848484011115612c1257600080fd5b612c1d848285614256565b509392505050565b600081359050612c34816148d0565b92915050565b600082601f830112612c4b57600080fd5b8135612c5b848260208601612a36565b91505092915050565b600082601f830112612c7557600080fd5b8135612c85848260208601612aa2565b91505092915050565b600082601f830112612c9f57600080fd5b8135612caf848260208601612aff565b91505092915050565b600081359050612cc7816148e7565b92915050565b600081359050612cdc816148fe565b92915050565b600082601f830112612cf357600080fd5b8135612d03848260208601612b6b565b91505092915050565b60008083601f840112612d1e57600080fd5b8235905067ffffffffffffffff811115612d3757600080fd5b602083019150836001820283011115612d4f57600080fd5b9250929050565b600082601f830112612d6757600080fd5b8135612d77848260208601612ba9565b91505092915050565b600082601f830112612d9157600080fd5b8151612da1848260208601612be7565b91505092915050565b600081359050612db981614915565b92915050565b600081519050612dce81614915565b92915050565b600081359050612de38161492c565b92915050565b60008060408385031215612dfc57600080fd5b6000612e0a85828601612c25565b9250506020612e1b85828601612daa565b9150509250929050565b60008060008060808587031215612e3b57600080fd5b600085013567ffffffffffffffff811115612e5557600080fd5b612e6187828801612c3a565b945050602085013567ffffffffffffffff811115612e7e57600080fd5b612e8a87828801612c8e565b935050604085013567ffffffffffffffff811115612ea757600080fd5b612eb387828801612c64565b9250506060612ec487828801612cb8565b91505092959194509250565b60008060008060808587031215612ee657600080fd5b600085013567ffffffffffffffff811115612f0057600080fd5b612f0c87828801612c3a565b945050602085013567ffffffffffffffff811115612f2957600080fd5b612f3587828801612c8e565b935050604085013567ffffffffffffffff811115612f5257600080fd5b612f5e87828801612c64565b925050606085013567ffffffffffffffff811115612f7b57600080fd5b612f8787828801612d56565b91505092959194509250565b600060208284031215612fa557600080fd5b6000612fb384828501612ccd565b91505092915050565b600060208284031215612fce57600080fd5b600082015167ffffffffffffffff811115612fe857600080fd5b612ff484828501612d80565b91505092915050565b60006020828403121561300f57600080fd5b600061301d84828501612daa565b91505092915050565b60006020828403121561303857600080fd5b600061304684828501612dbf565b91505092915050565b6000806040838503121561306257600080fd5b600061307085828601612daa565b925050602061308185828601612c25565b9150509250929050565b6000806040838503121561309e57600080fd5b60006130ac85828601612daa565b92505060206130bd85828601612dd4565b9150509250929050565b600080600080606085870312156130dd57600080fd5b60006130eb87828801612daa565b94505060206130fc87828801612dd4565b935050604085013567ffffffffffffffff81111561311957600080fd5b61312587828801612d0c565b925092505092959194509250565b600080600080600060a0868803121561314b57600080fd5b600061315988828901612daa565b955050602061316a88828901612dd4565b945050604061317b88828901612dd4565b935050606061318c88828901612cb8565b925050608061319d88828901612cb8565b9150509295509295909350565b60006131b68383613202565b60208301905092915050565b60006131ce83836133fb565b905092915050565b60006131e283836134a1565b905092915050565b60006131f68383613766565b60208301905092915050565b61320b81614105565b82525050565b61321a81614105565b82525050565b600061322b82613ee3565b6132358185613f59565b935061324083613ea3565b8060005b8381101561327157815161325888826131aa565b975061326383613f25565b925050600181019050613244565b5085935050505092915050565b600061328982613eee565b6132938185613f6a565b9350836020820285016132a585613eb3565b8060005b858110156132e157848403895281516132c285826131c2565b94506132cd83613f32565b925060208a019950506001810190506132a9565b50829750879550505050505092915050565b60006132fe82613ef9565b6133088185613f7b565b93508360208202850161331a85613ec3565b8060005b85811015613356578484038952815161333785826131d6565b945061334283613f3f565b925060208a0199505060018101905061331e565b50829750879550505050505092915050565b600061337382613f04565b61337d8185613f8c565b935061338883613ed3565b8060005b838110156133b95781516133a088826131ea565b97506133ab83613f4c565b92505060018101905061338c565b5085935050505092915050565b6133cf81614117565b82525050565b6133de81614123565b82525050565b6133f56133f082614123565b614335565b82525050565b600061340682613f0f565b6134108185613f9d565b9350613420818560208601614256565b6134298161442a565b840191505092915050565b600061343f82613f0f565b6134498185613fae565b9350613459818560208601614256565b80840191505092915050565b61346e816141b7565b82525050565b61347d816141db565b82525050565b61348c816141ff565b82525050565b61349b81614223565b82525050565b60006134ac82613f1a565b6134b68185613fb9565b93506134c6818560208601614256565b6134cf8161442a565b840191505092915050565b60006134e582613f1a565b6134ef8185613fca565b93506134ff818560208601614256565b6135088161442a565b840191505092915050565b6000613520601883613fca565b915061352b8261443b565b602082019050919050565b6000613543601883613fca565b915061354e82614464565b602082019050919050565b6000613566604383613fca565b91506135718261448d565b606082019050919050565b6000613589601f83613fca565b915061359482614502565b602082019050919050565b60006135ac600283613fdb565b91506135b78261452b565b600282019050919050565b60006135cf602183613fca565b91506135da82614554565b604082019050919050565b60006135f2602283613fca565b91506135fd826145a3565b604082019050919050565b6000613615602783613fca565b9150613620826145f2565b604082019050919050565b6000613638602383613fca565b915061364382614641565b604082019050919050565b600061365b601883613fca565b915061366682614690565b602082019050919050565b600061367e602283613fca565b9150613689826146b9565b604082019050919050565b60006136a1602683613fca565b91506136ac82614708565b604082019050919050565b60006136c4603683613fca565b91506136cf82614757565b604082019050919050565b60006136e7602183613fca565b91506136f2826147a6565b604082019050919050565b600061370a601d83613fca565b9150613715826147f5565b602082019050919050565b600061372d603583613fca565b91506137388261481e565b604082019050919050565b6000613750602183613fca565b915061375b8261486d565b604082019050919050565b61376f8161418c565b82525050565b61377e8161418c565b82525050565b61378d81614235565b82525050565b61379c816141aa565b82525050565b60006137ae8284613434565b915081905092915050565b60006137c48261359f565b91506137d082856133e4565b6020820191506137e082846133e4565b6020820191508190509392505050565b60006020820190506138056000830184613211565b92915050565b60006040820190506138206000830185613211565b61382d6020830184613775565b9392505050565b6000608082019050818103600083015261384e8187613220565b905081810360208301526138628186613368565b90508181036040830152613876818561327e565b905061388560608301846133d5565b95945050505050565b60006020820190506138a360008301846133c6565b92915050565b60006020820190506138be60008301846133d5565b92915050565b600060a0820190506138d960008301886133d5565b6138e660208301876133d5565b6138f360408301866133d5565b6139006060830185613775565b61390d6080830184613211565b9695505050505050565b600060608201905061392c60008301866133d5565b6139396020830185613775565b6139466040830184613793565b949350505050565b600060808201905061396360008301876133d5565b6139706020830186613793565b61397d60408301856133d5565b61398a60608301846133d5565b95945050505050565b60006020820190506139a86000830184613465565b92915050565b60006020820190506139c36000830184613474565b92915050565b60006020820190506139de6000830184613483565b92915050565b60006020820190506139f96000830184613492565b92915050565b60006020820190508181036000830152613a1981846134da565b905092915050565b60006020820190508181036000830152613a3a81613513565b9050919050565b60006020820190508181036000830152613a5a81613536565b9050919050565b60006020820190508181036000830152613a7a81613559565b9050919050565b60006020820190508181036000830152613a9a8161357c565b9050919050565b60006020820190508181036000830152613aba816135c2565b9050919050565b60006020820190508181036000830152613ada816135e5565b9050919050565b60006020820190508181036000830152613afa81613608565b9050919050565b60006020820190508181036000830152613b1a8161362b565b9050919050565b60006020820190508181036000830152613b3a8161364e565b9050919050565b60006020820190508181036000830152613b5a81613671565b9050919050565b60006020820190508181036000830152613b7a81613694565b9050919050565b60006020820190508181036000830152613b9a816136b7565b9050919050565b60006020820190508181036000830152613bba816136da565b9050919050565b60006020820190508181036000830152613bda816136fd565b9050919050565b60006020820190508181036000830152613bfa81613720565b9050919050565b60006020820190508181036000830152613c1a81613743565b9050919050565b6000602082019050613c366000830184613775565b92915050565b600061012082019050613c52600083018c613775565b613c5f602083018b613211565b8181036040830152613c71818a613220565b90508181036060830152613c858189613368565b90508181036080830152613c9981886132f3565b905081810360a0830152613cad818761327e565b9050613cbc60c0830186613784565b613cc960e0830185613784565b818103610100830152613cdc81846134da565b90509a9950505050505050505050565b6000604082019050613d016000830185613775565b613d0e6020830184613775565b9392505050565b6000606082019050613d2a6000830186613775565b613d376020830185613775565b613d446040830184613775565b949350505050565b6000608082019050613d616000830187613775565b613d6e6020830186613793565b613d7b6040830185613775565b8181036060830152613d8d81846134da565b905095945050505050565b6000613da2613db3565b9050613dae82826142bb565b919050565b6000604051905090565b600067ffffffffffffffff821115613dd857613dd76143fb565b5b602082029050602081019050919050565b600067ffffffffffffffff821115613e0457613e036143fb565b5b602082029050602081019050919050565b600067ffffffffffffffff821115613e3057613e2f6143fb565b5b602082029050602081019050919050565b600067ffffffffffffffff821115613e5c57613e5b6143fb565b5b613e658261442a565b9050602081019050919050565b600067ffffffffffffffff821115613e8d57613e8c6143fb565b5b613e968261442a565b9050602081019050919050565b6000819050602082019050919050565b6000819050602082019050919050565b6000819050602082019050919050565b6000819050602082019050919050565b600081519050919050565b600081519050919050565b600081519050919050565b600081519050919050565b600081519050919050565b600081519050919050565b6000602082019050919050565b6000602082019050919050565b6000602082019050919050565b6000602082019050919050565b600082825260208201905092915050565b600082825260208201905092915050565b600082825260208201905092915050565b600082825260208201905092915050565b600082825260208201905092915050565b600081905092915050565b600082825260208201905092915050565b600082825260208201905092915050565b600081905092915050565b6000613ff18261418c565b9150613ffc8361418c565b9250827fffffffffffffffffffffffffffffffffffffffffffffffffffffffffffffffff038211156140315761403061433f565b5b828201905092915050565b600061404782614196565b915061405283614196565b92508267ffffffffffffffff0382111561406f5761406e61433f565b5b828201905092915050565b60006140858261418c565b91506140908361418c565b9250826140a05761409f61436e565b5b828204905092915050565b60006140b68261418c565b91506140c18361418c565b9250817fffffffffffffffffffffffffffffffffffffffffffffffffffffffffffffffff04831182151516156140fa576140f961433f565b5b828202905092915050565b60006141108261416c565b9050919050565b60008115159050919050565b6000819050919050565b60007fffffffff0000000000000000000000000000000000000000000000000000000082169050919050565b6000819050614167826148bc565b919050565b600073ffffffffffffffffffffffffffffffffffffffff82169050919050565b6000819050919050565b600067ffffffffffffffff82169050919050565b600060ff82169050919050565b60006141c2826141c9565b9050919050565b60006141d48261416c565b9050919050565b60006141e6826141ed565b9050919050565b60006141f88261416c565b9050919050565b600061420a82614211565b9050919050565b600061421c8261416c565b9050919050565b600061422e82614159565b9050919050565b600061424082614196565b9050919050565b82818337600083830152505050565b60005b83811015614274578082015181840152602081019050614259565b83811115614283576000848401525b50505050565b600060028204905060018216806142a157607f821691505b602082108114156142b5576142b46143cc565b5b50919050565b6142c48261442a565b810181811067ffffffffffffffff821117156142e3576142e26143fb565b5b80604052505050565b60006142f78261418c565b91507fffffffffffffffffffffffffffffffffffffffffffffffffffffffffffffffff82141561432a5761432961433f565b5b600182019050919050565b6000819050919050565b7f4e487b7100000000000000000000000000000000000000000000000000000000600052601160045260246000fd5b7f4e487b7100000000000000000000000000000000000000000000000000000000600052601260045260246000fd5b7f4e487b7100000000000000000000000000000000000000000000000000000000600052602160045260246000fd5b7f4e487b7100000000000000000000000000000000000000000000000000000000600052602260045260246000fd5b7f4e487b7100000000000000000000000000000000000000000000000000000000600052604160045260246000fd5b6000601f19601f8301169050919050565b7f45434453413a20696e76616c6964207369676e61747572650000000000000000600082015250565b7f476f7665726e6f723a206f6e6c79476f7665726e616e63650000000000000000600082015250565b7f476f7665726e6f72566f74657351756f72756d4672616374696f6e3a2071756f60008201527f72756d4e756d657261746f72206f7665722071756f72756d44656e6f6d696e6160208201527f746f720000000000000000000000000000000000000000000000000000000000604082015250565b7f45434453413a20696e76616c6964207369676e6174757265206c656e67746800600082015250565b7f1901000000000000000000000000000000000000000000000000000000000000600082015250565b7f476f7665726e6f723a20696e76616c69642070726f706f73616c206c656e677460008201527f6800000000000000000000000000000000000000000000000000000000000000602082015250565b7f45434453413a20696e76616c6964207369676e6174757265202773272076616c60008201527f7565000000000000000000000000000000000000000000000000000000000000602082015250565b7f476f7665726e6f72566f74696e6753696d706c653a20766f746520616c72656160008201527f6479206361737400000000000000000000000000000000000000000000000000602082015250565b7f476f7665726e6f723a20766f7465206e6f742063757272656e746c792061637460008201527f6976650000000000000000000000000000000000000000000000000000000000602082015250565b7f476f7665726e6f723a20656d7074792070726f706f73616c0000000000000000600082015250565b7f45434453413a20696e76616c6964207369676e6174757265202776272076616c60008201527f7565000000000000000000000000000000000000000000000000000000000000602082015250565b7f53616665436173743a2076616c756520646f65736e27742066697420696e203660008201527f3420626974730000000000000000000000000000000000000000000000000000602082015250565b7f6f6e6c7920636f6e646f20756e6974206f776e6572732063616e2070726f706f60008201527f73652f766f746520666f7220676f7665726e616e636500000000000000000000602082015250565b7f476f7665726e6f723a2070726f706f73616c206e6f742073756363657373667560008201527f6c00000000000000000000000000000000000000000000000000000000000000602082015250565b7f476f7665726e6f723a20756e6b6e6f776e2070726f706f73616c206964000000600082015250565b7f476f7665726e6f72566f74696e6753696d706c653a20696e76616c696420766160008201527f6c756520666f7220656e756d20566f7465547970650000000000000000000000602082015250565b7f476f7665726e6f723a2070726f706f73616c20616c726561647920657869737460008201527f7300000000000000000000000000000000000000000000000000000000000000602082015250565b600881106148cd576148cc61439d565b5b50565b6148d981614105565b81146148e457600080fd5b50565b6148f081614123565b81146148fb57600080fd5b50565b6149078161412d565b811461491257600080fd5b50565b61491e8161418c565b811461492957600080fd5b50565b614935816141aa565b811461494057600080fd5b5056fe476f7665726e6f723a2063616c6c20726576657274656420776974686f7574206d657373616765a2646970667358221220134756fc6904fc9d1b625d404bcf9a96eedadd4a3a0e8bb12103ef0989aa4e8664736f6c6343000802003360806040523480156200001157600080fd5b5060405162000efe38038062000efe833981810160405281019062000037919062000265565b620000576200004b6200007760201b60201c565b6200007f60201b60201c565b80600190805190602001906200006f92919062000143565b50506200041a565b600033905090565b60008060009054906101000a900473ffffffffffffffffffffffffffffffffffffffff169050816000806101000a81548173ffffffffffffffffffffffffffffffffffffffff021916908373ffffffffffffffffffffffffffffffffffffffff1602179055508173ffffffffffffffffffffffffffffffffffffffff168173ffffffffffffffffffffffffffffffffffffffff167f8be0079c531659141344cd1fd0a4f28419497f9722a3daafe3b4186f6b6457e060405160405180910390a35050565b82805462000151906200033f565b90600052602060002090601f016020900481019282620001755760008555620001c1565b82601f106200019057805160ff1916838001178555620001c1565b82800160010185558215620001c1579182015b82811115620001c0578251825591602001919060010190620001a3565b5b509050620001d09190620001d4565b5090565b5b80821115620001ef576000816000905550600101620001d5565b5090565b60006200020a6200020484620002d3565b620002aa565b9050828152602081018484840111156200022357600080fd5b6200023084828562000309565b509392505050565b600082601f8301126200024a57600080fd5b81516200025c848260208601620001f3565b91505092915050565b6000602082840312156200027857600080fd5b600082015167ffffffffffffffff8111156200029357600080fd5b620002a18482850162000238565b91505092915050565b6000620002b6620002c9565b9050620002c4828262000375565b919050565b6000604051905090565b600067ffffffffffffffff821115620002f157620002f0620003da565b5b620002fc8262000409565b9050602081019050919050565b60005b83811015620003295780820151818401526020810190506200030c565b8381111562000339576000848401525b50505050565b600060028204905060018216806200035857607f821691505b602082108114156200036f576200036e620003ab565b5b50919050565b620003808262000409565b810181811067ffffffffffffffff82111715620003a257620003a1620003da565b5b80604052505050565b7f4e487b7100000000000000000000000000000000000000000000000000000000600052602260045260246000fd5b7f4e487b7100000000000000000000000000000000000000000000000000000000600052604160045260246000fd5b6000601f19601f8301169050919050565b610ad4806200042a6000396000f3fe6080604052600436106100595760003560e01c806306fdde03146100ea57806312065fe014610115578063715018a6146101405780638da5cb5b14610157578063c1756a2c14610182578063f2fde38b1461019e576100a4565b366100a457343373ffffffffffffffffffffffffffffffffffffffff167fa419615bc8fda4c87663805ee2a3597a6d71c1d476911d9892f340d965bc7bf160405160405180910390a3005b343373ffffffffffffffffffffffffffffffffffffffff167fa419615bc8fda4c87663805ee2a3597a6d71c1d476911d9892f340d965bc7bf160405160405180910390a3005b3480156100f657600080fd5b506100ff6101c7565b60405161010c91906107fe565b60405180910390f35b34801561012157600080fd5b5061012a610259565b6040516101379190610880565b60405180910390f35b34801561014c57600080fd5b50610155610261565b005b34801561016357600080fd5b5061016c6102e9565b60405161017991906107e3565b60405180910390f35b61019c600480360381019061019791906106af565b610312565b005b3480156101aa57600080fd5b506101c560048036038101906101c09190610686565b610483565b005b6060600180546101d690610943565b80601f016020809104026020016040519081016040528092919081815260200182805461020290610943565b801561024f5780601f106102245761010080835404028352916020019161024f565b820191906000526020600020905b81548152906001019060200180831161023257829003601f168201915b5050505050905090565b600047905090565b61026961057b565b73ffffffffffffffffffffffffffffffffffffffff166102876102e9565b73ffffffffffffffffffffffffffffffffffffffff16146102dd576040517f08c379a00000000000000000000000000000000000000000000000000000000081526004016102d490610860565b60405180910390fd5b6102e76000610583565b565b60008060009054906101000a900473ffffffffffffffffffffffffffffffffffffffff16905090565b61031a61057b565b73ffffffffffffffffffffffffffffffffffffffff166103386102e9565b73ffffffffffffffffffffffffffffffffffffffff161461038e576040517f08c379a000000000000000000000000000000000000000000000000000000000815260040161038590610860565b60405180910390fd5b60008273ffffffffffffffffffffffffffffffffffffffff16826040516103b4906107ce565b60006040518083038185875af1925050503d80600081146103f1576040519150601f19603f3d011682016040523d82523d6000602084013e6103f6565b606091505b505090508061043a576040517f08c379a000000000000000000000000000000000000000000000000000000000815260040161043190610840565b60405180910390fd5b818373ffffffffffffffffffffffffffffffffffffffff167f69653cad22163f3a958003e9b2beebd4a65139765733fd4d3d41be96eb4e3a0660405160405180910390a3505050565b61048b61057b565b73ffffffffffffffffffffffffffffffffffffffff166104a96102e9565b73ffffffffffffffffffffffffffffffffffffffff16146104ff576040517f08c379a00000000000000000000000000000000000000000000000000000000081526004016104f690610860565b60405180910390fd5b600073ffffffffffffffffffffffffffffffffffffffff168173ffffffffffffffffffffffffffffffffffffffff16141561056f576040517f08c379a000000000000000000000000000000000000000000000000000000000815260040161056690610820565b60405180910390fd5b61057881610583565b50565b600033905090565b60008060009054906101000a900473ffffffffffffffffffffffffffffffffffffffff169050816000806101000a81548173ffffffffffffffffffffffffffffffffffffffff021916908373ffffffffffffffffffffffffffffffffffffffff1602179055508173ffffffffffffffffffffffffffffffffffffffff168173ffffffffffffffffffffffffffffffffffffffff167f8be0079c531659141344cd1fd0a4f28419497f9722a3daafe3b4186f6b6457e060405160405180910390a35050565b60008135905061065681610a59565b92915050565b60008135905061066b81610a70565b92915050565b60008135905061068081610a87565b92915050565b60006020828403121561069857600080fd5b60006106a684828501610647565b91505092915050565b600080604083850312156106c257600080fd5b60006106d08582860161065c565b92505060206106e185828601610671565b9150509250929050565b6106f4816108c2565b82525050565b60006107058261089b565b61070f81856108b1565b935061071f818560208601610910565b610728816109a4565b840191505092915050565b60006107406026836108b1565b915061074b826109b5565b604082019050919050565b60006107636014836108b1565b915061076e82610a04565b602082019050919050565b60006107866020836108b1565b915061079182610a2d565b602082019050919050565b60006107a96000836108a6565b91506107b482610a56565b600082019050919050565b6107c881610906565b82525050565b60006107d98261079c565b9150819050919050565b60006020820190506107f860008301846106eb565b92915050565b6000602082019050818103600083015261081881846106fa565b905092915050565b6000602082019050818103600083015261083981610733565b9050919050565b6000602082019050818103600083015261085981610756565b9050919050565b6000602082019050818103600083015261087981610779565b9050919050565b600060208201905061089560008301846107bf565b92915050565b600081519050919050565b600081905092915050565b600082825260208201905092915050565b60006108cd826108e6565b9050919050565b60006108df826108e6565b9050919050565b600073ffffffffffffffffffffffffffffffffffffffff82169050919050565b6000819050919050565b60005b8381101561092e578082015181840152602081019050610913565b8381111561093d576000848401525b50505050565b6000600282049050600182168061095b57607f821691505b6020821081141561096f5761096e610975565b5b50919050565b7f4e487b7100000000000000000000000000000000000000000000000000000000600052602260045260246000fd5b6000601f19601f8301169050919050565b7f4f776e61626c653a206e6577206f776e657220697320746865207a65726f206160008201527f6464726573730000000000000000000000000000000000000000000000000000602082015250565b7f4661696c656420746f2073656e64204574686572000000000000000000000000600082015250565b7f4f776e61626c653a2063616c6c6572206973206e6f7420746865206f776e6572600082015250565b50565b610a62816108c2565b8114610a6d57600080fd5b50565b610a79816108d4565b8114610a8457600080fd5b50565b610a9081610906565b8114610a9b57600080fd5b5056fea264697066735822122023a3b5a389441697cf1d6f28ff13328a327cbdb860397c0fefe77f28f4e3430764736f6c63430008020033",
  "immutableReferences": {
    "1356": [
      {
        "length": 32,
        "start": 5235
      },
      {
        "length": 32,
        "start": 7202
      },
      {
        "length": 32,
        "start": 7399
      }
    ],
    "5644": [
      {
        "length": 32,
        "start": 8796
      }
    ],
    "5646": [
      {
        "length": 32,
        "start": 8756
      }
    ],
    "5648": [
      {
        "length": 32,
        "start": 8872
      }
    ],
    "5650": [
      {
        "length": 32,
        "start": 8905
      }
    ],
    "5652": [
      {
        "length": 32,
        "start": 8839
      }
    ]
  },
  "source": "// SPDX-License-Identifier: MIT\npragma solidity ^0.8.2;\n\nimport \"@openzeppelin/contracts/governance/Governor.sol\";\nimport \"@openzeppelin/contracts/governance/extensions/GovernorCountingSimple.sol\";\nimport \"@openzeppelin/contracts/governance/extensions/GovernorVotes.sol\";\nimport \"@openzeppelin/contracts/governance/extensions/GovernorVotesQuorumFraction.sol\";\nimport \"./CondoRegistry.sol\";\nimport \"./CondoTreasury.sol\";\n\n/// @title Condo Governor Contract\n/// @notice homeowners can interact with the contract to make proposals, cast votes and execute proposals \ncontract CondoGovernor is Governor, GovernorCountingSimple, GovernorVotes, GovernorVotesQuorumFraction {\n\n    uint256 private _votingDelay;    \n    uint256 private _votingPeriod;    \n    CondoRegistry public condoRegistry;\n    CondoTreasury public condoTreasury;\n\n    event CreatedCondoTreasury(address indexed condoTreasury);\n\n    /// @dev only homeowners with a CONDO NFT will be able to propose, vote, and execute\n    modifier votingValidity() {\n        require(condoRegistry.balanceOf(tx.origin)>0, \"only condo unit owners can propose/vote for governance\");\n        _;\n    }\n\n    /// @dev CondoTreasury contract instance is created when contract is deployed \n    /// @param _token ERC20 token as votes\n    /// @param _condoRegistry condoRegistry contract\n    /// @param votingDelay_ delay, in number of block, between the proposal is created and the vote starts\n    /// @param votingPeriod_ delay, in number of blocks, between the vote start and vote ends\n    constructor(ERC20Votes _token, CondoRegistry _condoRegistry, uint256 votingDelay_, uint256 votingPeriod_)\n        Governor(\"CondoGovernor\")\n        GovernorVotes(_token)\n        GovernorVotesQuorumFraction(66)\n    {\n        condoRegistry = _condoRegistry;\n        condoTreasury = new CondoTreasury(\"CondoTreasury\");\n        emit CreatedCondoTreasury(address(condoTreasury));\n        _votingDelay = votingDelay_;\n        _votingPeriod = votingPeriod_;\n    }\n\n    /// @return condoTreasury contract address\n    function treasury() public view returns (address) {\n        return address(condoTreasury);\n    }\n\n    /// @return condoTreasury contract name\n    function treasuryName() public view returns (string memory) {\n        return condoTreasury.name();\n    }\n\n    /// @return condoTreasury contract ETH balance\n    function treasuryBalance() public view returns (uint256) {\n        return condoTreasury.getBalance();\n    }\n\n    /// @dev go to https://wizard.openzeppelin.com/#governor for configuration of time in blocks\n    function votingDelay() public view override(IGovernor) returns (uint256) {\n        return _votingDelay; \n    }\n\n    /// @dev go to https://wizard.openzeppelin.com/#governor for configuration of time in blocks\n    function votingPeriod() public view override(IGovernor) returns (uint256) {\n        return _votingPeriod;\n    }\n\n    /// @param targets target contract address to call\n    /// @param values ETH value sent along\n    /// @param calldatas calldata of function call\n    /// @param description proposal description\n    /// @dev overriding with modifier votingValidity()\n    function propose(address[] memory targets, uint256[] memory values, bytes[] memory calldatas, string memory description)\n        public\n        override(Governor)\n        votingValidity\n        returns (uint256)\n    {\n        return super.propose(targets, values, calldatas, description);\n    }\n\n    /// @param proposalId proposal ID\n    /// @param support vote options: 0 = against, 1 = for, 2 = abstain\n    /// @dev overriding with modifier votingValidity()\n    function castVote(uint256 proposalId, uint8 support)\n        public\n        override(Governor)\n        votingValidity\n        returns (uint256)\n    {\n        return super.castVote(proposalId, support);\n    }\n\n    /// @param proposalId proposal ID\n    /// @param support vote options: 0 = against, 1 = for, 2 = abstain\n    /// @dev overriding with modifier votingValidity()\n    function castVoteWithReason(uint256 proposalId, uint8 support, string calldata reason)\n        public\n        override(Governor)\n        votingValidity\n        returns (uint256)\n    {\n        return super.castVoteWithReason(proposalId, support, reason);\n    }\n\n    /// @param proposalId proposal ID\n    /// @param support vote options: 0 = against, 1 = for, 2 = abstain\n    /// @dev overriding with modifier votingValidity()\n    function castVoteBySig(uint256 proposalId, uint8 support, uint8 v, bytes32 r, bytes32 s)\n        public\n        override(Governor)\n        votingValidity\n        returns (uint256)\n    {\n        return super.castVoteBySig(proposalId, support, v, r, s);\n    }\n\n    /// @param targets targeted contract address to call\n    /// @param values ETH value sent along\n    /// @param calldatas calldata of function call\n    /// @param descriptionHash keccak256 hash form of description\n    /// @dev overriding with modifier votingValidity() \n    function execute(address[] memory targets, uint256[] memory values, bytes[] memory calldatas, bytes32 descriptionHash)\n        public\n        payable\n        override(Governor)\n        votingValidity\n        returns (uint256)\n    {\n        return super.execute(targets, values, calldatas, descriptionHash);\n    }\n\n    // The following functions are overrides required by Solidity.\n\n    function quorum(uint256 blockNumber)\n        public\n        view\n        override(IGovernor, GovernorVotesQuorumFraction)\n        returns (uint256)\n    {\n        return super.quorum(blockNumber);\n    }\n\n    function getVotes(address account, uint256 blockNumber)\n        public\n        view\n        override(IGovernor, GovernorVotes)\n        returns (uint256)\n    {\n        return super.getVotes(account, blockNumber);\n    }\n}\n\n",
  "sourcePath": "/Users/admin/blockchain-developer-bootcamp-final-project/contracts/CondoGovernor.sol",
  "compiler": {
    "name": "solc",
    "version": "0.8.2+commit.661d1103.Emscripten.clang"
  },
  "schemaVersion": "3.4.3",
  "updatedAt": "2021-11-27T23:52:33.690Z",
  "networkType": "ethereum",
  "devdoc": {
    "kind": "dev",
    "methods": {
      "COUNTING_MODE()": {
        "details": "See {IGovernor-COUNTING_MODE}."
      },
      "castVote(uint256,uint8)": {
        "details": "overriding with modifier votingValidity()",
        "params": {
          "proposalId": "proposal ID",
          "support": "vote options: 0 = against, 1 = for, 2 = abstain"
        }
      },
      "castVoteBySig(uint256,uint8,uint8,bytes32,bytes32)": {
        "details": "overriding with modifier votingValidity()",
        "params": {
          "proposalId": "proposal ID",
          "support": "vote options: 0 = against, 1 = for, 2 = abstain"
        }
      },
      "castVoteWithReason(uint256,uint8,string)": {
        "details": "overriding with modifier votingValidity()",
        "params": {
          "proposalId": "proposal ID",
          "support": "vote options: 0 = against, 1 = for, 2 = abstain"
        }
      },
      "constructor": {
        "details": "CondoTreasury contract instance is created when contract is deployed ",
        "params": {
          "_condoRegistry": "condoRegistry contract",
          "_token": "ERC20 token as votes",
          "votingDelay_": "delay, in number of block, between the proposal is created and the vote starts",
          "votingPeriod_": "delay, in number of blocks, between the vote start and vote ends"
        }
      },
      "execute(address[],uint256[],bytes[],bytes32)": {
        "details": "overriding with modifier votingValidity() ",
        "params": {
          "calldatas": "calldata of function call",
          "descriptionHash": "keccak256 hash form of description",
          "targets": "targeted contract address to call",
          "values": "ETH value sent along"
        }
      },
      "hasVoted(uint256,address)": {
        "details": "See {IGovernor-hasVoted}."
      },
      "hashProposal(address[],uint256[],bytes[],bytes32)": {
        "details": "See {IGovernor-hashProposal}. The proposal id is produced by hashing the RLC encoded `targets` array, the `values` array, the `calldatas` array and the descriptionHash (bytes32 which itself is the keccak256 hash of the description string). This proposal id can be produced from the proposal data which is part of the {ProposalCreated} event. It can even be computed in advance, before the proposal is submitted. Note that the chainId and the governor address are not part of the proposal id computation. Consequently, the same proposal (with same operation and same description) will have the same id if submitted on multiple governors accross multiple networks. This also means that in order to execute the same operation twice (on the same governor) the proposer will have to change the description in order to avoid proposal id conflicts."
      },
      "name()": {
        "details": "See {IGovernor-name}."
      },
      "proposalDeadline(uint256)": {
        "details": "See {IGovernor-proposalDeadline}."
      },
      "proposalSnapshot(uint256)": {
        "details": "See {IGovernor-proposalSnapshot}."
      },
      "proposalVotes(uint256)": {
        "details": "Accessor to the internal vote counts."
      },
      "propose(address[],uint256[],bytes[],string)": {
        "details": "overriding with modifier votingValidity()",
        "params": {
          "calldatas": "calldata of function call",
          "description": "proposal description",
          "targets": "target contract address to call",
          "values": "ETH value sent along"
        }
      },
      "state(uint256)": {
        "details": "See {IGovernor-state}."
      },
      "supportsInterface(bytes4)": {
        "details": "See {IERC165-supportsInterface}."
      },
      "treasury()": {
        "returns": {
          "_0": "condoTreasury contract address"
        }
      },
      "treasuryBalance()": {
        "returns": {
          "_0": "condoTreasury contract ETH balance"
        }
      },
      "treasuryName()": {
        "returns": {
          "_0": "condoTreasury contract name"
        }
      },
      "version()": {
        "details": "See {IGovernor-version}."
      },
      "votingDelay()": {
        "details": "go to https://wizard.openzeppelin.com/#governor for configuration of time in blocks"
      },
      "votingPeriod()": {
        "details": "go to https://wizard.openzeppelin.com/#governor for configuration of time in blocks"
      }
    },
    "title": "Condo Governor Contract",
    "version": 1
  },
  "userdoc": {
    "kind": "user",
    "methods": {},
    "notice": "homeowners can interact with the contract to make proposals, cast votes and execute proposals ",
    "version": 1
  }
}