{
  "contractName": "CondoTreasury",
  "abi": [
    {
      "inputs": [
        {
          "internalType": "string",
          "name": "name_",
          "type": "string"
        }
      ],
      "stateMutability": "nonpayable",
      "type": "constructor"
    },
    {
      "anonymous": false,
      "inputs": [
        {
          "indexed": true,
          "internalType": "address",
          "name": "previousOwner",
          "type": "address"
        },
        {
          "indexed": true,
          "internalType": "address",
          "name": "newOwner",
          "type": "address"
        }
      ],
      "name": "OwnershipTransferred",
      "type": "event"
    },
    {
      "anonymous": false,
      "inputs": [
        {
          "indexed": true,
          "internalType": "address",
          "name": "_from",
          "type": "address"
        },
        {
          "indexed": true,
          "internalType": "uint256",
          "name": "value",
          "type": "uint256"
        }
      ],
      "name": "ReceivedEther",
      "type": "event"
    },
    {
      "anonymous": false,
      "inputs": [
        {
          "indexed": true,
          "internalType": "address",
          "name": "_to",
          "type": "address"
        },
        {
          "indexed": true,
          "internalType": "uint256",
          "name": "value",
          "type": "uint256"
        }
      ],
      "name": "SentEther",
      "type": "event"
    },
    {
      "stateMutability": "payable",
      "type": "fallback"
    },
    {
      "inputs": [],
      "name": "owner",
      "outputs": [
        {
          "internalType": "address",
          "name": "",
          "type": "address"
        }
      ],
      "stateMutability": "view",
      "type": "function"
    },
    {
      "inputs": [],
      "name": "renounceOwnership",
      "outputs": [],
      "stateMutability": "nonpayable",
      "type": "function"
    },
    {
      "inputs": [
        {
          "internalType": "address",
          "name": "newOwner",
          "type": "address"
        }
      ],
      "name": "transferOwnership",
      "outputs": [],
      "stateMutability": "nonpayable",
      "type": "function"
    },
    {
      "stateMutability": "payable",
      "type": "receive"
    },
    {
      "inputs": [],
      "name": "name",
      "outputs": [
        {
          "internalType": "string",
          "name": "",
          "type": "string"
        }
      ],
      "stateMutability": "view",
      "type": "function"
    },
    {
      "inputs": [],
      "name": "getBalance",
      "outputs": [
        {
          "internalType": "uint256",
          "name": "",
          "type": "uint256"
        }
      ],
      "stateMutability": "view",
      "type": "function"
    },
    {
      "inputs": [
        {
          "internalType": "address payable",
          "name": "_to",
          "type": "address"
        }
      ],
      "name": "sendEther",
      "outputs": [],
      "stateMutability": "payable",
      "type": "function"
    }
  ],
  "bytecode": "0x60806040523480156200001157600080fd5b5060405162000ebe38038062000ebe833981810160405281019062000037919062000265565b620000576200004b6200007760201b60201c565b6200007f60201b60201c565b80600190805190602001906200006f92919062000143565b50506200041a565b600033905090565b60008060009054906101000a900473ffffffffffffffffffffffffffffffffffffffff169050816000806101000a81548173ffffffffffffffffffffffffffffffffffffffff021916908373ffffffffffffffffffffffffffffffffffffffff1602179055508173ffffffffffffffffffffffffffffffffffffffff168173ffffffffffffffffffffffffffffffffffffffff167f8be0079c531659141344cd1fd0a4f28419497f9722a3daafe3b4186f6b6457e060405160405180910390a35050565b82805462000151906200033f565b90600052602060002090601f016020900481019282620001755760008555620001c1565b82601f106200019057805160ff1916838001178555620001c1565b82800160010185558215620001c1579182015b82811115620001c0578251825591602001919060010190620001a3565b5b509050620001d09190620001d4565b5090565b5b80821115620001ef576000816000905550600101620001d5565b5090565b60006200020a6200020484620002d3565b620002aa565b9050828152602081018484840111156200022357600080fd5b6200023084828562000309565b509392505050565b600082601f8301126200024a57600080fd5b81516200025c848260208601620001f3565b91505092915050565b6000602082840312156200027857600080fd5b600082015167ffffffffffffffff8111156200029357600080fd5b620002a18482850162000238565b91505092915050565b6000620002b6620002c9565b9050620002c4828262000375565b919050565b6000604051905090565b600067ffffffffffffffff821115620002f157620002f0620003da565b5b620002fc8262000409565b9050602081019050919050565b60005b83811015620003295780820151818401526020810190506200030c565b8381111562000339576000848401525b50505050565b600060028204905060018216806200035857607f821691505b602082108114156200036f576200036e620003ab565b5b50919050565b620003808262000409565b810181811067ffffffffffffffff82111715620003a257620003a1620003da565b5b80604052505050565b7f4e487b7100000000000000000000000000000000000000000000000000000000600052602260045260246000fd5b7f4e487b7100000000000000000000000000000000000000000000000000000000600052604160045260246000fd5b6000601f19601f8301169050919050565b610a94806200042a6000396000f3fe6080604052600436106100595760003560e01c806306fdde03146100ea57806312065fe01461011557806348c981e214610140578063715018a61461015c5780638da5cb5b14610173578063f2fde38b1461019e576100a4565b366100a457343373ffffffffffffffffffffffffffffffffffffffff167fa419615bc8fda4c87663805ee2a3597a6d71c1d476911d9892f340d965bc7bf160405160405180910390a3005b343373ffffffffffffffffffffffffffffffffffffffff167fa419615bc8fda4c87663805ee2a3597a6d71c1d476911d9892f340d965bc7bf160405160405180910390a3005b3480156100f657600080fd5b506100ff6101c7565b60405161010c91906107d5565b60405180910390f35b34801561012157600080fd5b5061012a610259565b6040516101379190610857565b60405180910390f35b61015a60048036038101906101559190610699565b610261565b005b34801561016857600080fd5b506101716103d1565b005b34801561017f57600080fd5b50610188610459565b60405161019591906107ba565b60405180910390f35b3480156101aa57600080fd5b506101c560048036038101906101c09190610670565b610482565b005b6060600180546101d69061091a565b80601f01602080910402602001604051908101604052809291908181526020018280546102029061091a565b801561024f5780601f106102245761010080835404028352916020019161024f565b820191906000526020600020905b81548152906001019060200180831161023257829003601f168201915b5050505050905090565b600047905090565b61026961057a565b73ffffffffffffffffffffffffffffffffffffffff16610287610459565b73ffffffffffffffffffffffffffffffffffffffff16146102dd576040517f08c379a00000000000000000000000000000000000000000000000000000000081526004016102d490610837565b60405180910390fd5b60008173ffffffffffffffffffffffffffffffffffffffff1634604051610303906107a5565b60006040518083038185875af1925050503d8060008114610340576040519150601f19603f3d011682016040523d82523d6000602084013e610345565b606091505b5050905080610389576040517f08c379a000000000000000000000000000000000000000000000000000000000815260040161038090610817565b60405180910390fd5b348273ffffffffffffffffffffffffffffffffffffffff167f69653cad22163f3a958003e9b2beebd4a65139765733fd4d3d41be96eb4e3a0660405160405180910390a35050565b6103d961057a565b73ffffffffffffffffffffffffffffffffffffffff166103f7610459565b73ffffffffffffffffffffffffffffffffffffffff161461044d576040517f08c379a000000000000000000000000000000000000000000000000000000000815260040161044490610837565b60405180910390fd5b6104576000610582565b565b60008060009054906101000a900473ffffffffffffffffffffffffffffffffffffffff16905090565b61048a61057a565b73ffffffffffffffffffffffffffffffffffffffff166104a8610459565b73ffffffffffffffffffffffffffffffffffffffff16146104fe576040517f08c379a00000000000000000000000000000000000000000000000000000000081526004016104f590610837565b60405180910390fd5b600073ffffffffffffffffffffffffffffffffffffffff168173ffffffffffffffffffffffffffffffffffffffff16141561056e576040517f08c379a0000000000000000000000000000000000000000000000000000000008152600401610565906107f7565b60405180910390fd5b61057781610582565b50565b600033905090565b60008060009054906101000a900473ffffffffffffffffffffffffffffffffffffffff169050816000806101000a81548173ffffffffffffffffffffffffffffffffffffffff021916908373ffffffffffffffffffffffffffffffffffffffff1602179055508173ffffffffffffffffffffffffffffffffffffffff168173ffffffffffffffffffffffffffffffffffffffff167f8be0079c531659141344cd1fd0a4f28419497f9722a3daafe3b4186f6b6457e060405160405180910390a35050565b60008135905061065581610a30565b92915050565b60008135905061066a81610a47565b92915050565b60006020828403121561068257600080fd5b600061069084828501610646565b91505092915050565b6000602082840312156106ab57600080fd5b60006106b98482850161065b565b91505092915050565b6106cb81610899565b82525050565b60006106dc82610872565b6106e68185610888565b93506106f68185602086016108e7565b6106ff8161097b565b840191505092915050565b6000610717602683610888565b91506107228261098c565b604082019050919050565b600061073a601483610888565b9150610745826109db565b602082019050919050565b600061075d602083610888565b915061076882610a04565b602082019050919050565b600061078060008361087d565b915061078b82610a2d565b600082019050919050565b61079f816108dd565b82525050565b60006107b082610773565b9150819050919050565b60006020820190506107cf60008301846106c2565b92915050565b600060208201905081810360008301526107ef81846106d1565b905092915050565b600060208201905081810360008301526108108161070a565b9050919050565b600060208201905081810360008301526108308161072d565b9050919050565b6000602082019050818103600083015261085081610750565b9050919050565b600060208201905061086c6000830184610796565b92915050565b600081519050919050565b600081905092915050565b600082825260208201905092915050565b60006108a4826108bd565b9050919050565b60006108b6826108bd565b9050919050565b600073ffffffffffffffffffffffffffffffffffffffff82169050919050565b6000819050919050565b60005b838110156109055780820151818401526020810190506108ea565b83811115610914576000848401525b50505050565b6000600282049050600182168061093257607f821691505b602082108114156109465761094561094c565b5b50919050565b7f4e487b7100000000000000000000000000000000000000000000000000000000600052602260045260246000fd5b6000601f19601f8301169050919050565b7f4f776e61626c653a206e6577206f776e657220697320746865207a65726f206160008201527f6464726573730000000000000000000000000000000000000000000000000000602082015250565b7f4661696c656420746f2073656e64204574686572000000000000000000000000600082015250565b7f4f776e61626c653a2063616c6c6572206973206e6f7420746865206f776e6572600082015250565b50565b610a3981610899565b8114610a4457600080fd5b50565b610a50816108ab565b8114610a5b57600080fd5b5056fea2646970667358221220ce8aae062d35cdc6f916f806c96dd47a9a9b32b257c07b8122e113895064a73764736f6c63430008020033",
  "immutableReferences": {},
  "source": "// SPDX-License-Identifier: MIT\npragma solidity ^0.8.2;\n\nimport \"@openzeppelin/contracts/access/Ownable.sol\";\n\ncontract CondoTreasury is Ownable {\n\n    string private _name;\n\n    event ReceivedEther(address indexed _from, uint256 indexed value);\n    event SentEther(address indexed _to, uint256 indexed value);\n\n    constructor(string memory name_) {\n        _name = name_;\n    }\n\n    function name() public view returns (string memory) {\n        return _name;\n    }\n\n    function getBalance() public view returns (uint) {\n        return address(this).balance;\n    }\n\n    function sendEther(address payable _to) public payable onlyOwner {\n        (bool sent, ) = _to.call{value: msg.value}(\"\");\n        require(sent, \"Failed to send Ether\");\n        emit SentEther(_to, msg.value);\n    }\n\n    receive() external payable {\n        emit ReceivedEther(msg.sender, msg.value);\n    }\n\n    fallback() external payable {\n        emit ReceivedEther(msg.sender, msg.value);\n    }\n}\n",
  "sourcePath": "/Users/admin/blockchain-developer-bootcamp-final-project/contracts/CondoTreasury.sol",
  "compiler": {
    "name": "solc",
    "version": "0.8.2+commit.661d1103.Emscripten.clang"
  },
  "schemaVersion": "3.4.3",
  "updatedAt": "2021-11-18T20:39:25.069Z",
  "devdoc": {
    "kind": "dev",
    "methods": {
      "owner()": {
        "details": "Returns the address of the current owner."
      },
      "renounceOwnership()": {
        "details": "Leaves the contract without owner. It will not be possible to call `onlyOwner` functions anymore. Can only be called by the current owner. NOTE: Renouncing ownership will leave the contract without an owner, thereby removing any functionality that is only available to the owner."
      },
      "transferOwnership(address)": {
        "details": "Transfers ownership of the contract to a new account (`newOwner`). Can only be called by the current owner."
      }
    },
    "version": 1
  },
  "userdoc": {
    "kind": "user",
    "methods": {},
    "version": 1
  }
}