{
  "contractName": "CondoGovernor",
  "abi": [
    {
      "inputs": [
        {
          "internalType": "contract ERC20Votes",
          "name": "_token",
          "type": "address"
        }
      ],
      "stateMutability": "nonpayable",
      "type": "constructor"
    },
    {
      "anonymous": false,
      "inputs": [
        {
          "indexed": false,
          "internalType": "uint256",
          "name": "proposalId",
          "type": "uint256"
        }
      ],
      "name": "ProposalCanceled",
      "type": "event"
    },
    {
      "anonymous": false,
      "inputs": [
        {
          "indexed": false,
          "internalType": "uint256",
          "name": "proposalId",
          "type": "uint256"
        },
        {
          "indexed": false,
          "internalType": "address",
          "name": "proposer",
          "type": "address"
        },
        {
          "indexed": false,
          "internalType": "address[]",
          "name": "targets",
          "type": "address[]"
        },
        {
          "indexed": false,
          "internalType": "uint256[]",
          "name": "values",
          "type": "uint256[]"
        },
        {
          "indexed": false,
          "internalType": "string[]",
          "name": "signatures",
          "type": "string[]"
        },
        {
          "indexed": false,
          "internalType": "bytes[]",
          "name": "calldatas",
          "type": "bytes[]"
        },
        {
          "indexed": false,
          "internalType": "uint256",
          "name": "startBlock",
          "type": "uint256"
        },
        {
          "indexed": false,
          "internalType": "uint256",
          "name": "endBlock",
          "type": "uint256"
        },
        {
          "indexed": false,
          "internalType": "string",
          "name": "description",
          "type": "string"
        }
      ],
      "name": "ProposalCreated",
      "type": "event"
    },
    {
      "anonymous": false,
      "inputs": [
        {
          "indexed": false,
          "internalType": "uint256",
          "name": "proposalId",
          "type": "uint256"
        }
      ],
      "name": "ProposalExecuted",
      "type": "event"
    },
    {
      "anonymous": false,
      "inputs": [
        {
          "indexed": false,
          "internalType": "uint256",
          "name": "oldQuorumNumerator",
          "type": "uint256"
        },
        {
          "indexed": false,
          "internalType": "uint256",
          "name": "newQuorumNumerator",
          "type": "uint256"
        }
      ],
      "name": "QuorumNumeratorUpdated",
      "type": "event"
    },
    {
      "anonymous": false,
      "inputs": [
        {
          "indexed": true,
          "internalType": "address",
          "name": "voter",
          "type": "address"
        },
        {
          "indexed": false,
          "internalType": "uint256",
          "name": "proposalId",
          "type": "uint256"
        },
        {
          "indexed": false,
          "internalType": "uint8",
          "name": "support",
          "type": "uint8"
        },
        {
          "indexed": false,
          "internalType": "uint256",
          "name": "weight",
          "type": "uint256"
        },
        {
          "indexed": false,
          "internalType": "string",
          "name": "reason",
          "type": "string"
        }
      ],
      "name": "VoteCast",
      "type": "event"
    },
    {
      "inputs": [],
      "name": "BALLOT_TYPEHASH",
      "outputs": [
        {
          "internalType": "bytes32",
          "name": "",
          "type": "bytes32"
        }
      ],
      "stateMutability": "view",
      "type": "function",
      "constant": true
    },
    {
      "inputs": [],
      "name": "COUNTING_MODE",
      "outputs": [
        {
          "internalType": "string",
          "name": "",
          "type": "string"
        }
      ],
      "stateMutability": "pure",
      "type": "function",
      "constant": true
    },
    {
      "inputs": [
        {
          "internalType": "uint256",
          "name": "proposalId",
          "type": "uint256"
        },
        {
          "internalType": "uint8",
          "name": "support",
          "type": "uint8"
        }
      ],
      "name": "castVote",
      "outputs": [
        {
          "internalType": "uint256",
          "name": "",
          "type": "uint256"
        }
      ],
      "stateMutability": "nonpayable",
      "type": "function"
    },
    {
      "inputs": [
        {
          "internalType": "uint256",
          "name": "proposalId",
          "type": "uint256"
        },
        {
          "internalType": "uint8",
          "name": "support",
          "type": "uint8"
        },
        {
          "internalType": "uint8",
          "name": "v",
          "type": "uint8"
        },
        {
          "internalType": "bytes32",
          "name": "r",
          "type": "bytes32"
        },
        {
          "internalType": "bytes32",
          "name": "s",
          "type": "bytes32"
        }
      ],
      "name": "castVoteBySig",
      "outputs": [
        {
          "internalType": "uint256",
          "name": "",
          "type": "uint256"
        }
      ],
      "stateMutability": "nonpayable",
      "type": "function"
    },
    {
      "inputs": [
        {
          "internalType": "uint256",
          "name": "proposalId",
          "type": "uint256"
        },
        {
          "internalType": "uint8",
          "name": "support",
          "type": "uint8"
        },
        {
          "internalType": "string",
          "name": "reason",
          "type": "string"
        }
      ],
      "name": "castVoteWithReason",
      "outputs": [
        {
          "internalType": "uint256",
          "name": "",
          "type": "uint256"
        }
      ],
      "stateMutability": "nonpayable",
      "type": "function"
    },
    {
      "inputs": [
        {
          "internalType": "address[]",
          "name": "targets",
          "type": "address[]"
        },
        {
          "internalType": "uint256[]",
          "name": "values",
          "type": "uint256[]"
        },
        {
          "internalType": "bytes[]",
          "name": "calldatas",
          "type": "bytes[]"
        },
        {
          "internalType": "bytes32",
          "name": "descriptionHash",
          "type": "bytes32"
        }
      ],
      "name": "execute",
      "outputs": [
        {
          "internalType": "uint256",
          "name": "",
          "type": "uint256"
        }
      ],
      "stateMutability": "payable",
      "type": "function",
      "payable": true
    },
    {
      "inputs": [
        {
          "internalType": "uint256",
          "name": "proposalId",
          "type": "uint256"
        },
        {
          "internalType": "address",
          "name": "account",
          "type": "address"
        }
      ],
      "name": "hasVoted",
      "outputs": [
        {
          "internalType": "bool",
          "name": "",
          "type": "bool"
        }
      ],
      "stateMutability": "view",
      "type": "function",
      "constant": true
    },
    {
      "inputs": [
        {
          "internalType": "address[]",
          "name": "targets",
          "type": "address[]"
        },
        {
          "internalType": "uint256[]",
          "name": "values",
          "type": "uint256[]"
        },
        {
          "internalType": "bytes[]",
          "name": "calldatas",
          "type": "bytes[]"
        },
        {
          "internalType": "bytes32",
          "name": "descriptionHash",
          "type": "bytes32"
        }
      ],
      "name": "hashProposal",
      "outputs": [
        {
          "internalType": "uint256",
          "name": "",
          "type": "uint256"
        }
      ],
      "stateMutability": "pure",
      "type": "function",
      "constant": true
    },
    {
      "inputs": [],
      "name": "name",
      "outputs": [
        {
          "internalType": "string",
          "name": "",
          "type": "string"
        }
      ],
      "stateMutability": "view",
      "type": "function",
      "constant": true
    },
    {
      "inputs": [
        {
          "internalType": "uint256",
          "name": "proposalId",
          "type": "uint256"
        }
      ],
      "name": "proposalDeadline",
      "outputs": [
        {
          "internalType": "uint256",
          "name": "",
          "type": "uint256"
        }
      ],
      "stateMutability": "view",
      "type": "function",
      "constant": true
    },
    {
      "inputs": [
        {
          "internalType": "uint256",
          "name": "proposalId",
          "type": "uint256"
        }
      ],
      "name": "proposalSnapshot",
      "outputs": [
        {
          "internalType": "uint256",
          "name": "",
          "type": "uint256"
        }
      ],
      "stateMutability": "view",
      "type": "function",
      "constant": true
    },
    {
      "inputs": [
        {
          "internalType": "uint256",
          "name": "proposalId",
          "type": "uint256"
        }
      ],
      "name": "proposalVotes",
      "outputs": [
        {
          "internalType": "uint256",
          "name": "againstVotes",
          "type": "uint256"
        },
        {
          "internalType": "uint256",
          "name": "forVotes",
          "type": "uint256"
        },
        {
          "internalType": "uint256",
          "name": "abstainVotes",
          "type": "uint256"
        }
      ],
      "stateMutability": "view",
      "type": "function",
      "constant": true
    },
    {
      "inputs": [
        {
          "internalType": "address[]",
          "name": "targets",
          "type": "address[]"
        },
        {
          "internalType": "uint256[]",
          "name": "values",
          "type": "uint256[]"
        },
        {
          "internalType": "bytes[]",
          "name": "calldatas",
          "type": "bytes[]"
        },
        {
          "internalType": "string",
          "name": "description",
          "type": "string"
        }
      ],
      "name": "propose",
      "outputs": [
        {
          "internalType": "uint256",
          "name": "",
          "type": "uint256"
        }
      ],
      "stateMutability": "nonpayable",
      "type": "function"
    },
    {
      "inputs": [],
      "name": "quorumDenominator",
      "outputs": [
        {
          "internalType": "uint256",
          "name": "",
          "type": "uint256"
        }
      ],
      "stateMutability": "view",
      "type": "function",
      "constant": true
    },
    {
      "inputs": [],
      "name": "quorumNumerator",
      "outputs": [
        {
          "internalType": "uint256",
          "name": "",
          "type": "uint256"
        }
      ],
      "stateMutability": "view",
      "type": "function",
      "constant": true
    },
    {
      "inputs": [
        {
          "internalType": "uint256",
          "name": "proposalId",
          "type": "uint256"
        }
      ],
      "name": "state",
      "outputs": [
        {
          "internalType": "enum IGovernor.ProposalState",
          "name": "",
          "type": "uint8"
        }
      ],
      "stateMutability": "view",
      "type": "function",
      "constant": true
    },
    {
      "inputs": [
        {
          "internalType": "bytes4",
          "name": "interfaceId",
          "type": "bytes4"
        }
      ],
      "name": "supportsInterface",
      "outputs": [
        {
          "internalType": "bool",
          "name": "",
          "type": "bool"
        }
      ],
      "stateMutability": "view",
      "type": "function",
      "constant": true
    },
    {
      "inputs": [],
      "name": "token",
      "outputs": [
        {
          "internalType": "contract ERC20Votes",
          "name": "",
          "type": "address"
        }
      ],
      "stateMutability": "view",
      "type": "function",
      "constant": true
    },
    {
      "inputs": [
        {
          "internalType": "uint256",
          "name": "newQuorumNumerator",
          "type": "uint256"
        }
      ],
      "name": "updateQuorumNumerator",
      "outputs": [],
      "stateMutability": "nonpayable",
      "type": "function"
    },
    {
      "inputs": [],
      "name": "version",
      "outputs": [
        {
          "internalType": "string",
          "name": "",
          "type": "string"
        }
      ],
      "stateMutability": "view",
      "type": "function",
      "constant": true
    },
    {
      "inputs": [],
      "name": "votingDelay",
      "outputs": [
        {
          "internalType": "uint256",
          "name": "",
          "type": "uint256"
        }
      ],
      "stateMutability": "pure",
      "type": "function",
      "constant": true
    },
    {
      "inputs": [],
      "name": "votingPeriod",
      "outputs": [
        {
          "internalType": "uint256",
          "name": "",
          "type": "uint256"
        }
      ],
      "stateMutability": "pure",
      "type": "function",
      "constant": true
    },
    {
      "inputs": [
        {
          "internalType": "uint256",
          "name": "blockNumber",
          "type": "uint256"
        }
      ],
      "name": "quorum",
      "outputs": [
        {
          "internalType": "uint256",
          "name": "",
          "type": "uint256"
        }
      ],
      "stateMutability": "view",
      "type": "function",
      "constant": true
    },
    {
      "inputs": [
        {
          "internalType": "address",
          "name": "account",
          "type": "address"
        },
        {
          "internalType": "uint256",
          "name": "blockNumber",
          "type": "uint256"
        }
      ],
      "name": "getVotes",
      "outputs": [
        {
          "internalType": "uint256",
          "name": "",
          "type": "uint256"
        }
      ],
      "stateMutability": "view",
      "type": "function",
      "constant": true
    }
  ],
  "bytecode": "0x6101406040523480156200001257600080fd5b50604051620045ce380380620045ce833981810160405281019062000038919062000356565b6042816040518060400160405280600d81526020017f436f6e646f476f7665726e6f720000000000000000000000000000000000000081525080620000826200016b60201b60201c565b60008280519060200120905060008280519060200120905060007f8b73c3c69bb8fe3d512ecc4cf759cc79239f7b179b0ffacaa9a75d522b39400f90508260c081815250508160e081815250504660a08181525050620000ea818484620001a860201b60201c565b6080818152505080610100818152505050505050508060009080519060200190620001179291906200028f565b50508073ffffffffffffffffffffffffffffffffffffffff166101208173ffffffffffffffffffffffffffffffffffffffff1660601b81525050506200016381620001e460201b60201c565b5050620005e9565b60606040518060400160405280600181526020017f3100000000000000000000000000000000000000000000000000000000000000815250905090565b60008383834630604051602001620001c5959493929190620003dc565b6040516020818303038152906040528051906020012090509392505050565b620001f46200028660201b60201c565b81111562000239576040517f08c379a0000000000000000000000000000000000000000000000000000000008152600401620002309062000439565b60405180910390fd5b60006003549050816003819055507f0553476bf02ef2726e8ce5ced78d63e26e602e4a2257b1f559418e24b463399781836040516200027a9291906200045b565b60405180910390a15050565b60006064905090565b8280546200029d90620004f5565b90600052602060002090601f016020900481019282620002c157600085556200030d565b82601f10620002dc57805160ff19168380011785556200030d565b828001600101855582156200030d579182015b828111156200030c578251825591602001919060010190620002ef565b5b5090506200031c919062000320565b5090565b5b808211156200033b57600081600090555060010162000321565b5090565b6000815190506200035081620005cf565b92915050565b6000602082840312156200036957600080fd5b600062000379848285016200033f565b91505092915050565b6200038d8162000499565b82525050565b6200039e81620004ad565b82525050565b6000620003b360438362000488565b9150620003c0826200055a565b606082019050919050565b620003d681620004eb565b82525050565b600060a082019050620003f3600083018862000393565b62000402602083018762000393565b62000411604083018662000393565b620004206060830185620003cb565b6200042f608083018462000382565b9695505050505050565b600060208201905081810360008301526200045481620003a4565b9050919050565b6000604082019050620004726000830185620003cb565b620004816020830184620003cb565b9392505050565b600082825260208201905092915050565b6000620004a682620004cb565b9050919050565b6000819050919050565b6000620004c48262000499565b9050919050565b600073ffffffffffffffffffffffffffffffffffffffff82169050919050565b6000819050919050565b600060028204905060018216806200050e57607f821691505b602082108114156200052557620005246200052b565b5b50919050565b7f4e487b7100000000000000000000000000000000000000000000000000000000600052602260045260246000fd5b7f476f7665726e6f72566f74657351756f72756d4672616374696f6e3a2071756f60008201527f72756d4e756d657261746f72206f7665722071756f72756d44656e6f6d696e6160208201527f746f720000000000000000000000000000000000000000000000000000000000604082015250565b620005da81620004b7565b8114620005e657600080fd5b50565b60805160a05160c05160e051610100516101205160601c613f846200064a600039600081816111fd015281816117fe01526118c301526000611a4301526000611a8501526000611a64015260006119f001526000611a180152613f846000f3fe60806040526004361061014b5760003560e01c806356781388116100b6578063c59057e41161006f578063c59057e41461050f578063dd4e2ba51461054c578063deaaa7cc14610577578063eb9019d4146105a2578063f8ce560a146105df578063fc0c546a1461061c5761014b565b806356781388146103c55780637b3c71d3146104025780637d5e81e21461043f57806397c3d3341461047c578063a7713a70146104a7578063c01f9e37146104d25761014b565b80633932abb1116101085780633932abb1146102795780633bccf4fd146102a45780633e4f49e6146102e1578063438596321461031e578063544ffc9c1461035b57806354fd4d501461039a5761014b565b806301ffc9a71461015057806302a251a31461018d57806306f3f9e6146101b857806306fdde03146101e15780632656227d1461020c5780632d63f6931461023c575b600080fd5b34801561015c57600080fd5b5061017760048036038101906101729190612701565b610647565b6040516101849190612f5f565b60405180910390f35b34801561019957600080fd5b506101a26106c1565b6040516101af919061329c565b60405180910390f35b3480156101c457600080fd5b506101df60048036038101906101da919061272a565b6106cb565b005b3480156101ed57600080fd5b506101f6610753565b604051610203919061309a565b60405180910390f35b61022660048036038101906102219190612593565b6107e5565b604051610233919061329c565b60405180910390f35b34801561024857600080fd5b50610263600480360381019061025e919061272a565b6109b0565b604051610270919061329c565b60405180910390f35b34801561028557600080fd5b5061028e610a1e565b60405161029b919061329c565b60405180910390f35b3480156102b057600080fd5b506102cb60048036038101906102c69190612860565b610a27565b6040516102d8919061329c565b60405180910390f35b3480156102ed57600080fd5b506103086004803603810190610303919061272a565b610ab1565b604051610315919061307f565b60405180910390f35b34801561032a57600080fd5b506103456004803603810190610340919061277c565b610c78565b6040516103529190612f5f565b60405180910390f35b34801561036757600080fd5b50610382600480360381019061037d919061272a565b610ce3565b60405161039193929190613390565b60405180910390f35b3480156103a657600080fd5b506103af610d1b565b6040516103bc919061309a565b60405180910390f35b3480156103d157600080fd5b506103ec60048036038101906103e791906127b8565b610d58565b6040516103f9919061329c565b60405180910390f35b34801561040e57600080fd5b50610429600480360381019061042491906127f4565b610d89565b604051610436919061329c565b60405180910390f35b34801561044b57600080fd5b506104666004803603810190610461919061263e565b610df1565b604051610473919061329c565b60405180910390f35b34801561048857600080fd5b506104916110b7565b60405161049e919061329c565b60405180910390f35b3480156104b357600080fd5b506104bc6110c0565b6040516104c9919061329c565b60405180910390f35b3480156104de57600080fd5b506104f960048036038101906104f4919061272a565b6110ca565b604051610506919061329c565b60405180910390f35b34801561051b57600080fd5b5061053660048036038101906105319190612593565b611138565b604051610543919061329c565b60405180910390f35b34801561055857600080fd5b50610561611174565b60405161056e919061309a565b60405180910390f35b34801561058357600080fd5b5061058c6111b1565b6040516105999190612f7a565b60405180910390f35b3480156105ae57600080fd5b506105c960048036038101906105c49190612557565b6111d5565b6040516105d6919061329c565b60405180910390f35b3480156105eb57600080fd5b506106066004803603810190610601919061272a565b6111e9565b604051610613919061329c565b60405180910390f35b34801561062857600080fd5b506106316111fb565b60405161063e9190613064565b60405180910390f35b60007fbf26d897000000000000000000000000000000000000000000000000000000007bffffffffffffffffffffffffffffffffffffffffffffffffffffffff1916827bffffffffffffffffffffffffffffffffffffffffffffffffffffffff191614806106ba57506106b98261121f565b5b9050919050565b6000613323905090565b6106d3611289565b73ffffffffffffffffffffffffffffffffffffffff166106f1611291565b73ffffffffffffffffffffffffffffffffffffffff1614610747576040517f08c379a000000000000000000000000000000000000000000000000000000000815260040161073e906130dc565b60405180910390fd5b61075081611299565b50565b606060008054610762906138bc565b80601f016020809104026020016040519081016040528092919081815260200182805461078e906138bc565b80156107db5780601f106107b0576101008083540402835291602001916107db565b820191906000526020600020905b8154815290600101906020018083116107be57829003601f168201915b5050505050905090565b6000806107f486868686611138565b9050600061080182610ab1565b90506004600781111561083d577f4e487b7100000000000000000000000000000000000000000000000000000000600052602160045260246000fd5b816007811115610876577f4e487b7100000000000000000000000000000000000000000000000000000000600052602160045260246000fd5b14806108f25750600560078111156108b7577f4e487b7100000000000000000000000000000000000000000000000000000000600052602160045260246000fd5b8160078111156108f0577f4e487b7100000000000000000000000000000000000000000000000000000000600052602160045260246000fd5b145b610931576040517f08c379a00000000000000000000000000000000000000000000000000000000081526004016109289061321c565b60405180910390fd5b600180600084815260200190815260200160002060020160006101000a81548160ff0219169083151502179055507f712ae1383f79ac853f8d882153778e0260ef8f03b504e2866e0593e04d2b291f8260405161098e919061329c565b60405180910390a16109a3828888888861132e565b8192505050949350505050565b6000610a0d600160008481526020019081526020016000206000016040518060200160405290816000820160009054906101000a900467ffffffffffffffff1667ffffffffffffffff1667ffffffffffffffff16815250506114af565b67ffffffffffffffff169050919050565b60006001905090565b600080610a88610a807f150214d74d59b7d1e90c73fc22ef3d991dd0a76b046543d4d80ab92d2a50328f8989604051602001610a6593929190612fe8565b604051602081830303815290604052805190602001206114bd565b8686866114d7565b9050610aa587828860405180602001604052806000815250611502565b91505095945050505050565b60008060016000848152602001908152602001600020604051806080016040529081600082016040518060200160405290816000820160009054906101000a900467ffffffffffffffff1667ffffffffffffffff1667ffffffffffffffff16815250508152602001600182016040518060200160405290816000820160009054906101000a900467ffffffffffffffff1667ffffffffffffffff1667ffffffffffffffff168152505081526020016002820160009054906101000a900460ff161515151581526020016002820160019054906101000a900460ff1615151515815250509050806040015115610baa576007915050610c73565b806060015115610bbe576002915050610c73565b610bcb81600001516116a2565b15610bda576000915050610c73565b610be781602001516116a2565b15610bf6576001915050610c73565b610c0381602001516116bc565b15610c3857610c11836116e8565b8015610c225750610c218361172f565b5b610c2d576003610c30565b60045b915050610c73565b6040517f08c379a0000000000000000000000000000000000000000000000000000000008152600401610c6a9061323c565b60405180910390fd5b919050565b60006002600084815260200190815260200160002060030160008373ffffffffffffffffffffffffffffffffffffffff1673ffffffffffffffffffffffffffffffffffffffff16815260200190815260200160002060009054906101000a900460ff16905092915050565b600080600080600260008681526020019081526020016000209050806000015481600101548260020154935093509350509193909250565b60606040518060400160405280600181526020017f3100000000000000000000000000000000000000000000000000000000000000815250905090565b600080610d63611291565b9050610d8084828560405180602001604052806000815250611502565b91505092915050565b600080610d94611291565b9050610de686828787878080601f016020809104026020016040519081016040528093929190818152602001838380828437600081840152601f19601f82011690508083019250505050505050611502565b915050949350505050565b600080610e078686868680519060200120611138565b90508451865114610e4d576040517f08c379a0000000000000000000000000000000000000000000000000000000008152600401610e449061313c565b60405180910390fd5b8351865114610e91576040517f08c379a0000000000000000000000000000000000000000000000000000000008152600401610e889061313c565b60405180910390fd5b6000865111610ed5576040517f08c379a0000000000000000000000000000000000000000000000000000000008152600401610ecc906131bc565b60405180910390fd5b6000600160008381526020019081526020016000209050610f35816000016040518060200160405290816000820160009054906101000a900467ffffffffffffffff1667ffffffffffffffff1667ffffffffffffffff168152505061175a565b610f74576040517f08c379a0000000000000000000000000000000000000000000000000000000008152600401610f6b9061327c565b60405180910390fd5b6000610f86610f81610a1e565b611774565b610f8f43611774565b610f9991906136b7565b90506000610fad610fa86106c1565b611774565b82610fb891906136b7565b9050610fd082846000016117cb90919063ffffffff16565b610fe681846001016117cb90919063ffffffff16565b7f7d84a6263ae0d98d3329bd7b46bb4e8d6f98cd35a7adb45c274c8b7fd5ebd5e084611010611291565b8b8b8d5167ffffffffffffffff811115611053577f4e487b7100000000000000000000000000000000000000000000000000000000600052604160045260246000fd5b60405190808252806020026020018201604052801561108657816020015b60608152602001906001900390816110715790505b508c88888e6040516110a0999897969594939291906132b7565b60405180910390a183945050505050949350505050565b60006064905090565b6000600354905090565b6000611127600160008481526020019081526020016000206001016040518060200160405290816000820160009054906101000a900467ffffffffffffffff1667ffffffffffffffff1667ffffffffffffffff16815250506114af565b67ffffffffffffffff169050919050565b6000848484846040516020016111519493929190612f05565b6040516020818303038152906040528051906020012060001c9050949350505050565b60606040518060400160405280602081526020017f737570706f72743d627261766f2671756f72756d3d666f722c6162737461696e815250905090565b7f150214d74d59b7d1e90c73fc22ef3d991dd0a76b046543d4d80ab92d2a50328f81565b60006111e183836117fa565b905092915050565b60006111f4826118af565b9050919050565b7f000000000000000000000000000000000000000000000000000000000000000081565b60007f01ffc9a7000000000000000000000000000000000000000000000000000000007bffffffffffffffffffffffffffffffffffffffffffffffffffffffff1916827bffffffffffffffffffffffffffffffffffffffffffffffffffffffff1916149050919050565b600030905090565b600033905090565b6112a16110b7565b8111156112e3576040517f08c379a00000000000000000000000000000000000000000000000000000000081526004016112da906130fc565b60405180910390fd5b60006003549050816003819055507f0553476bf02ef2726e8ce5ced78d63e26e602e4a2257b1f559418e24b46339978183604051611322929190613367565b60405180910390a15050565b6000604051806060016040528060278152602001613f2860279139905060005b85518110156114a657600080878381518110611393577f4e487b7100000000000000000000000000000000000000000000000000000000600052603260045260246000fd5b602002602001015173ffffffffffffffffffffffffffffffffffffffff168784815181106113ea577f4e487b7100000000000000000000000000000000000000000000000000000000600052603260045260246000fd5b602002602001015187858151811061142b577f4e487b7100000000000000000000000000000000000000000000000000000000600052603260045260246000fd5b60200260200101516040516114409190612e8e565b60006040518083038185875af1925050503d806000811461147d576040519150601f19603f3d011682016040523d82523d6000602084013e611482565b606091505b5091509150611492828286611985565b5050508061149f9061391f565b905061134e565b50505050505050565b600081600001519050919050565b60006114d06114ca6119ec565b83611aaf565b9050919050565b60008060006114e887878787611ae2565b915091506114f581611bef565b8192505050949350505050565b60008060016000878152602001908152602001600020905060016007811115611554577f4e487b7100000000000000000000000000000000000000000000000000000000600052602160045260246000fd5b61155d87610ab1565b6007811115611595577f4e487b7100000000000000000000000000000000000000000000000000000000600052602160045260246000fd5b146115d5576040517f08c379a00000000000000000000000000000000000000000000000000000000081526004016115cc9061319c565b60405180910390fd5b600061163386611624846000016040518060200160405290816000820160009054906101000a900467ffffffffffffffff1667ffffffffffffffff1667ffffffffffffffff16815250506114af565b67ffffffffffffffff166111d5565b905061164187878784611f40565b8573ffffffffffffffffffffffffffffffffffffffff167fb8e138887d0aa13bab447e82de9d5c1777041ecd21ca36ba824ff1e6c07ddda48887848860405161168d94939291906133c7565b60405180910390a28092505050949350505050565b600043826000015167ffffffffffffffff16119050919050565b60006116c7826121b8565b80156116e1575043826000015167ffffffffffffffff1611155b9050919050565b600080600260008481526020019081526020016000209050806002015481600101546117149190613661565b611725611720856109b0565b6111e9565b1115915050919050565b6000806002600084815260200190815260200160002090508060000154816001015411915050919050565b600080826000015167ffffffffffffffff16149050919050565b600067ffffffffffffffff80168211156117c3576040517f08c379a00000000000000000000000000000000000000000000000000000000081526004016117ba906131fc565b60405180910390fd5b819050919050565b808260000160006101000a81548167ffffffffffffffff021916908367ffffffffffffffff1602179055505050565b60007f000000000000000000000000000000000000000000000000000000000000000073ffffffffffffffffffffffffffffffffffffffff16633a46b1a884846040518363ffffffff1660e01b8152600401611857929190612edc565b60206040518083038186803b15801561186f57600080fd5b505afa158015611883573d6000803e3d6000fd5b505050506040513d601f19601f820116820180604052508101906118a79190612753565b905092915050565b60006118b96110b7565b6118c16110c0565b7f000000000000000000000000000000000000000000000000000000000000000073ffffffffffffffffffffffffffffffffffffffff16638e539e8c856040518263ffffffff1660e01b815260040161191a919061329c565b60206040518083038186803b15801561193257600080fd5b505afa158015611946573d6000803e3d6000fd5b505050506040513d601f19601f8201168201806040525081019061196a9190612753565b6119749190613726565b61197e91906136f5565b9050919050565b60608315611995578290506119e5565b6000835111156119a85782518084602001fd5b816040517f08c379a00000000000000000000000000000000000000000000000000000000081526004016119dc919061309a565b60405180910390fd5b9392505050565b60007f0000000000000000000000000000000000000000000000000000000000000000461415611a3e577f00000000000000000000000000000000000000000000000000000000000000009050611aac565b611aa97f00000000000000000000000000000000000000000000000000000000000000007f00000000000000000000000000000000000000000000000000000000000000007f00000000000000000000000000000000000000000000000000000000000000006121d2565b90505b90565b60008282604051602001611ac4929190612ea5565b60405160208183030381529060405280519060200120905092915050565b6000807f7fffffffffffffffffffffffffffffff5d576e7357a4501ddfe92f46681b20a08360001c1115611b1d576000600391509150611be6565b601b8560ff1614158015611b355750601c8560ff1614155b15611b47576000600491509150611be6565b600060018787878760405160008152602001604052604051611b6c949392919061301f565b6020604051602081039080840390855afa158015611b8e573d6000803e3d6000fd5b505050602060405103519050600073ffffffffffffffffffffffffffffffffffffffff168173ffffffffffffffffffffffffffffffffffffffff161415611bdd57600060019250925050611be6565b80600092509250505b94509492505050565b60006004811115611c29577f4e487b7100000000000000000000000000000000000000000000000000000000600052602160045260246000fd5b816004811115611c62577f4e487b7100000000000000000000000000000000000000000000000000000000600052602160045260246000fd5b1415611c6d57611f3d565b60016004811115611ca7577f4e487b7100000000000000000000000000000000000000000000000000000000600052602160045260246000fd5b816004811115611ce0577f4e487b7100000000000000000000000000000000000000000000000000000000600052602160045260246000fd5b1415611d21576040517f08c379a0000000000000000000000000000000000000000000000000000000008152600401611d18906130bc565b60405180910390fd5b60026004811115611d5b577f4e487b7100000000000000000000000000000000000000000000000000000000600052602160045260246000fd5b816004811115611d94577f4e487b7100000000000000000000000000000000000000000000000000000000600052602160045260246000fd5b1415611dd5576040517f08c379a0000000000000000000000000000000000000000000000000000000008152600401611dcc9061311c565b60405180910390fd5b60036004811115611e0f577f4e487b7100000000000000000000000000000000000000000000000000000000600052602160045260246000fd5b816004811115611e48577f4e487b7100000000000000000000000000000000000000000000000000000000600052602160045260246000fd5b1415611e89576040517f08c379a0000000000000000000000000000000000000000000000000000000008152600401611e809061315c565b60405180910390fd5b600480811115611ec2577f4e487b7100000000000000000000000000000000000000000000000000000000600052602160045260246000fd5b816004811115611efb577f4e487b7100000000000000000000000000000000000000000000000000000000600052602160045260246000fd5b1415611f3c576040517f08c379a0000000000000000000000000000000000000000000000000000000008152600401611f33906131dc565b60405180910390fd5b5b50565b60006002600086815260200190815260200160002090508060030160008573ffffffffffffffffffffffffffffffffffffffff1673ffffffffffffffffffffffffffffffffffffffff16815260200190815260200160002060009054906101000a900460ff1615611fe6576040517f08c379a0000000000000000000000000000000000000000000000000000000008152600401611fdd9061317c565b60405180910390fd5b60018160030160008673ffffffffffffffffffffffffffffffffffffffff1673ffffffffffffffffffffffffffffffffffffffff16815260200190815260200160002060006101000a81548160ff0219169083151502179055506000600281111561207a577f4e487b7100000000000000000000000000000000000000000000000000000000600052602160045260246000fd5b60ff168360ff1614156120a7578181600001600082825461209b9190613661565b925050819055506121b1565b600160028111156120e1577f4e487b7100000000000000000000000000000000000000000000000000000000600052602160045260246000fd5b60ff168360ff16141561210e57818160010160008282546121029190613661565b925050819055506121b0565b600280811115612147577f4e487b7100000000000000000000000000000000000000000000000000000000600052602160045260246000fd5b60ff168360ff16141561217457818160020160008282546121689190613661565b925050819055506121af565b6040517f08c379a00000000000000000000000000000000000000000000000000000000081526004016121a69061325c565b60405180910390fd5b5b5b5050505050565b600080826000015167ffffffffffffffff16119050919050565b600083838346306040516020016121ed959493929190612f95565b6040516020818303038152906040528051906020012090509392505050565b600061221f61221a84613438565b613413565b9050808382526020820190508285602086028201111561223e57600080fd5b60005b8581101561226e578161225488826123bd565b845260208401935060208301925050600181019050612241565b5050509392505050565b600061228b61228684613464565b613413565b9050808382526020820190508260005b858110156122cb57813585016122b1888261247a565b84526020840193506020830192505060018101905061229b565b5050509392505050565b60006122e86122e384613490565b613413565b9050808382526020820190508285602086028201111561230757600080fd5b60005b85811015612337578161231d8882612518565b84526020840193506020830192505060018101905061230a565b5050509392505050565b600061235461234f846134bc565b613413565b90508281526020810184848401111561236c57600080fd5b61237784828561387a565b509392505050565b600061239261238d846134ed565b613413565b9050828152602081018484840111156123aa57600080fd5b6123b584828561387a565b509392505050565b6000813590506123cc81613eb4565b92915050565b600082601f8301126123e357600080fd5b81356123f384826020860161220c565b91505092915050565b600082601f83011261240d57600080fd5b813561241d848260208601612278565b91505092915050565b600082601f83011261243757600080fd5b81356124478482602086016122d5565b91505092915050565b60008135905061245f81613ecb565b92915050565b60008135905061247481613ee2565b92915050565b600082601f83011261248b57600080fd5b813561249b848260208601612341565b91505092915050565b60008083601f8401126124b657600080fd5b8235905067ffffffffffffffff8111156124cf57600080fd5b6020830191508360018202830111156124e757600080fd5b9250929050565b600082601f8301126124ff57600080fd5b813561250f84826020860161237f565b91505092915050565b60008135905061252781613ef9565b92915050565b60008151905061253c81613ef9565b92915050565b60008135905061255181613f10565b92915050565b6000806040838503121561256a57600080fd5b6000612578858286016123bd565b925050602061258985828601612518565b9150509250929050565b600080600080608085870312156125a957600080fd5b600085013567ffffffffffffffff8111156125c357600080fd5b6125cf878288016123d2565b945050602085013567ffffffffffffffff8111156125ec57600080fd5b6125f887828801612426565b935050604085013567ffffffffffffffff81111561261557600080fd5b612621878288016123fc565b925050606061263287828801612450565b91505092959194509250565b6000806000806080858703121561265457600080fd5b600085013567ffffffffffffffff81111561266e57600080fd5b61267a878288016123d2565b945050602085013567ffffffffffffffff81111561269757600080fd5b6126a387828801612426565b935050604085013567ffffffffffffffff8111156126c057600080fd5b6126cc878288016123fc565b925050606085013567ffffffffffffffff8111156126e957600080fd5b6126f5878288016124ee565b91505092959194509250565b60006020828403121561271357600080fd5b600061272184828501612465565b91505092915050565b60006020828403121561273c57600080fd5b600061274a84828501612518565b91505092915050565b60006020828403121561276557600080fd5b60006127738482850161252d565b91505092915050565b6000806040838503121561278f57600080fd5b600061279d85828601612518565b92505060206127ae858286016123bd565b9150509250929050565b600080604083850312156127cb57600080fd5b60006127d985828601612518565b92505060206127ea85828601612542565b9150509250929050565b6000806000806060858703121561280a57600080fd5b600061281887828801612518565b945050602061282987828801612542565b935050604085013567ffffffffffffffff81111561284657600080fd5b612852878288016124a4565b925092505092959194509250565b600080600080600060a0868803121561287857600080fd5b600061288688828901612518565b955050602061289788828901612542565b94505060406128a888828901612542565b93505060606128b988828901612450565b92505060806128ca88828901612450565b9150509295509295909350565b60006128e3838361292f565b60208301905092915050565b60006128fb8383612b28565b905092915050565b600061290f8383612bb0565b905092915050565b60006129238383612e52565b60208301905092915050565b61293881613780565b82525050565b61294781613780565b82525050565b60006129588261355e565b61296281856135d4565b935061296d8361351e565b8060005b8381101561299e57815161298588826128d7565b9750612990836135a0565b925050600181019050612971565b5085935050505092915050565b60006129b682613569565b6129c081856135e5565b9350836020820285016129d28561352e565b8060005b85811015612a0e57848403895281516129ef85826128ef565b94506129fa836135ad565b925060208a019950506001810190506129d6565b50829750879550505050505092915050565b6000612a2b82613574565b612a3581856135f6565b935083602082028501612a478561353e565b8060005b85811015612a835784840389528151612a648582612903565b9450612a6f836135ba565b925060208a01995050600181019050612a4b565b50829750879550505050505092915050565b6000612aa08261357f565b612aaa8185613607565b9350612ab58361354e565b8060005b83811015612ae6578151612acd8882612917565b9750612ad8836135c7565b925050600181019050612ab9565b5085935050505092915050565b612afc81613792565b82525050565b612b0b8161379e565b82525050565b612b22612b1d8261379e565b613968565b82525050565b6000612b338261358a565b612b3d8185613618565b9350612b4d818560208601613889565b612b5681613a5d565b840191505092915050565b6000612b6c8261358a565b612b768185613629565b9350612b86818560208601613889565b80840191505092915050565b612b9b81613832565b82525050565b612baa81613856565b82525050565b6000612bbb82613595565b612bc58185613634565b9350612bd5818560208601613889565b612bde81613a5d565b840191505092915050565b6000612bf482613595565b612bfe8185613645565b9350612c0e818560208601613889565b612c1781613a5d565b840191505092915050565b6000612c2f601883613645565b9150612c3a82613a6e565b602082019050919050565b6000612c52601883613645565b9150612c5d82613a97565b602082019050919050565b6000612c75604383613645565b9150612c8082613ac0565b606082019050919050565b6000612c98601f83613645565b9150612ca382613b35565b602082019050919050565b6000612cbb600283613656565b9150612cc682613b5e565b600282019050919050565b6000612cde602183613645565b9150612ce982613b87565b604082019050919050565b6000612d01602283613645565b9150612d0c82613bd6565b604082019050919050565b6000612d24602783613645565b9150612d2f82613c25565b604082019050919050565b6000612d47602383613645565b9150612d5282613c74565b604082019050919050565b6000612d6a601883613645565b9150612d7582613cc3565b602082019050919050565b6000612d8d602283613645565b9150612d9882613cec565b604082019050919050565b6000612db0602683613645565b9150612dbb82613d3b565b604082019050919050565b6000612dd3602183613645565b9150612dde82613d8a565b604082019050919050565b6000612df6601d83613645565b9150612e0182613dd9565b602082019050919050565b6000612e19603583613645565b9150612e2482613e02565b604082019050919050565b6000612e3c602183613645565b9150612e4782613e51565b604082019050919050565b612e5b81613807565b82525050565b612e6a81613807565b82525050565b612e7981613868565b82525050565b612e8881613825565b82525050565b6000612e9a8284612b61565b915081905092915050565b6000612eb082612cae565b9150612ebc8285612b11565b602082019150612ecc8284612b11565b6020820191508190509392505050565b6000604082019050612ef1600083018561293e565b612efe6020830184612e61565b9392505050565b60006080820190508181036000830152612f1f818761294d565b90508181036020830152612f338186612a95565b90508181036040830152612f4781856129ab565b9050612f566060830184612b02565b95945050505050565b6000602082019050612f746000830184612af3565b92915050565b6000602082019050612f8f6000830184612b02565b92915050565b600060a082019050612faa6000830188612b02565b612fb76020830187612b02565b612fc46040830186612b02565b612fd16060830185612e61565b612fde608083018461293e565b9695505050505050565b6000606082019050612ffd6000830186612b02565b61300a6020830185612e61565b6130176040830184612e7f565b949350505050565b60006080820190506130346000830187612b02565b6130416020830186612e7f565b61304e6040830185612b02565b61305b6060830184612b02565b95945050505050565b60006020820190506130796000830184612b92565b92915050565b60006020820190506130946000830184612ba1565b92915050565b600060208201905081810360008301526130b48184612be9565b905092915050565b600060208201905081810360008301526130d581612c22565b9050919050565b600060208201905081810360008301526130f581612c45565b9050919050565b6000602082019050818103600083015261311581612c68565b9050919050565b6000602082019050818103600083015261313581612c8b565b9050919050565b6000602082019050818103600083015261315581612cd1565b9050919050565b6000602082019050818103600083015261317581612cf4565b9050919050565b6000602082019050818103600083015261319581612d17565b9050919050565b600060208201905081810360008301526131b581612d3a565b9050919050565b600060208201905081810360008301526131d581612d5d565b9050919050565b600060208201905081810360008301526131f581612d80565b9050919050565b6000602082019050818103600083015261321581612da3565b9050919050565b6000602082019050818103600083015261323581612dc6565b9050919050565b6000602082019050818103600083015261325581612de9565b9050919050565b6000602082019050818103600083015261327581612e0c565b9050919050565b6000602082019050818103600083015261329581612e2f565b9050919050565b60006020820190506132b16000830184612e61565b92915050565b6000610120820190506132cd600083018c612e61565b6132da602083018b61293e565b81810360408301526132ec818a61294d565b905081810360608301526133008189612a95565b905081810360808301526133148188612a20565b905081810360a083015261332881876129ab565b905061333760c0830186612e70565b61334460e0830185612e70565b8181036101008301526133578184612be9565b90509a9950505050505050505050565b600060408201905061337c6000830185612e61565b6133896020830184612e61565b9392505050565b60006060820190506133a56000830186612e61565b6133b26020830185612e61565b6133bf6040830184612e61565b949350505050565b60006080820190506133dc6000830187612e61565b6133e96020830186612e7f565b6133f66040830185612e61565b81810360608301526134088184612be9565b905095945050505050565b600061341d61342e565b905061342982826138ee565b919050565b6000604051905090565b600067ffffffffffffffff82111561345357613452613a2e565b5b602082029050602081019050919050565b600067ffffffffffffffff82111561347f5761347e613a2e565b5b602082029050602081019050919050565b600067ffffffffffffffff8211156134ab576134aa613a2e565b5b602082029050602081019050919050565b600067ffffffffffffffff8211156134d7576134d6613a2e565b5b6134e082613a5d565b9050602081019050919050565b600067ffffffffffffffff82111561350857613507613a2e565b5b61351182613a5d565b9050602081019050919050565b6000819050602082019050919050565b6000819050602082019050919050565b6000819050602082019050919050565b6000819050602082019050919050565b600081519050919050565b600081519050919050565b600081519050919050565b600081519050919050565b600081519050919050565b600081519050919050565b6000602082019050919050565b6000602082019050919050565b6000602082019050919050565b6000602082019050919050565b600082825260208201905092915050565b600082825260208201905092915050565b600082825260208201905092915050565b600082825260208201905092915050565b600082825260208201905092915050565b600081905092915050565b600082825260208201905092915050565b600082825260208201905092915050565b600081905092915050565b600061366c82613807565b915061367783613807565b9250827fffffffffffffffffffffffffffffffffffffffffffffffffffffffffffffffff038211156136ac576136ab613972565b5b828201905092915050565b60006136c282613811565b91506136cd83613811565b92508267ffffffffffffffff038211156136ea576136e9613972565b5b828201905092915050565b600061370082613807565b915061370b83613807565b92508261371b5761371a6139a1565b5b828204905092915050565b600061373182613807565b915061373c83613807565b9250817fffffffffffffffffffffffffffffffffffffffffffffffffffffffffffffffff048311821515161561377557613774613972565b5b828202905092915050565b600061378b826137e7565b9050919050565b60008115159050919050565b6000819050919050565b60007fffffffff0000000000000000000000000000000000000000000000000000000082169050919050565b60008190506137e282613ea0565b919050565b600073ffffffffffffffffffffffffffffffffffffffff82169050919050565b6000819050919050565b600067ffffffffffffffff82169050919050565b600060ff82169050919050565b600061383d82613844565b9050919050565b600061384f826137e7565b9050919050565b6000613861826137d4565b9050919050565b600061387382613811565b9050919050565b82818337600083830152505050565b60005b838110156138a757808201518184015260208101905061388c565b838111156138b6576000848401525b50505050565b600060028204905060018216806138d457607f821691505b602082108114156138e8576138e76139ff565b5b50919050565b6138f782613a5d565b810181811067ffffffffffffffff8211171561391657613915613a2e565b5b80604052505050565b600061392a82613807565b91507fffffffffffffffffffffffffffffffffffffffffffffffffffffffffffffffff82141561395d5761395c613972565b5b600182019050919050565b6000819050919050565b7f4e487b7100000000000000000000000000000000000000000000000000000000600052601160045260246000fd5b7f4e487b7100000000000000000000000000000000000000000000000000000000600052601260045260246000fd5b7f4e487b7100000000000000000000000000000000000000000000000000000000600052602160045260246000fd5b7f4e487b7100000000000000000000000000000000000000000000000000000000600052602260045260246000fd5b7f4e487b7100000000000000000000000000000000000000000000000000000000600052604160045260246000fd5b6000601f19601f8301169050919050565b7f45434453413a20696e76616c6964207369676e61747572650000000000000000600082015250565b7f476f7665726e6f723a206f6e6c79476f7665726e616e63650000000000000000600082015250565b7f476f7665726e6f72566f74657351756f72756d4672616374696f6e3a2071756f60008201527f72756d4e756d657261746f72206f7665722071756f72756d44656e6f6d696e6160208201527f746f720000000000000000000000000000000000000000000000000000000000604082015250565b7f45434453413a20696e76616c6964207369676e6174757265206c656e67746800600082015250565b7f1901000000000000000000000000000000000000000000000000000000000000600082015250565b7f476f7665726e6f723a20696e76616c69642070726f706f73616c206c656e677460008201527f6800000000000000000000000000000000000000000000000000000000000000602082015250565b7f45434453413a20696e76616c6964207369676e6174757265202773272076616c60008201527f7565000000000000000000000000000000000000000000000000000000000000602082015250565b7f476f7665726e6f72566f74696e6753696d706c653a20766f746520616c72656160008201527f6479206361737400000000000000000000000000000000000000000000000000602082015250565b7f476f7665726e6f723a20766f7465206e6f742063757272656e746c792061637460008201527f6976650000000000000000000000000000000000000000000000000000000000602082015250565b7f476f7665726e6f723a20656d7074792070726f706f73616c0000000000000000600082015250565b7f45434453413a20696e76616c6964207369676e6174757265202776272076616c60008201527f7565000000000000000000000000000000000000000000000000000000000000602082015250565b7f53616665436173743a2076616c756520646f65736e27742066697420696e203660008201527f3420626974730000000000000000000000000000000000000000000000000000602082015250565b7f476f7665726e6f723a2070726f706f73616c206e6f742073756363657373667560008201527f6c00000000000000000000000000000000000000000000000000000000000000602082015250565b7f476f7665726e6f723a20756e6b6e6f776e2070726f706f73616c206964000000600082015250565b7f476f7665726e6f72566f74696e6753696d706c653a20696e76616c696420766160008201527f6c756520666f7220656e756d20566f7465547970650000000000000000000000602082015250565b7f476f7665726e6f723a2070726f706f73616c20616c726561647920657869737460008201527f7300000000000000000000000000000000000000000000000000000000000000602082015250565b60088110613eb157613eb06139d0565b5b50565b613ebd81613780565b8114613ec857600080fd5b50565b613ed48161379e565b8114613edf57600080fd5b50565b613eeb816137a8565b8114613ef657600080fd5b50565b613f0281613807565b8114613f0d57600080fd5b50565b613f1981613825565b8114613f2457600080fd5b5056fe476f7665726e6f723a2063616c6c20726576657274656420776974686f7574206d657373616765a2646970667358221220c9657f413add7c04b0d93d2316f975139e1c8b70ce093ea906e8ff1edbf5cee864736f6c63430008020033",
  "immutableReferences": {
    "1252": [
      {
        "length": 32,
        "start": 4605
      },
      {
        "length": 32,
        "start": 6142
      },
      {
        "length": 32,
        "start": 6339
      }
    ],
    "3863": [
      {
        "length": 32,
        "start": 6680
      }
    ],
    "3865": [
      {
        "length": 32,
        "start": 6640
      }
    ],
    "3867": [
      {
        "length": 32,
        "start": 6756
      }
    ],
    "3869": [
      {
        "length": 32,
        "start": 6789
      }
    ],
    "3871": [
      {
        "length": 32,
        "start": 6723
      }
    ]
  },
  "source": "// SPDX-License-Identifier: MIT\npragma solidity ^0.8.2;\n\nimport \"@openzeppelin/contracts/governance/Governor.sol\";\nimport \"@openzeppelin/contracts/governance/extensions/GovernorCountingSimple.sol\";\nimport \"@openzeppelin/contracts/governance/extensions/GovernorVotes.sol\";\nimport \"@openzeppelin/contracts/governance/extensions/GovernorVotesQuorumFraction.sol\";\n\ncontract CondoGovernor is Governor, GovernorCountingSimple, GovernorVotes, GovernorVotesQuorumFraction {\n    constructor(ERC20Votes _token)\n        Governor(\"CondoGovernor\")\n        GovernorVotes(_token)\n        GovernorVotesQuorumFraction(66)\n    {}\n\n    function votingDelay() public pure override returns (uint256) {\n        return 1; // 1 block\n    }\n\n    function votingPeriod() public pure override returns (uint256) {\n        return 13091; // 2 days\n    }\n\n    // The following functions are overrides required by Solidity.\n\n    function quorum(uint256 blockNumber)\n        public\n        view\n        override(IGovernor, GovernorVotesQuorumFraction)\n        returns (uint256)\n    {\n        return super.quorum(blockNumber);\n    }\n\n    function getVotes(address account, uint256 blockNumber)\n        public\n        view\n        override(IGovernor, GovernorVotes)\n        returns (uint256)\n    {\n        return super.getVotes(account, blockNumber);\n    }\n}\n\n",
  "sourcePath": "/Users/admin/blockchain-developer-bootcamp-final-project/contracts/CondoGovernor.sol",
  "compiler": {
    "name": "solc",
    "version": "0.8.2+commit.661d1103.Emscripten.clang"
  },
  "schemaVersion": "3.4.3",
  "updatedAt": "2021-11-12T15:27:48.422Z",
  "networkType": "ethereum",
  "devdoc": {
    "kind": "dev",
    "methods": {
      "COUNTING_MODE()": {
        "details": "See {IGovernor-COUNTING_MODE}."
      },
      "castVote(uint256,uint8)": {
        "details": "See {IGovernor-castVote}."
      },
      "castVoteBySig(uint256,uint8,uint8,bytes32,bytes32)": {
        "details": "See {IGovernor-castVoteBySig}."
      },
      "castVoteWithReason(uint256,uint8,string)": {
        "details": "See {IGovernor-castVoteWithReason}."
      },
      "execute(address[],uint256[],bytes[],bytes32)": {
        "details": "See {IGovernor-execute}."
      },
      "hasVoted(uint256,address)": {
        "details": "See {IGovernor-hasVoted}."
      },
      "hashProposal(address[],uint256[],bytes[],bytes32)": {
        "details": "See {IGovernor-hashProposal}. The proposal id is produced by hashing the RLC encoded `targets` array, the `values` array, the `calldatas` array and the descriptionHash (bytes32 which itself is the keccak256 hash of the description string). This proposal id can be produced from the proposal data which is part of the {ProposalCreated} event. It can even be computed in advance, before the proposal is submitted. Note that the chainId and the governor address are not part of the proposal id computation. Consequently, the same proposal (with same operation and same description) will have the same id if submitted on multiple governors accross multiple networks. This also means that in order to execute the same operation twice (on the same governor) the proposer will have to change the description in order to avoid proposal id conflicts."
      },
      "name()": {
        "details": "See {IGovernor-name}."
      },
      "proposalDeadline(uint256)": {
        "details": "See {IGovernor-proposalDeadline}."
      },
      "proposalSnapshot(uint256)": {
        "details": "See {IGovernor-proposalSnapshot}."
      },
      "proposalVotes(uint256)": {
        "details": "Accessor to the internal vote counts."
      },
      "propose(address[],uint256[],bytes[],string)": {
        "details": "See {IGovernor-propose}."
      },
      "state(uint256)": {
        "details": "See {IGovernor-state}."
      },
      "supportsInterface(bytes4)": {
        "details": "See {IERC165-supportsInterface}."
      },
      "version()": {
        "details": "See {IGovernor-version}."
      },
      "votingDelay()": {
        "details": "delay, in number of block, between the proposal is created and the vote starts. This can be increassed to leave time for users to buy voting power, of delegate it, before the voting of a proposal starts."
      },
      "votingPeriod()": {
        "details": "delay, in number of blocks, between the vote start and vote ends. Note: the {votingDelay} can delay the start of the vote. This must be considered when setting the voting duration compared to the voting delay."
      }
    },
    "version": 1
  },
  "userdoc": {
    "kind": "user",
    "methods": {
      "votingDelay()": {
        "notice": "module:user-config"
      },
      "votingPeriod()": {
        "notice": "module:user-config"
      }
    },
    "version": 1
  }
}