{
  "contractName": "CondoToken",
  "abi": [
    {
      "inputs": [
        {
          "internalType": "uint256",
          "name": "maxTotalSupply",
          "type": "uint256"
        }
      ],
      "stateMutability": "nonpayable",
      "type": "constructor"
    },
    {
      "anonymous": false,
      "inputs": [
        {
          "indexed": true,
          "internalType": "address",
          "name": "owner",
          "type": "address"
        },
        {
          "indexed": true,
          "internalType": "address",
          "name": "spender",
          "type": "address"
        },
        {
          "indexed": false,
          "internalType": "uint256",
          "name": "value",
          "type": "uint256"
        }
      ],
      "name": "Approval",
      "type": "event"
    },
    {
      "anonymous": false,
      "inputs": [
        {
          "indexed": true,
          "internalType": "address",
          "name": "delegator",
          "type": "address"
        },
        {
          "indexed": true,
          "internalType": "address",
          "name": "fromDelegate",
          "type": "address"
        },
        {
          "indexed": true,
          "internalType": "address",
          "name": "toDelegate",
          "type": "address"
        }
      ],
      "name": "DelegateChanged",
      "type": "event"
    },
    {
      "anonymous": false,
      "inputs": [
        {
          "indexed": true,
          "internalType": "address",
          "name": "delegate",
          "type": "address"
        },
        {
          "indexed": false,
          "internalType": "uint256",
          "name": "previousBalance",
          "type": "uint256"
        },
        {
          "indexed": false,
          "internalType": "uint256",
          "name": "newBalance",
          "type": "uint256"
        }
      ],
      "name": "DelegateVotesChanged",
      "type": "event"
    },
    {
      "anonymous": false,
      "inputs": [
        {
          "indexed": true,
          "internalType": "address",
          "name": "from",
          "type": "address"
        },
        {
          "indexed": true,
          "internalType": "address",
          "name": "to",
          "type": "address"
        },
        {
          "indexed": false,
          "internalType": "uint256",
          "name": "value",
          "type": "uint256"
        }
      ],
      "name": "Transfer",
      "type": "event"
    },
    {
      "inputs": [],
      "name": "DOMAIN_SEPARATOR",
      "outputs": [
        {
          "internalType": "bytes32",
          "name": "",
          "type": "bytes32"
        }
      ],
      "stateMutability": "view",
      "type": "function",
      "constant": true
    },
    {
      "inputs": [
        {
          "internalType": "address",
          "name": "owner",
          "type": "address"
        },
        {
          "internalType": "address",
          "name": "spender",
          "type": "address"
        }
      ],
      "name": "allowance",
      "outputs": [
        {
          "internalType": "uint256",
          "name": "",
          "type": "uint256"
        }
      ],
      "stateMutability": "view",
      "type": "function",
      "constant": true
    },
    {
      "inputs": [
        {
          "internalType": "address",
          "name": "spender",
          "type": "address"
        },
        {
          "internalType": "uint256",
          "name": "amount",
          "type": "uint256"
        }
      ],
      "name": "approve",
      "outputs": [
        {
          "internalType": "bool",
          "name": "",
          "type": "bool"
        }
      ],
      "stateMutability": "nonpayable",
      "type": "function"
    },
    {
      "inputs": [
        {
          "internalType": "address",
          "name": "account",
          "type": "address"
        }
      ],
      "name": "balanceOf",
      "outputs": [
        {
          "internalType": "uint256",
          "name": "",
          "type": "uint256"
        }
      ],
      "stateMutability": "view",
      "type": "function",
      "constant": true
    },
    {
      "inputs": [
        {
          "internalType": "address",
          "name": "account",
          "type": "address"
        },
        {
          "internalType": "uint32",
          "name": "pos",
          "type": "uint32"
        }
      ],
      "name": "checkpoints",
      "outputs": [
        {
          "components": [
            {
              "internalType": "uint32",
              "name": "fromBlock",
              "type": "uint32"
            },
            {
              "internalType": "uint224",
              "name": "votes",
              "type": "uint224"
            }
          ],
          "internalType": "struct ERC20Votes.Checkpoint",
          "name": "",
          "type": "tuple"
        }
      ],
      "stateMutability": "view",
      "type": "function",
      "constant": true
    },
    {
      "inputs": [],
      "name": "decimals",
      "outputs": [
        {
          "internalType": "uint8",
          "name": "",
          "type": "uint8"
        }
      ],
      "stateMutability": "view",
      "type": "function",
      "constant": true
    },
    {
      "inputs": [
        {
          "internalType": "address",
          "name": "spender",
          "type": "address"
        },
        {
          "internalType": "uint256",
          "name": "subtractedValue",
          "type": "uint256"
        }
      ],
      "name": "decreaseAllowance",
      "outputs": [
        {
          "internalType": "bool",
          "name": "",
          "type": "bool"
        }
      ],
      "stateMutability": "nonpayable",
      "type": "function"
    },
    {
      "inputs": [
        {
          "internalType": "address",
          "name": "delegatee",
          "type": "address"
        }
      ],
      "name": "delegate",
      "outputs": [],
      "stateMutability": "nonpayable",
      "type": "function"
    },
    {
      "inputs": [
        {
          "internalType": "address",
          "name": "delegatee",
          "type": "address"
        },
        {
          "internalType": "uint256",
          "name": "nonce",
          "type": "uint256"
        },
        {
          "internalType": "uint256",
          "name": "expiry",
          "type": "uint256"
        },
        {
          "internalType": "uint8",
          "name": "v",
          "type": "uint8"
        },
        {
          "internalType": "bytes32",
          "name": "r",
          "type": "bytes32"
        },
        {
          "internalType": "bytes32",
          "name": "s",
          "type": "bytes32"
        }
      ],
      "name": "delegateBySig",
      "outputs": [],
      "stateMutability": "nonpayable",
      "type": "function"
    },
    {
      "inputs": [
        {
          "internalType": "address",
          "name": "account",
          "type": "address"
        }
      ],
      "name": "delegates",
      "outputs": [
        {
          "internalType": "address",
          "name": "",
          "type": "address"
        }
      ],
      "stateMutability": "view",
      "type": "function",
      "constant": true
    },
    {
      "inputs": [
        {
          "internalType": "uint256",
          "name": "blockNumber",
          "type": "uint256"
        }
      ],
      "name": "getPastTotalSupply",
      "outputs": [
        {
          "internalType": "uint256",
          "name": "",
          "type": "uint256"
        }
      ],
      "stateMutability": "view",
      "type": "function",
      "constant": true
    },
    {
      "inputs": [
        {
          "internalType": "address",
          "name": "account",
          "type": "address"
        },
        {
          "internalType": "uint256",
          "name": "blockNumber",
          "type": "uint256"
        }
      ],
      "name": "getPastVotes",
      "outputs": [
        {
          "internalType": "uint256",
          "name": "",
          "type": "uint256"
        }
      ],
      "stateMutability": "view",
      "type": "function",
      "constant": true
    },
    {
      "inputs": [
        {
          "internalType": "address",
          "name": "account",
          "type": "address"
        }
      ],
      "name": "getVotes",
      "outputs": [
        {
          "internalType": "uint256",
          "name": "",
          "type": "uint256"
        }
      ],
      "stateMutability": "view",
      "type": "function",
      "constant": true
    },
    {
      "inputs": [
        {
          "internalType": "address",
          "name": "spender",
          "type": "address"
        },
        {
          "internalType": "uint256",
          "name": "addedValue",
          "type": "uint256"
        }
      ],
      "name": "increaseAllowance",
      "outputs": [
        {
          "internalType": "bool",
          "name": "",
          "type": "bool"
        }
      ],
      "stateMutability": "nonpayable",
      "type": "function"
    },
    {
      "inputs": [],
      "name": "name",
      "outputs": [
        {
          "internalType": "string",
          "name": "",
          "type": "string"
        }
      ],
      "stateMutability": "view",
      "type": "function",
      "constant": true
    },
    {
      "inputs": [
        {
          "internalType": "address",
          "name": "owner",
          "type": "address"
        }
      ],
      "name": "nonces",
      "outputs": [
        {
          "internalType": "uint256",
          "name": "",
          "type": "uint256"
        }
      ],
      "stateMutability": "view",
      "type": "function",
      "constant": true
    },
    {
      "inputs": [
        {
          "internalType": "address",
          "name": "account",
          "type": "address"
        }
      ],
      "name": "numCheckpoints",
      "outputs": [
        {
          "internalType": "uint32",
          "name": "",
          "type": "uint32"
        }
      ],
      "stateMutability": "view",
      "type": "function",
      "constant": true
    },
    {
      "inputs": [
        {
          "internalType": "address",
          "name": "owner",
          "type": "address"
        },
        {
          "internalType": "address",
          "name": "spender",
          "type": "address"
        },
        {
          "internalType": "uint256",
          "name": "value",
          "type": "uint256"
        },
        {
          "internalType": "uint256",
          "name": "deadline",
          "type": "uint256"
        },
        {
          "internalType": "uint8",
          "name": "v",
          "type": "uint8"
        },
        {
          "internalType": "bytes32",
          "name": "r",
          "type": "bytes32"
        },
        {
          "internalType": "bytes32",
          "name": "s",
          "type": "bytes32"
        }
      ],
      "name": "permit",
      "outputs": [],
      "stateMutability": "nonpayable",
      "type": "function"
    },
    {
      "inputs": [],
      "name": "symbol",
      "outputs": [
        {
          "internalType": "string",
          "name": "",
          "type": "string"
        }
      ],
      "stateMutability": "view",
      "type": "function",
      "constant": true
    },
    {
      "inputs": [],
      "name": "totalSupply",
      "outputs": [
        {
          "internalType": "uint256",
          "name": "",
          "type": "uint256"
        }
      ],
      "stateMutability": "view",
      "type": "function",
      "constant": true
    },
    {
      "inputs": [
        {
          "internalType": "address",
          "name": "recipient",
          "type": "address"
        },
        {
          "internalType": "uint256",
          "name": "amount",
          "type": "uint256"
        }
      ],
      "name": "transfer",
      "outputs": [
        {
          "internalType": "bool",
          "name": "",
          "type": "bool"
        }
      ],
      "stateMutability": "nonpayable",
      "type": "function"
    },
    {
      "inputs": [
        {
          "internalType": "address",
          "name": "sender",
          "type": "address"
        },
        {
          "internalType": "address",
          "name": "recipient",
          "type": "address"
        },
        {
          "internalType": "uint256",
          "name": "amount",
          "type": "uint256"
        }
      ],
      "name": "transferFrom",
      "outputs": [
        {
          "internalType": "bool",
          "name": "",
          "type": "bool"
        }
      ],
      "stateMutability": "nonpayable",
      "type": "function"
    }
  ],
  "bytecode": "0x6101406040527f6e71edae12b1b97f4d1f60370fef10105fa2faae0126114a169c64845d6126c9610120908152503480156200003a57600080fd5b5060405162004e2d38038062004e2d833981810160405281019062000060919062000cce565b6040518060400160405280600a81526020017f436f6e646f546f6b656e00000000000000000000000000000000000000000000815250806040518060400160405280600181526020017f31000000000000000000000000000000000000000000000000000000000000008152506040518060400160405280600a81526020017f436f6e646f546f6b656e000000000000000000000000000000000000000000008152506040518060400160405280600381526020017f434454000000000000000000000000000000000000000000000000000000000081525081600390805190602001906200015192919062000c07565b5080600490805190602001906200016a92919062000c07565b50505060008280519060200120905060008280519060200120905060007f8b73c3c69bb8fe3d512ecc4cf759cc79239f7b179b0ffacaa9a75d522b39400f90508260c081815250508160e081815250504660a08181525050620001d58184846200022e60201b60201c565b608081815250508061010081815250505050505050506200022733620002006200026a60201b60201c565b600a6200020e919062000fc1565b836200021b9190620010fe565b6200027360201b60201c565b50620013c0565b600083838346306040516020016200024b95949392919062000dc9565b6040516020818303038152906040528051906020012090509392505050565b60006012905090565b6200028a82826200028e60201b6200106f1760201c565b5050565b620002a582826200034c60201b620010fc1760201c565b620002b5620004c560201b60201c565b7bffffffffffffffffffffffffffffffffffffffffffffffffffffffff16620002e3620004e960201b60201c565b111562000327576040517f08c379a00000000000000000000000000000000000000000000000000000000081526004016200031e9062000e26565b60405180910390fd5b620003466008620004f360201b6200125c17836200050b60201b60201c565b50505050565b600073ffffffffffffffffffffffffffffffffffffffff168273ffffffffffffffffffffffffffffffffffffffff161415620003bf576040517f08c379a0000000000000000000000000000000000000000000000000000000008152600401620003b69062000e8c565b60405180910390fd5b620003d3600083836200082860201b60201c565b8060026000828254620003e7919062000f09565b92505081905550806000808473ffffffffffffffffffffffffffffffffffffffff1673ffffffffffffffffffffffffffffffffffffffff16815260200190815260200160002060008282546200043e919062000f09565b925050819055508173ffffffffffffffffffffffffffffffffffffffff16600073ffffffffffffffffffffffffffffffffffffffff167fddf252ad1be2c89b69c2b068fc378daa952ba7f163c4a11628f55a4df523b3ef83604051620004a5919062000eae565b60405180910390a3620004c1600083836200082d60201b60201c565b5050565b60007bffffffffffffffffffffffffffffffffffffffffffffffffffffffff905090565b6000600254905090565b6000818362000503919062000f09565b905092915050565b60008060008580549050905060008114620005a457856001826200053091906200115f565b8154811062000568577f4e487b7100000000000000000000000000000000000000000000000000000000600052603260045260246000fd5b9060005260206000200160000160049054906101000a90047bffffffffffffffffffffffffffffffffffffffffffffffffffffffff16620005a7565b60005b7bffffffffffffffffffffffffffffffffffffffffffffffffffffffff169250620005d383858760201c565b91506000811180156200065057504386600183620005f291906200115f565b815481106200062a577f4e487b7100000000000000000000000000000000000000000000000000000000600052603260045260246000fd5b9060005260206000200160000160009054906101000a900463ffffffff1663ffffffff16145b1562000715576200066c826200084a60201b620012721760201c565b866001836200067c91906200115f565b81548110620006b4577f4e487b7100000000000000000000000000000000000000000000000000000000600052603260045260246000fd5b9060005260206000200160000160046101000a8154817bffffffffffffffffffffffffffffffffffffffffffffffffffffffff02191690837bffffffffffffffffffffffffffffffffffffffffffffffffffffffff1602179055506200081f565b8560405180604001604052806200073743620008b860201b620012dd1760201c565b63ffffffff16815260200162000758856200084a60201b620012721760201c565b7bffffffffffffffffffffffffffffffffffffffffffffffffffffffff168152509080600181540180825580915050600190039060005260206000200160009091909190915060008201518160000160006101000a81548163ffffffff021916908363ffffffff16021790555060208201518160000160046101000a8154817bffffffffffffffffffffffffffffffffffffffffffffffffffffffff02191690837bffffffffffffffffffffffffffffffffffffffffffffffffffffffff16021790555050505b50935093915050565b505050565b620008458383836200090e60201b620013301760201c565b505050565b60007bffffffffffffffffffffffffffffffffffffffffffffffffffffffff8016821115620008b0576040517f08c379a0000000000000000000000000000000000000000000000000000000008152600401620008a79062000e48565b60405180910390fd5b819050919050565b600063ffffffff801682111562000906576040517f08c379a0000000000000000000000000000000000000000000000000000000008152600401620008fd9062000e6a565b60405180910390fd5b819050919050565b620009268383836200095e60201b6200135b1760201c565b620009596200093b846200096360201b60201c565b6200094c846200096360201b60201c565b83620009cc60201b60201c565b505050565b505050565b6000600660008373ffffffffffffffffffffffffffffffffffffffff1673ffffffffffffffffffffffffffffffffffffffff16815260200190815260200160002060009054906101000a900473ffffffffffffffffffffffffffffffffffffffff169050919050565b8173ffffffffffffffffffffffffffffffffffffffff168373ffffffffffffffffffffffffffffffffffffffff161415801562000a095750600081115b1562000bea57600073ffffffffffffffffffffffffffffffffffffffff168373ffffffffffffffffffffffffffffffffffffffff161462000afc5760008062000aa3600760008773ffffffffffffffffffffffffffffffffffffffff1673ffffffffffffffffffffffffffffffffffffffff16815260200190815260200160002062000bef60201b6200136017856200050b60201b60201c565b915091508473ffffffffffffffffffffffffffffffffffffffff167fdec2bacdd2f05b59de34da9b523dff8be42e5e38e818c82fdb0bae774387a724838360405162000af192919062000ecb565b60405180910390a250505b600073ffffffffffffffffffffffffffffffffffffffff168273ffffffffffffffffffffffffffffffffffffffff161462000be95760008062000b90600760008673ffffffffffffffffffffffffffffffffffffffff1673ffffffffffffffffffffffffffffffffffffffff168152602001908152602001600020620004f360201b6200125c17856200050b60201b60201c565b915091508373ffffffffffffffffffffffffffffffffffffffff167fdec2bacdd2f05b59de34da9b523dff8be42e5e38e818c82fdb0bae774387a724838360405162000bde92919062000ecb565b60405180910390a250505b5b505050565b6000818362000bff91906200115f565b905092915050565b82805462000c1590620011ef565b90600052602060002090601f01602090048101928262000c39576000855562000c85565b82601f1062000c5457805160ff191683800117855562000c85565b8280016001018555821562000c85579182015b8281111562000c8457825182559160200191906001019062000c67565b5b50905062000c94919062000c98565b5090565b5b8082111562000cb357600081600090555060010162000c99565b5090565b60008151905062000cc881620013a6565b92915050565b60006020828403121562000ce157600080fd5b600062000cf18482850162000cb7565b91505092915050565b62000d05816200119a565b82525050565b62000d1681620011ae565b82525050565b600062000d2b60308362000ef8565b915062000d388262001290565b604082019050919050565b600062000d5260278362000ef8565b915062000d5f82620012df565b604082019050919050565b600062000d7960268362000ef8565b915062000d86826200132e565b604082019050919050565b600062000da0601f8362000ef8565b915062000dad826200137d565b602082019050919050565b62000dc381620011d8565b82525050565b600060a08201905062000de0600083018862000d0b565b62000def602083018762000d0b565b62000dfe604083018662000d0b565b62000e0d606083018562000db8565b62000e1c608083018462000cfa565b9695505050505050565b6000602082019050818103600083015262000e418162000d1c565b9050919050565b6000602082019050818103600083015262000e638162000d43565b9050919050565b6000602082019050818103600083015262000e858162000d6a565b9050919050565b6000602082019050818103600083015262000ea78162000d91565b9050919050565b600060208201905062000ec5600083018462000db8565b92915050565b600060408201905062000ee2600083018562000db8565b62000ef1602083018462000db8565b9392505050565b600082825260208201905092915050565b600062000f1682620011d8565b915062000f2383620011d8565b9250827fffffffffffffffffffffffffffffffffffffffffffffffffffffffffffffffff0382111562000f5b5762000f5a62001225565b5b828201905092915050565b6000808291508390505b600185111562000fb85780860481111562000f905762000f8f62001225565b5b600185161562000fa05780820291505b808102905062000fb08562001283565b945062000f70565b94509492505050565b600062000fce82620011d8565b915062000fdb83620011e2565b92506200100a7fffffffffffffffffffffffffffffffffffffffffffffffffffffffffffffffff848462001012565b905092915050565b600082620010245760019050620010f7565b81620010345760009050620010f7565b81600181146200104d576002811462001058576200108e565b6001915050620010f7565b60ff8411156200106d576200106c62001225565b5b8360020a91508482111562001087576200108662001225565b5b50620010f7565b5060208310610133831016604e8410600b8410161715620010c85782820a905083811115620010c257620010c162001225565b5b620010f7565b620010d7848484600162000f66565b92509050818404811115620010f157620010f062001225565b5b81810290505b9392505050565b60006200110b82620011d8565b91506200111883620011d8565b9250817fffffffffffffffffffffffffffffffffffffffffffffffffffffffffffffffff048311821515161562001154576200115362001225565b5b828202905092915050565b60006200116c82620011d8565b91506200117983620011d8565b9250828210156200118f576200118e62001225565b5b828203905092915050565b6000620011a782620011b8565b9050919050565b6000819050919050565b600073ffffffffffffffffffffffffffffffffffffffff82169050919050565b6000819050919050565b600060ff82169050919050565b600060028204905060018216806200120857607f821691505b602082108114156200121f576200121e62001254565b5b50919050565b7f4e487b7100000000000000000000000000000000000000000000000000000000600052601160045260246000fd5b7f4e487b7100000000000000000000000000000000000000000000000000000000600052602260045260246000fd5b60008160011c9050919050565b7f4552433230566f7465733a20746f74616c20737570706c79207269736b73206f60008201527f766572666c6f77696e6720766f74657300000000000000000000000000000000602082015250565b7f53616665436173743a2076616c756520646f65736e27742066697420696e203260008201527f3234206269747300000000000000000000000000000000000000000000000000602082015250565b7f53616665436173743a2076616c756520646f65736e27742066697420696e203360008201527f3220626974730000000000000000000000000000000000000000000000000000602082015250565b7f45524332303a206d696e7420746f20746865207a65726f206164647265737300600082015250565b620013b181620011d8565b8114620013bd57600080fd5b50565b60805160a05160c05160e0516101005161012051613a1d620014106000396000610db7015260006118210152600061186301526000611842015260006117ce015260006117f60152613a1d6000f3fe608060405234801561001057600080fd5b50600436106101425760003560e01c806370a08231116100b8578063a457c2d71161007c578063a457c2d7146103d9578063a9059cbb14610409578063c3cda52014610439578063d505accf14610455578063dd62ed3e14610471578063f1127ed8146104a157610142565b806370a08231146102fb5780637ecebe001461032b5780638e539e8c1461035b57806395d89b411461038b5780639ab24eb0146103a957610142565b80633644e5151161010a5780633644e51514610201578063395093511461021f5780633a46b1a81461024f578063587cde1e1461027f5780635c19a95c146102af5780636fcfff45146102cb57610142565b806306fdde0314610147578063095ea7b31461016557806318160ddd1461019557806323b872dd146101b3578063313ce567146101e3575b600080fd5b61014f6104d1565b60405161015c9190612e92565b60405180910390f35b61017f600480360381019061017a91906127cc565b610563565b60405161018c9190612d1e565b60405180910390f35b61019d610581565b6040516101aa919061314f565b60405180910390f35b6101cd60048036038101906101c891906126df565b61058b565b6040516101da9190612d1e565b60405180910390f35b6101eb610683565b6040516101f891906131ae565b60405180910390f35b61020961068c565b6040516102169190612d39565b60405180910390f35b610239600480360381019061023491906127cc565b61069b565b6040516102469190612d1e565b60405180910390f35b610269600480360381019061026491906127cc565b610747565b604051610276919061314f565b60405180910390f35b6102996004803603810190610294919061267a565b6107db565b6040516102a69190612d03565b60405180910390f35b6102c960048036038101906102c4919061267a565b610844565b005b6102e560048036038101906102e0919061267a565b610858565b6040516102f29190613193565b60405180910390f35b6103156004803603810190610310919061267a565b6108ac565b604051610322919061314f565b60405180910390f35b6103456004803603810190610340919061267a565b6108f4565b604051610352919061314f565b60405180910390f35b610375600480360381019061037091906128cd565b610944565b604051610382919061314f565b60405180910390f35b61039361099a565b6040516103a09190612e92565b60405180910390f35b6103c360048036038101906103be919061267a565b610a2c565b6040516103d0919061314f565b60405180910390f35b6103f360048036038101906103ee91906127cc565b610b63565b6040516104009190612d1e565b60405180910390f35b610423600480360381019061041e91906127cc565b610c4e565b6040516104309190612d1e565b60405180910390f35b610453600480360381019061044e9190612808565b610c6c565b005b61046f600480360381019061046a919061272e565b610d70565b005b61048b600480360381019061048691906126a3565b610eb2565b604051610498919061314f565b60405180910390f35b6104bb60048036038101906104b69190612891565b610f39565b6040516104c89190613134565b60405180910390f35b6060600380546104e090613375565b80601f016020809104026020016040519081016040528092919081815260200182805461050c90613375565b80156105595780601f1061052e57610100808354040283529160200191610559565b820191906000526020600020905b81548152906001019060200180831161053c57829003601f168201915b5050505050905090565b6000610577610570611376565b848461137e565b6001905092915050565b6000600254905090565b6000610598848484611549565b6000600160008673ffffffffffffffffffffffffffffffffffffffff1673ffffffffffffffffffffffffffffffffffffffff16815260200190815260200160002060006105e3611376565b73ffffffffffffffffffffffffffffffffffffffff1673ffffffffffffffffffffffffffffffffffffffff16815260200190815260200160002054905082811015610663576040517f08c379a000000000000000000000000000000000000000000000000000000000815260040161065a90613034565b60405180910390fd5b6106778561066f611376565b85840361137e565b60019150509392505050565b60006012905090565b60006106966117ca565b905090565b600061073d6106a8611376565b8484600160006106b6611376565b73ffffffffffffffffffffffffffffffffffffffff1673ffffffffffffffffffffffffffffffffffffffff16815260200190815260200160002060008873ffffffffffffffffffffffffffffffffffffffff1673ffffffffffffffffffffffffffffffffffffffff1681526020019081526020016000205461073891906131f0565b61137e565b6001905092915050565b600043821061078b576040517f08c379a000000000000000000000000000000000000000000000000000000000815260040161078290612ef4565b60405180910390fd5b6107d3600760008573ffffffffffffffffffffffffffffffffffffffff1673ffffffffffffffffffffffffffffffffffffffff1681526020019081526020016000208361188d565b905092915050565b6000600660008373ffffffffffffffffffffffffffffffffffffffff1673ffffffffffffffffffffffffffffffffffffffff16815260200190815260200160002060009054906101000a900473ffffffffffffffffffffffffffffffffffffffff169050919050565b61085561084f611376565b826119e5565b50565b60006108a5600760008473ffffffffffffffffffffffffffffffffffffffff1673ffffffffffffffffffffffffffffffffffffffff168152602001908152602001600020805490506112dd565b9050919050565b60008060008373ffffffffffffffffffffffffffffffffffffffff1673ffffffffffffffffffffffffffffffffffffffff168152602001908152602001600020549050919050565b600061093d600560008473ffffffffffffffffffffffffffffffffffffffff1673ffffffffffffffffffffffffffffffffffffffff168152602001908152602001600020611aff565b9050919050565b6000438210610988576040517f08c379a000000000000000000000000000000000000000000000000000000000815260040161097f90612ef4565b60405180910390fd5b61099360088361188d565b9050919050565b6060600480546109a990613375565b80601f01602080910402602001604051908101604052809291908181526020018280546109d590613375565b8015610a225780601f106109f757610100808354040283529160200191610a22565b820191906000526020600020905b815481529060010190602001808311610a0557829003601f168201915b5050505050905090565b600080600760008473ffffffffffffffffffffffffffffffffffffffff1673ffffffffffffffffffffffffffffffffffffffff16815260200190815260200160002080549050905060008114610b3a57600760008473ffffffffffffffffffffffffffffffffffffffff1673ffffffffffffffffffffffffffffffffffffffff168152602001908152602001600020600182610ac89190613277565b81548110610aff577f4e487b7100000000000000000000000000000000000000000000000000000000600052603260045260246000fd5b9060005260206000200160000160049054906101000a90047bffffffffffffffffffffffffffffffffffffffffffffffffffffffff16610b3d565b60005b7bffffffffffffffffffffffffffffffffffffffffffffffffffffffff16915050919050565b60008060016000610b72611376565b73ffffffffffffffffffffffffffffffffffffffff1673ffffffffffffffffffffffffffffffffffffffff16815260200190815260200160002060008573ffffffffffffffffffffffffffffffffffffffff1673ffffffffffffffffffffffffffffffffffffffff16815260200190815260200160002054905082811015610c2f576040517f08c379a0000000000000000000000000000000000000000000000000000000008152600401610c26906130f4565b60405180910390fd5b610c43610c3a611376565b8585840361137e565b600191505092915050565b6000610c62610c5b611376565b8484611549565b6001905092915050565b83421115610caf576040517f08c379a0000000000000000000000000000000000000000000000000000000008152600401610ca690612f14565b60405180910390fd5b6000610d11610d097fe48329057bfd03d55e49b547132e39cffd9c1820ad7b9d4c5307691425d15adf898989604051602001610cee9493929190612db5565b60405160208183030381529060405280519060200120611b0d565b858585611b27565b9050610d1c81611b52565b8614610d5d576040517f08c379a0000000000000000000000000000000000000000000000000000000008152600401610d5490612f54565b60405180910390fd5b610d6781886119e5565b50505050505050565b83421115610db3576040517f08c379a0000000000000000000000000000000000000000000000000000000008152600401610daa90612f94565b60405180910390fd5b60007f0000000000000000000000000000000000000000000000000000000000000000888888610de28c611b52565b89604051602001610df896959493929190612d54565b6040516020818303038152906040528051906020012090506000610e1b82611b0d565b90506000610e2b82878787611b27565b90508973ffffffffffffffffffffffffffffffffffffffff168173ffffffffffffffffffffffffffffffffffffffff1614610e9b576040517f08c379a0000000000000000000000000000000000000000000000000000000008152600401610e9290613014565b60405180910390fd5b610ea68a8a8a61137e565b50505050505050505050565b6000600160008473ffffffffffffffffffffffffffffffffffffffff1673ffffffffffffffffffffffffffffffffffffffff16815260200190815260200160002060008373ffffffffffffffffffffffffffffffffffffffff1673ffffffffffffffffffffffffffffffffffffffff16815260200190815260200160002054905092915050565b610f416125d3565b600760008473ffffffffffffffffffffffffffffffffffffffff1673ffffffffffffffffffffffffffffffffffffffff1681526020019081526020016000208263ffffffff1681548110610fbe577f4e487b7100000000000000000000000000000000000000000000000000000000600052603260045260246000fd5b906000526020600020016040518060400160405290816000820160009054906101000a900463ffffffff1663ffffffff1663ffffffff1681526020016000820160049054906101000a90047bffffffffffffffffffffffffffffffffffffffffffffffffffffffff167bffffffffffffffffffffffffffffffffffffffffffffffffffffffff167bffffffffffffffffffffffffffffffffffffffffffffffffffffffff1681525050905092915050565b61107982826110fc565b611081611bb0565b7bffffffffffffffffffffffffffffffffffffffffffffffffffffffff166110a7610581565b11156110e8576040517f08c379a00000000000000000000000000000000000000000000000000000000081526004016110df90613054565b60405180910390fd5b6110f6600861125c83611bd4565b50505050565b600073ffffffffffffffffffffffffffffffffffffffff168273ffffffffffffffffffffffffffffffffffffffff16141561116c576040517f08c379a000000000000000000000000000000000000000000000000000000000815260040161116390613114565b60405180910390fd5b61117860008383611ebe565b806002600082825461118a91906131f0565b92505081905550806000808473ffffffffffffffffffffffffffffffffffffffff1673ffffffffffffffffffffffffffffffffffffffff16815260200190815260200160002060008282546111df91906131f0565b925050819055508173ffffffffffffffffffffffffffffffffffffffff16600073ffffffffffffffffffffffffffffffffffffffff167fddf252ad1be2c89b69c2b068fc378daa952ba7f163c4a11628f55a4df523b3ef83604051611244919061314f565b60405180910390a361125860008383611ec3565b5050565b6000818361126a91906131f0565b905092915050565b60007bffffffffffffffffffffffffffffffffffffffffffffffffffffffff80168211156112d5576040517f08c379a00000000000000000000000000000000000000000000000000000000081526004016112cc90613074565b60405180910390fd5b819050919050565b600063ffffffff8016821115611328576040517f08c379a000000000000000000000000000000000000000000000000000000000815260040161131f906130b4565b60405180910390fd5b819050919050565b61133b83838361135b565b611356611347846107db565b611350846107db565b83611ed3565b505050565b505050565b6000818361136e9190613277565b905092915050565b600033905090565b600073ffffffffffffffffffffffffffffffffffffffff168373ffffffffffffffffffffffffffffffffffffffff1614156113ee576040517f08c379a00000000000000000000000000000000000000000000000000000000081526004016113e5906130d4565b60405180910390fd5b600073ffffffffffffffffffffffffffffffffffffffff168273ffffffffffffffffffffffffffffffffffffffff16141561145e576040517f08c379a000000000000000000000000000000000000000000000000000000000815260040161145590612f74565b60405180910390fd5b80600160008573ffffffffffffffffffffffffffffffffffffffff1673ffffffffffffffffffffffffffffffffffffffff16815260200190815260200160002060008473ffffffffffffffffffffffffffffffffffffffff1673ffffffffffffffffffffffffffffffffffffffff168152602001908152602001600020819055508173ffffffffffffffffffffffffffffffffffffffff168373ffffffffffffffffffffffffffffffffffffffff167f8c5be1e5ebec7d5bd14f71427d1e84f3dd0314c0f7b2291e5b200ac8c7c3b9258360405161153c919061314f565b60405180910390a3505050565b600073ffffffffffffffffffffffffffffffffffffffff168373ffffffffffffffffffffffffffffffffffffffff1614156115b9576040517f08c379a00000000000000000000000000000000000000000000000000000000081526004016115b090613094565b60405180910390fd5b600073ffffffffffffffffffffffffffffffffffffffff168273ffffffffffffffffffffffffffffffffffffffff161415611629576040517f08c379a000000000000000000000000000000000000000000000000000000000815260040161162090612ed4565b60405180910390fd5b611634838383611ebe565b60008060008573ffffffffffffffffffffffffffffffffffffffff1673ffffffffffffffffffffffffffffffffffffffff168152602001908152602001600020549050818110156116ba576040517f08c379a00000000000000000000000000000000000000000000000000000000081526004016116b190612fb4565b60405180910390fd5b8181036000808673ffffffffffffffffffffffffffffffffffffffff1673ffffffffffffffffffffffffffffffffffffffff16815260200190815260200160002081905550816000808573ffffffffffffffffffffffffffffffffffffffff1673ffffffffffffffffffffffffffffffffffffffff168152602001908152602001600020600082825461174d91906131f0565b925050819055508273ffffffffffffffffffffffffffffffffffffffff168473ffffffffffffffffffffffffffffffffffffffff167fddf252ad1be2c89b69c2b068fc378daa952ba7f163c4a11628f55a4df523b3ef846040516117b1919061314f565b60405180910390a36117c4848484611ec3565b50505050565b60007f000000000000000000000000000000000000000000000000000000000000000046141561181c577f0000000000000000000000000000000000000000000000000000000000000000905061188a565b6118877f00000000000000000000000000000000000000000000000000000000000000007f00000000000000000000000000000000000000000000000000000000000000007f00000000000000000000000000000000000000000000000000000000000000006120cc565b90505b90565b6000808380549050905060005b818110156119325760006118ae8284612106565b9050848682815481106118ea577f4e487b7100000000000000000000000000000000000000000000000000000000600052603260045260246000fd5b9060005260206000200160000160009054906101000a900463ffffffff1663ffffffff16111561191c5780925061192c565b60018161192991906131f0565b91505b5061189a565b600082146119ba57846001836119489190613277565b8154811061197f577f4e487b7100000000000000000000000000000000000000000000000000000000600052603260045260246000fd5b9060005260206000200160000160049054906101000a90047bffffffffffffffffffffffffffffffffffffffffffffffffffffffff166119bd565b60005b7bffffffffffffffffffffffffffffffffffffffffffffffffffffffff169250505092915050565b60006119f0836107db565b905060006119fd846108ac565b905082600660008673ffffffffffffffffffffffffffffffffffffffff1673ffffffffffffffffffffffffffffffffffffffff16815260200190815260200160002060006101000a81548173ffffffffffffffffffffffffffffffffffffffff021916908373ffffffffffffffffffffffffffffffffffffffff1602179055508273ffffffffffffffffffffffffffffffffffffffff168273ffffffffffffffffffffffffffffffffffffffff168573ffffffffffffffffffffffffffffffffffffffff167f3134e8a2e6d97e929a7e54011ea5485d7d196dd5f0ba4d4ef95803e8e3fc257f60405160405180910390a4611af9828483611ed3565b50505050565b600081600001549050919050565b6000611b20611b1a6117ca565b8361212c565b9050919050565b6000806000611b388787878761215f565b91509150611b458161226c565b8192505050949350505050565b600080600560008473ffffffffffffffffffffffffffffffffffffffff1673ffffffffffffffffffffffffffffffffffffffff1681526020019081526020016000209050611b9f81611aff565b9150611baa816125bd565b50919050565b60007bffffffffffffffffffffffffffffffffffffffffffffffffffffffff905090565b60008060008580549050905060008114611c685785600182611bf69190613277565b81548110611c2d577f4e487b7100000000000000000000000000000000000000000000000000000000600052603260045260246000fd5b9060005260206000200160000160049054906101000a90047bffffffffffffffffffffffffffffffffffffffffffffffffffffffff16611c6b565b60005b7bffffffffffffffffffffffffffffffffffffffffffffffffffffffff169250611c9983858763ffffffff16565b9150600081118015611d1257504386600183611cb59190613277565b81548110611cec577f4e487b7100000000000000000000000000000000000000000000000000000000600052603260045260246000fd5b9060005260206000200160000160009054906101000a900463ffffffff1663ffffffff16145b15611dc557611d2082611272565b86600183611d2e9190613277565b81548110611d65577f4e487b7100000000000000000000000000000000000000000000000000000000600052603260045260246000fd5b9060005260206000200160000160046101000a8154817bffffffffffffffffffffffffffffffffffffffffffffffffffffffff02191690837bffffffffffffffffffffffffffffffffffffffffffffffffffffffff160217905550611eb5565b856040518060400160405280611dda436112dd565b63ffffffff168152602001611dee85611272565b7bffffffffffffffffffffffffffffffffffffffffffffffffffffffff168152509080600181540180825580915050600190039060005260206000200160009091909190915060008201518160000160006101000a81548163ffffffff021916908363ffffffff16021790555060208201518160000160046101000a8154817bffffffffffffffffffffffffffffffffffffffffffffffffffffffff02191690837bffffffffffffffffffffffffffffffffffffffffffffffffffffffff16021790555050505b50935093915050565b505050565b611ece838383611330565b505050565b8173ffffffffffffffffffffffffffffffffffffffff168373ffffffffffffffffffffffffffffffffffffffff1614158015611f0f5750600081115b156120c757600073ffffffffffffffffffffffffffffffffffffffff168373ffffffffffffffffffffffffffffffffffffffff1614611fed57600080611f96600760008773ffffffffffffffffffffffffffffffffffffffff1673ffffffffffffffffffffffffffffffffffffffff16815260200190815260200160002061136085611bd4565b915091508473ffffffffffffffffffffffffffffffffffffffff167fdec2bacdd2f05b59de34da9b523dff8be42e5e38e818c82fdb0bae774387a7248383604051611fe292919061316a565b60405180910390a250505b600073ffffffffffffffffffffffffffffffffffffffff168273ffffffffffffffffffffffffffffffffffffffff16146120c65760008061206f600760008673ffffffffffffffffffffffffffffffffffffffff1673ffffffffffffffffffffffffffffffffffffffff16815260200190815260200160002061125c85611bd4565b915091508373ffffffffffffffffffffffffffffffffffffffff167fdec2bacdd2f05b59de34da9b523dff8be42e5e38e818c82fdb0bae774387a72483836040516120bb92919061316a565b60405180910390a250505b5b505050565b600083838346306040516020016120e7959493929190612dfa565b6040516020818303038152906040528051906020012090509392505050565b600060028284186121179190613246565b82841661212491906131f0565b905092915050565b60008282604051602001612141929190612ccc565b60405160208183030381529060405280519060200120905092915050565b6000807f7fffffffffffffffffffffffffffffff5d576e7357a4501ddfe92f46681b20a08360001c111561219a576000600391509150612263565b601b8560ff16141580156121b25750601c8560ff1614155b156121c4576000600491509150612263565b6000600187878787604051600081526020016040526040516121e99493929190612e4d565b6020604051602081039080840390855afa15801561220b573d6000803e3d6000fd5b505050602060405103519050600073ffffffffffffffffffffffffffffffffffffffff168173ffffffffffffffffffffffffffffffffffffffff16141561225a57600060019250925050612263565b80600092509250505b94509492505050565b600060048111156122a6577f4e487b7100000000000000000000000000000000000000000000000000000000600052602160045260246000fd5b8160048111156122df577f4e487b7100000000000000000000000000000000000000000000000000000000600052602160045260246000fd5b14156122ea576125ba565b60016004811115612324577f4e487b7100000000000000000000000000000000000000000000000000000000600052602160045260246000fd5b81600481111561235d577f4e487b7100000000000000000000000000000000000000000000000000000000600052602160045260246000fd5b141561239e576040517f08c379a000000000000000000000000000000000000000000000000000000000815260040161239590612eb4565b60405180910390fd5b600260048111156123d8577f4e487b7100000000000000000000000000000000000000000000000000000000600052602160045260246000fd5b816004811115612411577f4e487b7100000000000000000000000000000000000000000000000000000000600052602160045260246000fd5b1415612452576040517f08c379a000000000000000000000000000000000000000000000000000000000815260040161244990612f34565b60405180910390fd5b6003600481111561248c577f4e487b7100000000000000000000000000000000000000000000000000000000600052602160045260246000fd5b8160048111156124c5577f4e487b7100000000000000000000000000000000000000000000000000000000600052602160045260246000fd5b1415612506576040517f08c379a00000000000000000000000000000000000000000000000000000000081526004016124fd90612fd4565b60405180910390fd5b60048081111561253f577f4e487b7100000000000000000000000000000000000000000000000000000000600052602160045260246000fd5b816004811115612578577f4e487b7100000000000000000000000000000000000000000000000000000000600052602160045260246000fd5b14156125b9576040517f08c379a00000000000000000000000000000000000000000000000000000000081526004016125b090612ff4565b60405180910390fd5b5b50565b6001816000016000828254019250508190555050565b6040518060400160405280600063ffffffff16815260200160007bffffffffffffffffffffffffffffffffffffffffffffffffffffffff1681525090565b60008135905061262081613974565b92915050565b6000813590506126358161398b565b92915050565b60008135905061264a816139a2565b92915050565b60008135905061265f816139b9565b92915050565b600081359050612674816139d0565b92915050565b60006020828403121561268c57600080fd5b600061269a84828501612611565b91505092915050565b600080604083850312156126b657600080fd5b60006126c485828601612611565b92505060206126d585828601612611565b9150509250929050565b6000806000606084860312156126f457600080fd5b600061270286828701612611565b935050602061271386828701612611565b92505060406127248682870161263b565b9150509250925092565b600080600080600080600060e0888a03121561274957600080fd5b60006127578a828b01612611565b97505060206127688a828b01612611565b96505060406127798a828b0161263b565b955050606061278a8a828b0161263b565b945050608061279b8a828b01612665565b93505060a06127ac8a828b01612626565b92505060c06127bd8a828b01612626565b91505092959891949750929550565b600080604083850312156127df57600080fd5b60006127ed85828601612611565b92505060206127fe8582860161263b565b9150509250929050565b60008060008060008060c0878903121561282157600080fd5b600061282f89828a01612611565b965050602061284089828a0161263b565b955050604061285189828a0161263b565b945050606061286289828a01612665565b935050608061287389828a01612626565b92505060a061288489828a01612626565b9150509295509295509295565b600080604083850312156128a457600080fd5b60006128b285828601612611565b92505060206128c385828601612650565b9150509250929050565b6000602082840312156128df57600080fd5b60006128ed8482850161263b565b91505092915050565b6128ff816132ab565b82525050565b61290e816132bd565b82525050565b61291d816132c9565b82525050565b61293461292f826132c9565b6133a7565b82525050565b6000612945826131c9565b61294f81856131d4565b935061295f818560208601613342565b6129688161343e565b840191505092915050565b60006129806018836131d4565b915061298b8261344f565b602082019050919050565b60006129a36023836131d4565b91506129ae82613478565b604082019050919050565b60006129c6601f836131d4565b91506129d1826134c7565b602082019050919050565b60006129e9601d836131d4565b91506129f4826134f0565b602082019050919050565b6000612a0c601f836131d4565b9150612a1782613519565b602082019050919050565b6000612a2f6019836131d4565b9150612a3a82613542565b602082019050919050565b6000612a526022836131d4565b9150612a5d8261356b565b604082019050919050565b6000612a756002836131e5565b9150612a80826135ba565b600282019050919050565b6000612a98601d836131d4565b9150612aa3826135e3565b602082019050919050565b6000612abb6026836131d4565b9150612ac68261360c565b604082019050919050565b6000612ade6022836131d4565b9150612ae98261365b565b604082019050919050565b6000612b016022836131d4565b9150612b0c826136aa565b604082019050919050565b6000612b24601e836131d4565b9150612b2f826136f9565b602082019050919050565b6000612b476028836131d4565b9150612b5282613722565b604082019050919050565b6000612b6a6030836131d4565b9150612b7582613771565b604082019050919050565b6000612b8d6027836131d4565b9150612b98826137c0565b604082019050919050565b6000612bb06025836131d4565b9150612bbb8261380f565b604082019050919050565b6000612bd36026836131d4565b9150612bde8261385e565b604082019050919050565b6000612bf66024836131d4565b9150612c01826138ad565b604082019050919050565b6000612c196025836131d4565b9150612c24826138fc565b604082019050919050565b6000612c3c601f836131d4565b9150612c478261394b565b602082019050919050565b604082016000820151612c686000850182612c9f565b506020820151612c7b6020850182612c81565b50505050565b612c8a816132f3565b82525050565b612c998161331b565b82525050565b612ca881613325565b82525050565b612cb781613325565b82525050565b612cc681613335565b82525050565b6000612cd782612a68565b9150612ce38285612923565b602082019150612cf38284612923565b6020820191508190509392505050565b6000602082019050612d1860008301846128f6565b92915050565b6000602082019050612d336000830184612905565b92915050565b6000602082019050612d4e6000830184612914565b92915050565b600060c082019050612d696000830189612914565b612d7660208301886128f6565b612d8360408301876128f6565b612d906060830186612c90565b612d9d6080830185612c90565b612daa60a0830184612c90565b979650505050505050565b6000608082019050612dca6000830187612914565b612dd760208301866128f6565b612de46040830185612c90565b612df16060830184612c90565b95945050505050565b600060a082019050612e0f6000830188612914565b612e1c6020830187612914565b612e296040830186612914565b612e366060830185612c90565b612e4360808301846128f6565b9695505050505050565b6000608082019050612e626000830187612914565b612e6f6020830186612cbd565b612e7c6040830185612914565b612e896060830184612914565b95945050505050565b60006020820190508181036000830152612eac818461293a565b905092915050565b60006020820190508181036000830152612ecd81612973565b9050919050565b60006020820190508181036000830152612eed81612996565b9050919050565b60006020820190508181036000830152612f0d816129b9565b9050919050565b60006020820190508181036000830152612f2d816129dc565b9050919050565b60006020820190508181036000830152612f4d816129ff565b9050919050565b60006020820190508181036000830152612f6d81612a22565b9050919050565b60006020820190508181036000830152612f8d81612a45565b9050919050565b60006020820190508181036000830152612fad81612a8b565b9050919050565b60006020820190508181036000830152612fcd81612aae565b9050919050565b60006020820190508181036000830152612fed81612ad1565b9050919050565b6000602082019050818103600083015261300d81612af4565b9050919050565b6000602082019050818103600083015261302d81612b17565b9050919050565b6000602082019050818103600083015261304d81612b3a565b9050919050565b6000602082019050818103600083015261306d81612b5d565b9050919050565b6000602082019050818103600083015261308d81612b80565b9050919050565b600060208201905081810360008301526130ad81612ba3565b9050919050565b600060208201905081810360008301526130cd81612bc6565b9050919050565b600060208201905081810360008301526130ed81612be9565b9050919050565b6000602082019050818103600083015261310d81612c0c565b9050919050565b6000602082019050818103600083015261312d81612c2f565b9050919050565b60006040820190506131496000830184612c52565b92915050565b60006020820190506131646000830184612c90565b92915050565b600060408201905061317f6000830185612c90565b61318c6020830184612c90565b9392505050565b60006020820190506131a86000830184612cae565b92915050565b60006020820190506131c36000830184612cbd565b92915050565b600081519050919050565b600082825260208201905092915050565b600081905092915050565b60006131fb8261331b565b91506132068361331b565b9250827fffffffffffffffffffffffffffffffffffffffffffffffffffffffffffffffff0382111561323b5761323a6133b1565b5b828201905092915050565b60006132518261331b565b915061325c8361331b565b92508261326c5761326b6133e0565b5b828204905092915050565b60006132828261331b565b915061328d8361331b565b9250828210156132a05761329f6133b1565b5b828203905092915050565b60006132b6826132d3565b9050919050565b60008115159050919050565b6000819050919050565b600073ffffffffffffffffffffffffffffffffffffffff82169050919050565b60007bffffffffffffffffffffffffffffffffffffffffffffffffffffffff82169050919050565b6000819050919050565b600063ffffffff82169050919050565b600060ff82169050919050565b60005b83811015613360578082015181840152602081019050613345565b8381111561336f576000848401525b50505050565b6000600282049050600182168061338d57607f821691505b602082108114156133a1576133a061340f565b5b50919050565b6000819050919050565b7f4e487b7100000000000000000000000000000000000000000000000000000000600052601160045260246000fd5b7f4e487b7100000000000000000000000000000000000000000000000000000000600052601260045260246000fd5b7f4e487b7100000000000000000000000000000000000000000000000000000000600052602260045260246000fd5b6000601f19601f8301169050919050565b7f45434453413a20696e76616c6964207369676e61747572650000000000000000600082015250565b7f45524332303a207472616e7366657220746f20746865207a65726f206164647260008201527f6573730000000000000000000000000000000000000000000000000000000000602082015250565b7f4552433230566f7465733a20626c6f636b206e6f7420796574206d696e656400600082015250565b7f4552433230566f7465733a207369676e61747572652065787069726564000000600082015250565b7f45434453413a20696e76616c6964207369676e6174757265206c656e67746800600082015250565b7f4552433230566f7465733a20696e76616c6964206e6f6e636500000000000000600082015250565b7f45524332303a20617070726f766520746f20746865207a65726f20616464726560008201527f7373000000000000000000000000000000000000000000000000000000000000602082015250565b7f1901000000000000000000000000000000000000000000000000000000000000600082015250565b7f45524332305065726d69743a206578706972656420646561646c696e65000000600082015250565b7f45524332303a207472616e7366657220616d6f756e742065786365656473206260008201527f616c616e63650000000000000000000000000000000000000000000000000000602082015250565b7f45434453413a20696e76616c6964207369676e6174757265202773272076616c60008201527f7565000000000000000000000000000000000000000000000000000000000000602082015250565b7f45434453413a20696e76616c6964207369676e6174757265202776272076616c60008201527f7565000000000000000000000000000000000000000000000000000000000000602082015250565b7f45524332305065726d69743a20696e76616c6964207369676e61747572650000600082015250565b7f45524332303a207472616e7366657220616d6f756e742065786365656473206160008201527f6c6c6f77616e6365000000000000000000000000000000000000000000000000602082015250565b7f4552433230566f7465733a20746f74616c20737570706c79207269736b73206f60008201527f766572666c6f77696e6720766f74657300000000000000000000000000000000602082015250565b7f53616665436173743a2076616c756520646f65736e27742066697420696e203260008201527f3234206269747300000000000000000000000000000000000000000000000000602082015250565b7f45524332303a207472616e736665722066726f6d20746865207a65726f20616460008201527f6472657373000000000000000000000000000000000000000000000000000000602082015250565b7f53616665436173743a2076616c756520646f65736e27742066697420696e203360008201527f3220626974730000000000000000000000000000000000000000000000000000602082015250565b7f45524332303a20617070726f76652066726f6d20746865207a65726f2061646460008201527f7265737300000000000000000000000000000000000000000000000000000000602082015250565b7f45524332303a2064656372656173656420616c6c6f77616e63652062656c6f7760008201527f207a65726f000000000000000000000000000000000000000000000000000000602082015250565b7f45524332303a206d696e7420746f20746865207a65726f206164647265737300600082015250565b61397d816132ab565b811461398857600080fd5b50565b613994816132c9565b811461399f57600080fd5b50565b6139ab8161331b565b81146139b657600080fd5b50565b6139c281613325565b81146139cd57600080fd5b50565b6139d981613335565b81146139e457600080fd5b5056fea26469706673582212203009f22f650c8c706e34d479f83c47a59332f9a3750cff14148f8ab8b670ed1e64736f6c63430008020033",
  "immutableReferences": {
    "1426": [
      {
        "length": 32,
        "start": 3511
      }
    ],
    "4046": [
      {
        "length": 32,
        "start": 6134
      }
    ],
    "4048": [
      {
        "length": 32,
        "start": 6094
      }
    ],
    "4050": [
      {
        "length": 32,
        "start": 6210
      }
    ],
    "4052": [
      {
        "length": 32,
        "start": 6243
      }
    ],
    "4054": [
      {
        "length": 32,
        "start": 6177
      }
    ]
  },
  "source": "// SPDX-License-Identifier: MIT\npragma solidity ^0.8.2;\n\nimport \"@openzeppelin/contracts/token/ERC20/ERC20.sol\";\nimport \"@openzeppelin/contracts/token/ERC20/extensions/draft-ERC20Permit.sol\";\nimport \"@openzeppelin/contracts/token/ERC20/extensions/ERC20Votes.sol\";\n\n/// @title Condo Token(CDT) Contract \n/// @notice Condo Token(CDT) used as votes for governance voting\n/// @dev Currently hardcoded total supply will be customizable in the future development build\ncontract CondoToken is ERC20, ERC20Permit, ERC20Votes {\n    constructor(uint256 maxTotalSupply) ERC20(\"CondoToken\", \"CDT\") ERC20Permit(\"CondoToken\") {\n        // premint tokens with a cappedSupply to estateDeveloper\n        _mint(msg.sender, maxTotalSupply * 10 ** decimals());\n    }\n    \n    // The following functions are overrides required by Solidity.\n\n    function _afterTokenTransfer(address from, address to, uint256 amount)\n        internal\n        override(ERC20, ERC20Votes)\n    {\n        super._afterTokenTransfer(from, to, amount);\n    }\n\n    function _mint(address to, uint256 amount)\n        internal\n        override(ERC20, ERC20Votes)\n    {\n        super._mint(to, amount);\n    }\n\n    function _burn(address account, uint256 amount)\n        internal\n        override(ERC20, ERC20Votes)\n    {\n        super._burn(account, amount);\n    }\n}",
  "sourcePath": "/Users/admin/blockchain-developer-bootcamp-final-project/contracts/CondoToken.sol",
  "compiler": {
    "name": "solc",
    "version": "0.8.2+commit.661d1103.Emscripten.clang"
  },
  "schemaVersion": "3.4.3",
  "updatedAt": "2021-11-18T14:50:08.759Z",
  "networkType": "ethereum",
  "devdoc": {
    "details": "Currently hardcoded total supply will be customizable in the future development build",
    "kind": "dev",
    "methods": {
      "DOMAIN_SEPARATOR()": {
        "details": "See {IERC20Permit-DOMAIN_SEPARATOR}."
      },
      "allowance(address,address)": {
        "details": "See {IERC20-allowance}."
      },
      "approve(address,uint256)": {
        "details": "See {IERC20-approve}. Requirements: - `spender` cannot be the zero address."
      },
      "balanceOf(address)": {
        "details": "See {IERC20-balanceOf}."
      },
      "checkpoints(address,uint32)": {
        "details": "Get the `pos`-th checkpoint for `account`."
      },
      "decimals()": {
        "details": "Returns the number of decimals used to get its user representation. For example, if `decimals` equals `2`, a balance of `505` tokens should be displayed to a user as `5.05` (`505 / 10 ** 2`). Tokens usually opt for a value of 18, imitating the relationship between Ether and Wei. This is the value {ERC20} uses, unless this function is overridden; NOTE: This information is only used for _display_ purposes: it in no way affects any of the arithmetic of the contract, including {IERC20-balanceOf} and {IERC20-transfer}."
      },
      "decreaseAllowance(address,uint256)": {
        "details": "Atomically decreases the allowance granted to `spender` by the caller. This is an alternative to {approve} that can be used as a mitigation for problems described in {IERC20-approve}. Emits an {Approval} event indicating the updated allowance. Requirements: - `spender` cannot be the zero address. - `spender` must have allowance for the caller of at least `subtractedValue`."
      },
      "delegate(address)": {
        "details": "Delegate votes from the sender to `delegatee`."
      },
      "delegateBySig(address,uint256,uint256,uint8,bytes32,bytes32)": {
        "details": "Delegates votes from signer to `delegatee`"
      },
      "delegates(address)": {
        "details": "Get the address `account` is currently delegating to."
      },
      "getPastTotalSupply(uint256)": {
        "details": "Retrieve the `totalSupply` at the end of `blockNumber`. Note, this value is the sum of all balances. It is but NOT the sum of all the delegated votes! Requirements: - `blockNumber` must have been already mined"
      },
      "getPastVotes(address,uint256)": {
        "details": "Retrieve the number of votes for `account` at the end of `blockNumber`. Requirements: - `blockNumber` must have been already mined"
      },
      "getVotes(address)": {
        "details": "Gets the current votes balance for `account`"
      },
      "increaseAllowance(address,uint256)": {
        "details": "Atomically increases the allowance granted to `spender` by the caller. This is an alternative to {approve} that can be used as a mitigation for problems described in {IERC20-approve}. Emits an {Approval} event indicating the updated allowance. Requirements: - `spender` cannot be the zero address."
      },
      "name()": {
        "details": "Returns the name of the token."
      },
      "nonces(address)": {
        "details": "See {IERC20Permit-nonces}."
      },
      "numCheckpoints(address)": {
        "details": "Get number of checkpoints for `account`."
      },
      "permit(address,address,uint256,uint256,uint8,bytes32,bytes32)": {
        "details": "See {IERC20Permit-permit}."
      },
      "symbol()": {
        "details": "Returns the symbol of the token, usually a shorter version of the name."
      },
      "totalSupply()": {
        "details": "See {IERC20-totalSupply}."
      },
      "transfer(address,uint256)": {
        "details": "See {IERC20-transfer}. Requirements: - `recipient` cannot be the zero address. - the caller must have a balance of at least `amount`."
      },
      "transferFrom(address,address,uint256)": {
        "details": "See {IERC20-transferFrom}. Emits an {Approval} event indicating the updated allowance. This is not required by the EIP. See the note at the beginning of {ERC20}. Requirements: - `sender` and `recipient` cannot be the zero address. - `sender` must have a balance of at least `amount`. - the caller must have allowance for ``sender``'s tokens of at least `amount`."
      }
    },
    "title": "Condo Token(CDT) Contract ",
    "version": 1
  },
  "userdoc": {
    "kind": "user",
    "methods": {},
    "notice": "Condo Token(CDT) used as votes for governance voting",
    "version": 1
  }
}