{
  "contractName": "CondoRegistry",
  "abi": [
    {
      "inputs": [
        {
          "internalType": "uint256",
          "name": "_maxSupply",
          "type": "uint256"
        }
      ],
      "stateMutability": "nonpayable",
      "type": "constructor"
    },
    {
      "anonymous": false,
      "inputs": [
        {
          "indexed": true,
          "internalType": "address",
          "name": "owner",
          "type": "address"
        },
        {
          "indexed": true,
          "internalType": "address",
          "name": "approved",
          "type": "address"
        },
        {
          "indexed": true,
          "internalType": "uint256",
          "name": "tokenId",
          "type": "uint256"
        }
      ],
      "name": "Approval",
      "type": "event"
    },
    {
      "anonymous": false,
      "inputs": [
        {
          "indexed": true,
          "internalType": "address",
          "name": "owner",
          "type": "address"
        },
        {
          "indexed": true,
          "internalType": "address",
          "name": "operator",
          "type": "address"
        },
        {
          "indexed": false,
          "internalType": "bool",
          "name": "approved",
          "type": "bool"
        }
      ],
      "name": "ApprovalForAll",
      "type": "event"
    },
    {
      "anonymous": false,
      "inputs": [
        {
          "indexed": true,
          "internalType": "uint256",
          "name": "tokenId",
          "type": "uint256"
        },
        {
          "indexed": false,
          "internalType": "string",
          "name": "tokenURI",
          "type": "string"
        }
      ],
      "name": "MintedNFT",
      "type": "event"
    },
    {
      "anonymous": false,
      "inputs": [
        {
          "indexed": true,
          "internalType": "address",
          "name": "previousOwner",
          "type": "address"
        },
        {
          "indexed": true,
          "internalType": "address",
          "name": "newOwner",
          "type": "address"
        }
      ],
      "name": "OwnershipTransferred",
      "type": "event"
    },
    {
      "anonymous": false,
      "inputs": [
        {
          "indexed": true,
          "internalType": "address",
          "name": "from",
          "type": "address"
        },
        {
          "indexed": true,
          "internalType": "address",
          "name": "to",
          "type": "address"
        },
        {
          "indexed": true,
          "internalType": "uint256",
          "name": "tokenId",
          "type": "uint256"
        }
      ],
      "name": "Transfer",
      "type": "event"
    },
    {
      "inputs": [
        {
          "internalType": "address",
          "name": "to",
          "type": "address"
        },
        {
          "internalType": "uint256",
          "name": "tokenId",
          "type": "uint256"
        }
      ],
      "name": "approve",
      "outputs": [],
      "stateMutability": "nonpayable",
      "type": "function"
    },
    {
      "inputs": [
        {
          "internalType": "address",
          "name": "owner",
          "type": "address"
        }
      ],
      "name": "balanceOf",
      "outputs": [
        {
          "internalType": "uint256",
          "name": "",
          "type": "uint256"
        }
      ],
      "stateMutability": "view",
      "type": "function",
      "constant": true
    },
    {
      "inputs": [
        {
          "internalType": "uint256",
          "name": "tokenId",
          "type": "uint256"
        }
      ],
      "name": "getApproved",
      "outputs": [
        {
          "internalType": "address",
          "name": "",
          "type": "address"
        }
      ],
      "stateMutability": "view",
      "type": "function",
      "constant": true
    },
    {
      "inputs": [
        {
          "internalType": "address",
          "name": "owner",
          "type": "address"
        },
        {
          "internalType": "address",
          "name": "operator",
          "type": "address"
        }
      ],
      "name": "isApprovedForAll",
      "outputs": [
        {
          "internalType": "bool",
          "name": "",
          "type": "bool"
        }
      ],
      "stateMutability": "view",
      "type": "function",
      "constant": true
    },
    {
      "inputs": [],
      "name": "name",
      "outputs": [
        {
          "internalType": "string",
          "name": "",
          "type": "string"
        }
      ],
      "stateMutability": "view",
      "type": "function",
      "constant": true
    },
    {
      "inputs": [],
      "name": "owner",
      "outputs": [
        {
          "internalType": "address",
          "name": "",
          "type": "address"
        }
      ],
      "stateMutability": "view",
      "type": "function",
      "constant": true
    },
    {
      "inputs": [
        {
          "internalType": "uint256",
          "name": "tokenId",
          "type": "uint256"
        }
      ],
      "name": "ownerOf",
      "outputs": [
        {
          "internalType": "address",
          "name": "",
          "type": "address"
        }
      ],
      "stateMutability": "view",
      "type": "function",
      "constant": true
    },
    {
      "inputs": [],
      "name": "renounceOwnership",
      "outputs": [],
      "stateMutability": "nonpayable",
      "type": "function"
    },
    {
      "inputs": [
        {
          "internalType": "address",
          "name": "from",
          "type": "address"
        },
        {
          "internalType": "address",
          "name": "to",
          "type": "address"
        },
        {
          "internalType": "uint256",
          "name": "tokenId",
          "type": "uint256"
        }
      ],
      "name": "safeTransferFrom",
      "outputs": [],
      "stateMutability": "nonpayable",
      "type": "function"
    },
    {
      "inputs": [
        {
          "internalType": "address",
          "name": "from",
          "type": "address"
        },
        {
          "internalType": "address",
          "name": "to",
          "type": "address"
        },
        {
          "internalType": "uint256",
          "name": "tokenId",
          "type": "uint256"
        },
        {
          "internalType": "bytes",
          "name": "_data",
          "type": "bytes"
        }
      ],
      "name": "safeTransferFrom",
      "outputs": [],
      "stateMutability": "nonpayable",
      "type": "function"
    },
    {
      "inputs": [
        {
          "internalType": "address",
          "name": "operator",
          "type": "address"
        },
        {
          "internalType": "bool",
          "name": "approved",
          "type": "bool"
        }
      ],
      "name": "setApprovalForAll",
      "outputs": [],
      "stateMutability": "nonpayable",
      "type": "function"
    },
    {
      "inputs": [],
      "name": "symbol",
      "outputs": [
        {
          "internalType": "string",
          "name": "",
          "type": "string"
        }
      ],
      "stateMutability": "view",
      "type": "function",
      "constant": true
    },
    {
      "inputs": [
        {
          "internalType": "uint256",
          "name": "index",
          "type": "uint256"
        }
      ],
      "name": "tokenByIndex",
      "outputs": [
        {
          "internalType": "uint256",
          "name": "",
          "type": "uint256"
        }
      ],
      "stateMutability": "view",
      "type": "function",
      "constant": true
    },
    {
      "inputs": [
        {
          "internalType": "address",
          "name": "owner",
          "type": "address"
        },
        {
          "internalType": "uint256",
          "name": "index",
          "type": "uint256"
        }
      ],
      "name": "tokenOfOwnerByIndex",
      "outputs": [
        {
          "internalType": "uint256",
          "name": "",
          "type": "uint256"
        }
      ],
      "stateMutability": "view",
      "type": "function",
      "constant": true
    },
    {
      "inputs": [],
      "name": "totalSupply",
      "outputs": [
        {
          "internalType": "uint256",
          "name": "",
          "type": "uint256"
        }
      ],
      "stateMutability": "view",
      "type": "function",
      "constant": true
    },
    {
      "inputs": [
        {
          "internalType": "address",
          "name": "from",
          "type": "address"
        },
        {
          "internalType": "address",
          "name": "to",
          "type": "address"
        },
        {
          "internalType": "uint256",
          "name": "tokenId",
          "type": "uint256"
        }
      ],
      "name": "transferFrom",
      "outputs": [],
      "stateMutability": "nonpayable",
      "type": "function"
    },
    {
      "inputs": [
        {
          "internalType": "address",
          "name": "newOwner",
          "type": "address"
        }
      ],
      "name": "transferOwnership",
      "outputs": [],
      "stateMutability": "nonpayable",
      "type": "function"
    },
    {
      "inputs": [
        {
          "internalType": "address",
          "name": "to",
          "type": "address"
        },
        {
          "internalType": "uint256",
          "name": "tokenId",
          "type": "uint256"
        },
        {
          "internalType": "string",
          "name": "_tokenURI",
          "type": "string"
        }
      ],
      "name": "safeMint",
      "outputs": [
        {
          "internalType": "uint256",
          "name": "",
          "type": "uint256"
        }
      ],
      "stateMutability": "nonpayable",
      "type": "function"
    },
    {
      "inputs": [],
      "name": "maxTotalSupply",
      "outputs": [
        {
          "internalType": "uint256",
          "name": "",
          "type": "uint256"
        }
      ],
      "stateMutability": "view",
      "type": "function",
      "constant": true
    },
    {
      "inputs": [
        {
          "internalType": "uint256",
          "name": "tokenId",
          "type": "uint256"
        }
      ],
      "name": "tokenURI",
      "outputs": [
        {
          "internalType": "string",
          "name": "",
          "type": "string"
        }
      ],
      "stateMutability": "view",
      "type": "function",
      "constant": true
    },
    {
      "inputs": [
        {
          "internalType": "bytes4",
          "name": "interfaceId",
          "type": "bytes4"
        }
      ],
      "name": "supportsInterface",
      "outputs": [
        {
          "internalType": "bool",
          "name": "",
          "type": "bool"
        }
      ],
      "stateMutability": "view",
      "type": "function",
      "constant": true
    }
  ],
  "bytecode": "0x60a06040523480156200001157600080fd5b5060405162003d4e38038062003d4e83398181016040528101906200003791906200029b565b6040518060400160405280600d81526020017f436f6e646f5265676973747279000000000000000000000000000000000000008152506040518060400160405280600581526020017f434f4e444f0000000000000000000000000000000000000000000000000000008152508160009080519060200190620000bb929190620001d4565b508060019080519060200190620000d4929190620001d4565b505050620000f7620000eb6200010660201b60201c565b6200010e60201b60201c565b80608081815250505062000350565b600033905090565b6000600b60009054906101000a900473ffffffffffffffffffffffffffffffffffffffff16905081600b60006101000a81548173ffffffffffffffffffffffffffffffffffffffff021916908373ffffffffffffffffffffffffffffffffffffffff1602179055508173ffffffffffffffffffffffffffffffffffffffff168173ffffffffffffffffffffffffffffffffffffffff167f8be0079c531659141344cd1fd0a4f28419497f9722a3daafe3b4186f6b6457e060405160405180910390a35050565b828054620001e290620002d1565b90600052602060002090601f01602090048101928262000206576000855562000252565b82601f106200022157805160ff191683800117855562000252565b8280016001018555821562000252579182015b828111156200025157825182559160200191906001019062000234565b5b50905062000261919062000265565b5090565b5b808211156200028057600081600090555060010162000266565b5090565b600081519050620002958162000336565b92915050565b600060208284031215620002ae57600080fd5b6000620002be8482850162000284565b91505092915050565b6000819050919050565b60006002820490506001821680620002ea57607f821691505b6020821081141562000301576200030062000307565b5b50919050565b7f4e487b7100000000000000000000000000000000000000000000000000000000600052602260045260246000fd5b6200034181620002c7565b81146200034d57600080fd5b50565b6080516139db62000373600039600081816106e60152610d9401526139db6000f3fe608060405234801561001057600080fd5b50600436106101375760003560e01c80636352211e116100b8578063a22cb4651161007c578063a22cb46514610350578063b88d4fde1461036c578063c87b56dd14610388578063cd279c7c146103b8578063e985e9c5146103e8578063f2fde38b1461041857610137565b80636352211e146102aa57806370a08231146102da578063715018a61461030a5780638da5cb5b1461031457806395d89b411461033257610137565b806323b872dd116100ff57806323b872dd146101f45780632ab4d052146102105780632f745c591461022e57806342842e0e1461025e5780634f6ccce71461027a57610137565b806301ffc9a71461013c57806306fdde031461016c578063081812fc1461018a578063095ea7b3146101ba57806318160ddd146101d6575b600080fd5b610156600480360381019061015191906127d4565b610434565b6040516101639190612c89565b60405180910390f35b610174610446565b6040516101819190612ca4565b60405180910390f35b6101a4600480360381019061019f9190612826565b6104d8565b6040516101b19190612c22565b60405180910390f35b6101d460048036038101906101cf9190612731565b61055d565b005b6101de610675565b6040516101eb9190612f66565b60405180910390f35b61020e6004803603810190610209919061262b565b610682565b005b6102186106e2565b6040516102259190612f66565b60405180910390f35b61024860048036038101906102439190612731565b61070a565b6040516102559190612f66565b60405180910390f35b6102786004803603810190610273919061262b565b6107af565b005b610294600480360381019061028f9190612826565b6107cf565b6040516102a19190612f66565b60405180910390f35b6102c460048036038101906102bf9190612826565b610866565b6040516102d19190612c22565b60405180910390f35b6102f460048036038101906102ef91906125c6565b610918565b6040516103019190612f66565b60405180910390f35b6103126109d0565b005b61031c610a58565b6040516103299190612c22565b60405180910390f35b61033a610a82565b6040516103479190612ca4565b60405180910390f35b61036a600480360381019061036591906126f5565b610b14565b005b6103866004803603810190610381919061267a565b610c95565b005b6103a2600480360381019061039d9190612826565b610cf7565b6040516103af9190612ca4565b60405180910390f35b6103d260048036038101906103cd919061276d565b610d09565b6040516103df9190612f66565b60405180910390f35b61040260048036038101906103fd91906125ef565b610e4c565b60405161040f9190612c89565b60405180910390f35b610432600480360381019061042d91906125c6565b610ee0565b005b600061043f82610fd8565b9050919050565b606060008054610455906131bc565b80601f0160208091040260200160405190810160405280929190818152602001828054610481906131bc565b80156104ce5780601f106104a3576101008083540402835291602001916104ce565b820191906000526020600020905b8154815290600101906020018083116104b157829003601f168201915b5050505050905090565b60006104e382611052565b610522576040517f08c379a000000000000000000000000000000000000000000000000000000000815260040161051990612e66565b60405180910390fd5b6004600083815260200190815260200160002060009054906101000a900473ffffffffffffffffffffffffffffffffffffffff169050919050565b600061056882610866565b90508073ffffffffffffffffffffffffffffffffffffffff168373ffffffffffffffffffffffffffffffffffffffff1614156105d9576040517f08c379a00000000000000000000000000000000000000000000000000000000081526004016105d090612ee6565b60405180910390fd5b8073ffffffffffffffffffffffffffffffffffffffff166105f86110be565b73ffffffffffffffffffffffffffffffffffffffff1614806106275750610626816106216110be565b610e4c565b5b610666576040517f08c379a000000000000000000000000000000000000000000000000000000000815260040161065d90612da6565b60405180910390fd5b61067083836110c6565b505050565b6000600880549050905090565b61069361068d6110be565b8261117f565b6106d2576040517f08c379a00000000000000000000000000000000000000000000000000000000081526004016106c990612f06565b60405180910390fd5b6106dd83838361125d565b505050565b60007f0000000000000000000000000000000000000000000000000000000000000000905090565b600061071583610918565b8210610756576040517f08c379a000000000000000000000000000000000000000000000000000000000815260040161074d90612cc6565b60405180910390fd5b600660008473ffffffffffffffffffffffffffffffffffffffff1673ffffffffffffffffffffffffffffffffffffffff168152602001908152602001600020600083815260200190815260200160002054905092915050565b6107ca83838360405180602001604052806000815250610c95565b505050565b60006107d9610675565b821061081a576040517f08c379a000000000000000000000000000000000000000000000000000000000815260040161081190612f26565b60405180910390fd5b60088281548110610854577f4e487b7100000000000000000000000000000000000000000000000000000000600052603260045260246000fd5b90600052602060002001549050919050565b6000806002600084815260200190815260200160002060009054906101000a900473ffffffffffffffffffffffffffffffffffffffff169050600073ffffffffffffffffffffffffffffffffffffffff168173ffffffffffffffffffffffffffffffffffffffff16141561090f576040517f08c379a000000000000000000000000000000000000000000000000000000000815260040161090690612de6565b60405180910390fd5b80915050919050565b60008073ffffffffffffffffffffffffffffffffffffffff168273ffffffffffffffffffffffffffffffffffffffff161415610989576040517f08c379a000000000000000000000000000000000000000000000000000000000815260040161098090612dc6565b60405180910390fd5b600360008373ffffffffffffffffffffffffffffffffffffffff1673ffffffffffffffffffffffffffffffffffffffff168152602001908152602001600020549050919050565b6109d86110be565b73ffffffffffffffffffffffffffffffffffffffff166109f6610a58565b73ffffffffffffffffffffffffffffffffffffffff1614610a4c576040517f08c379a0000000000000000000000000000000000000000000000000000000008152600401610a4390612e86565b60405180910390fd5b610a5660006114b9565b565b6000600b60009054906101000a900473ffffffffffffffffffffffffffffffffffffffff16905090565b606060018054610a91906131bc565b80601f0160208091040260200160405190810160405280929190818152602001828054610abd906131bc565b8015610b0a5780601f10610adf57610100808354040283529160200191610b0a565b820191906000526020600020905b815481529060010190602001808311610aed57829003601f168201915b5050505050905090565b610b1c6110be565b73ffffffffffffffffffffffffffffffffffffffff168273ffffffffffffffffffffffffffffffffffffffff161415610b8a576040517f08c379a0000000000000000000000000000000000000000000000000000000008152600401610b8190612d66565b60405180910390fd5b8060056000610b976110be565b73ffffffffffffffffffffffffffffffffffffffff1673ffffffffffffffffffffffffffffffffffffffff16815260200190815260200160002060008473ffffffffffffffffffffffffffffffffffffffff1673ffffffffffffffffffffffffffffffffffffffff16815260200190815260200160002060006101000a81548160ff0219169083151502179055508173ffffffffffffffffffffffffffffffffffffffff16610c446110be565b73ffffffffffffffffffffffffffffffffffffffff167f17307eab39ab6107e8899845ad3d59bd9653f200f220920489ca2b5937696c3183604051610c899190612c89565b60405180910390a35050565b610ca6610ca06110be565b8361117f565b610ce5576040517f08c379a0000000000000000000000000000000000000000000000000000000008152600401610cdc90612f06565b60405180910390fd5b610cf18484848461157f565b50505050565b6060610d02826115db565b9050919050565b6000610d136110be565b73ffffffffffffffffffffffffffffffffffffffff16610d31610a58565b73ffffffffffffffffffffffffffffffffffffffff1614610d87576040517f08c379a0000000000000000000000000000000000000000000000000000000008152600401610d7e90612e86565b60405180910390fd5b600083118015610db757507f00000000000000000000000000000000000000000000000000000000000000008311155b610df6576040517f08c379a0000000000000000000000000000000000000000000000000000000008152600401610ded90612f46565b60405180910390fd5b610e00848461172d565b610e0a838361174b565b827f8f1e147a5b19d58c459b1301ea7b20039388fa7c2d761976529f0eba016aa07b83604051610e3a9190612ca4565b60405180910390a28290509392505050565b6000600560008473ffffffffffffffffffffffffffffffffffffffff1673ffffffffffffffffffffffffffffffffffffffff16815260200190815260200160002060008373ffffffffffffffffffffffffffffffffffffffff1673ffffffffffffffffffffffffffffffffffffffff16815260200190815260200160002060009054906101000a900460ff16905092915050565b610ee86110be565b73ffffffffffffffffffffffffffffffffffffffff16610f06610a58565b73ffffffffffffffffffffffffffffffffffffffff1614610f5c576040517f08c379a0000000000000000000000000000000000000000000000000000000008152600401610f5390612e86565b60405180910390fd5b600073ffffffffffffffffffffffffffffffffffffffff168173ffffffffffffffffffffffffffffffffffffffff161415610fcc576040517f08c379a0000000000000000000000000000000000000000000000000000000008152600401610fc390612d06565b60405180910390fd5b610fd5816114b9565b50565b60007f780e9d63000000000000000000000000000000000000000000000000000000007bffffffffffffffffffffffffffffffffffffffffffffffffffffffff1916827bffffffffffffffffffffffffffffffffffffffffffffffffffffffff1916148061104b575061104a826117bf565b5b9050919050565b60008073ffffffffffffffffffffffffffffffffffffffff166002600084815260200190815260200160002060009054906101000a900473ffffffffffffffffffffffffffffffffffffffff1673ffffffffffffffffffffffffffffffffffffffff1614159050919050565b600033905090565b816004600083815260200190815260200160002060006101000a81548173ffffffffffffffffffffffffffffffffffffffff021916908373ffffffffffffffffffffffffffffffffffffffff160217905550808273ffffffffffffffffffffffffffffffffffffffff1661113983610866565b73ffffffffffffffffffffffffffffffffffffffff167f8c5be1e5ebec7d5bd14f71427d1e84f3dd0314c0f7b2291e5b200ac8c7c3b92560405160405180910390a45050565b600061118a82611052565b6111c9576040517f08c379a00000000000000000000000000000000000000000000000000000000081526004016111c090612d86565b60405180910390fd5b60006111d483610866565b90508073ffffffffffffffffffffffffffffffffffffffff168473ffffffffffffffffffffffffffffffffffffffff16148061124357508373ffffffffffffffffffffffffffffffffffffffff1661122b846104d8565b73ffffffffffffffffffffffffffffffffffffffff16145b8061125457506112538185610e4c565b5b91505092915050565b8273ffffffffffffffffffffffffffffffffffffffff1661127d82610866565b73ffffffffffffffffffffffffffffffffffffffff16146112d3576040517f08c379a00000000000000000000000000000000000000000000000000000000081526004016112ca90612ea6565b60405180910390fd5b600073ffffffffffffffffffffffffffffffffffffffff168273ffffffffffffffffffffffffffffffffffffffff161415611343576040517f08c379a000000000000000000000000000000000000000000000000000000000815260040161133a90612d46565b60405180910390fd5b61134e8383836118a1565b6113596000826110c6565b6001600360008573ffffffffffffffffffffffffffffffffffffffff1673ffffffffffffffffffffffffffffffffffffffff16815260200190815260200160002060008282546113a991906130d2565b925050819055506001600360008473ffffffffffffffffffffffffffffffffffffffff1673ffffffffffffffffffffffffffffffffffffffff1681526020019081526020016000206000828254611400919061304b565b92505081905550816002600083815260200190815260200160002060006101000a81548173ffffffffffffffffffffffffffffffffffffffff021916908373ffffffffffffffffffffffffffffffffffffffff160217905550808273ffffffffffffffffffffffffffffffffffffffff168473ffffffffffffffffffffffffffffffffffffffff167fddf252ad1be2c89b69c2b068fc378daa952ba7f163c4a11628f55a4df523b3ef60405160405180910390a4505050565b6000600b60009054906101000a900473ffffffffffffffffffffffffffffffffffffffff16905081600b60006101000a81548173ffffffffffffffffffffffffffffffffffffffff021916908373ffffffffffffffffffffffffffffffffffffffff1602179055508173ffffffffffffffffffffffffffffffffffffffff168173ffffffffffffffffffffffffffffffffffffffff167f8be0079c531659141344cd1fd0a4f28419497f9722a3daafe3b4186f6b6457e060405160405180910390a35050565b61158a84848461125d565b611596848484846118b1565b6115d5576040517f08c379a00000000000000000000000000000000000000000000000000000000081526004016115cc90612ce6565b60405180910390fd5b50505050565b60606115e682611052565b611625576040517f08c379a000000000000000000000000000000000000000000000000000000000815260040161161c90612e46565b60405180910390fd5b6000600a60008481526020019081526020016000208054611645906131bc565b80601f0160208091040260200160405190810160405280929190818152602001828054611671906131bc565b80156116be5780601f10611693576101008083540402835291602001916116be565b820191906000526020600020905b8154815290600101906020018083116116a157829003601f168201915b5050505050905060006116cf611a48565b90506000815114156116e5578192505050611728565b60008251111561171a578082604051602001611702929190612bfe565b60405160208183030381529060405292505050611728565b61172384611a5f565b925050505b919050565b611747828260405180602001604052806000815250611b06565b5050565b61175482611052565b611793576040517f08c379a000000000000000000000000000000000000000000000000000000000815260040161178a90612e06565b60405180910390fd5b80600a600084815260200190815260200160002090805190602001906117ba9291906123ea565b505050565b60007f80ac58cd000000000000000000000000000000000000000000000000000000007bffffffffffffffffffffffffffffffffffffffffffffffffffffffff1916827bffffffffffffffffffffffffffffffffffffffffffffffffffffffff1916148061188a57507f5b5e139f000000000000000000000000000000000000000000000000000000007bffffffffffffffffffffffffffffffffffffffffffffffffffffffff1916827bffffffffffffffffffffffffffffffffffffffffffffffffffffffff1916145b8061189a575061189982611b61565b5b9050919050565b6118ac838383611bcb565b505050565b60006118d28473ffffffffffffffffffffffffffffffffffffffff16611cdf565b15611a3b578373ffffffffffffffffffffffffffffffffffffffff1663150b7a026118fb6110be565b8786866040518563ffffffff1660e01b815260040161191d9493929190612c3d565b602060405180830381600087803b15801561193757600080fd5b505af192505050801561196857506040513d601f19601f8201168201806040525081019061196591906127fd565b60015b6119eb573d8060008114611998576040519150601f19603f3d011682016040523d82523d6000602084013e61199d565b606091505b506000815114156119e3576040517f08c379a00000000000000000000000000000000000000000000000000000000081526004016119da90612ce6565b60405180910390fd5b805181602001fd5b63150b7a0260e01b7bffffffffffffffffffffffffffffffffffffffffffffffffffffffff1916817bffffffffffffffffffffffffffffffffffffffffffffffffffffffff191614915050611a40565b600190505b949350505050565b606060405180602001604052806000815250905090565b6060611a6a82611052565b611aa9576040517f08c379a0000000000000000000000000000000000000000000000000000000008152600401611aa090612ec6565b60405180910390fd5b6000611ab3611a48565b90506000815111611ad35760405180602001604052806000815250611afe565b80611add84611cf2565b604051602001611aee929190612bfe565b6040516020818303038152906040525b915050919050565b611b108383611e9f565b611b1d60008484846118b1565b611b5c576040517f08c379a0000000000000000000000000000000000000000000000000000000008152600401611b5390612ce6565b60405180910390fd5b505050565b60007f01ffc9a7000000000000000000000000000000000000000000000000000000007bffffffffffffffffffffffffffffffffffffffffffffffffffffffff1916827bffffffffffffffffffffffffffffffffffffffffffffffffffffffff1916149050919050565b611bd683838361206d565b600073ffffffffffffffffffffffffffffffffffffffff168373ffffffffffffffffffffffffffffffffffffffff161415611c1957611c1481612072565b611c58565b8173ffffffffffffffffffffffffffffffffffffffff168373ffffffffffffffffffffffffffffffffffffffff1614611c5757611c5683826120bb565b5b5b600073ffffffffffffffffffffffffffffffffffffffff168273ffffffffffffffffffffffffffffffffffffffff161415611c9b57611c9681612228565b611cda565b8273ffffffffffffffffffffffffffffffffffffffff168273ffffffffffffffffffffffffffffffffffffffff1614611cd957611cd8828261236b565b5b5b505050565b600080823b905060008111915050919050565b60606000821415611d3a576040518060400160405280600181526020017f30000000000000000000000000000000000000000000000000000000000000008152509050611e9a565b600082905060005b60008214611d6c578080611d559061321f565b915050600a82611d6591906130a1565b9150611d42565b60008167ffffffffffffffff811115611dae577f4e487b7100000000000000000000000000000000000000000000000000000000600052604160045260246000fd5b6040519080825280601f01601f191660200182016040528015611de05781602001600182028036833780820191505090505b5090505b60008514611e9357600182611df991906130d2565b9150600a85611e089190613268565b6030611e14919061304b565b60f81b818381518110611e50577f4e487b7100000000000000000000000000000000000000000000000000000000600052603260045260246000fd5b60200101907effffffffffffffffffffffffffffffffffffffffffffffffffffffffffffff1916908160001a905350600a85611e8c91906130a1565b9450611de4565b8093505050505b919050565b600073ffffffffffffffffffffffffffffffffffffffff168273ffffffffffffffffffffffffffffffffffffffff161415611f0f576040517f08c379a0000000000000000000000000000000000000000000000000000000008152600401611f0690612e26565b60405180910390fd5b611f1881611052565b15611f58576040517f08c379a0000000000000000000000000000000000000000000000000000000008152600401611f4f90612d26565b60405180910390fd5b611f64600083836118a1565b6001600360008473ffffffffffffffffffffffffffffffffffffffff1673ffffffffffffffffffffffffffffffffffffffff1681526020019081526020016000206000828254611fb4919061304b565b92505081905550816002600083815260200190815260200160002060006101000a81548173ffffffffffffffffffffffffffffffffffffffff021916908373ffffffffffffffffffffffffffffffffffffffff160217905550808273ffffffffffffffffffffffffffffffffffffffff16600073ffffffffffffffffffffffffffffffffffffffff167fddf252ad1be2c89b69c2b068fc378daa952ba7f163c4a11628f55a4df523b3ef60405160405180910390a45050565b505050565b6008805490506009600083815260200190815260200160002081905550600881908060018154018082558091505060019003906000526020600020016000909190919091505550565b600060016120c884610918565b6120d291906130d2565b90506000600760008481526020019081526020016000205490508181146121b7576000600660008673ffffffffffffffffffffffffffffffffffffffff1673ffffffffffffffffffffffffffffffffffffffff168152602001908152602001600020600084815260200190815260200160002054905080600660008773ffffffffffffffffffffffffffffffffffffffff1673ffffffffffffffffffffffffffffffffffffffff168152602001908152602001600020600084815260200190815260200160002081905550816007600083815260200190815260200160002081905550505b6007600084815260200190815260200160002060009055600660008573ffffffffffffffffffffffffffffffffffffffff1673ffffffffffffffffffffffffffffffffffffffff16815260200190815260200160002060008381526020019081526020016000206000905550505050565b6000600160088054905061223c91906130d2565b9050600060096000848152602001908152602001600020549050600060088381548110612292577f4e487b7100000000000000000000000000000000000000000000000000000000600052603260045260246000fd5b9060005260206000200154905080600883815481106122da577f4e487b7100000000000000000000000000000000000000000000000000000000600052603260045260246000fd5b90600052602060002001819055508160096000838152602001908152602001600020819055506009600085815260200190815260200160002060009055600880548061234f577f4e487b7100000000000000000000000000000000000000000000000000000000600052603160045260246000fd5b6001900381819060005260206000200160009055905550505050565b600061237683610918565b905081600660008573ffffffffffffffffffffffffffffffffffffffff1673ffffffffffffffffffffffffffffffffffffffff168152602001908152602001600020600083815260200190815260200160002081905550806007600084815260200190815260200160002081905550505050565b8280546123f6906131bc565b90600052602060002090601f016020900481019282612418576000855561245f565b82601f1061243157805160ff191683800117855561245f565b8280016001018555821561245f579182015b8281111561245e578251825591602001919060010190612443565b5b50905061246c9190612470565b5090565b5b80821115612489576000816000905550600101612471565b5090565b60006124a061249b84612fa6565b612f81565b9050828152602081018484840111156124b857600080fd5b6124c384828561317a565b509392505050565b60006124de6124d984612fd7565b612f81565b9050828152602081018484840111156124f657600080fd5b61250184828561317a565b509392505050565b60008135905061251881613949565b92915050565b60008135905061252d81613960565b92915050565b60008135905061254281613977565b92915050565b60008151905061255781613977565b92915050565b600082601f83011261256e57600080fd5b813561257e84826020860161248d565b91505092915050565b600082601f83011261259857600080fd5b81356125a88482602086016124cb565b91505092915050565b6000813590506125c08161398e565b92915050565b6000602082840312156125d857600080fd5b60006125e684828501612509565b91505092915050565b6000806040838503121561260257600080fd5b600061261085828601612509565b925050602061262185828601612509565b9150509250929050565b60008060006060848603121561264057600080fd5b600061264e86828701612509565b935050602061265f86828701612509565b9250506040612670868287016125b1565b9150509250925092565b6000806000806080858703121561269057600080fd5b600061269e87828801612509565b94505060206126af87828801612509565b93505060406126c0878288016125b1565b925050606085013567ffffffffffffffff8111156126dd57600080fd5b6126e98782880161255d565b91505092959194509250565b6000806040838503121561270857600080fd5b600061271685828601612509565b92505060206127278582860161251e565b9150509250929050565b6000806040838503121561274457600080fd5b600061275285828601612509565b9250506020612763858286016125b1565b9150509250929050565b60008060006060848603121561278257600080fd5b600061279086828701612509565b93505060206127a1868287016125b1565b925050604084013567ffffffffffffffff8111156127be57600080fd5b6127ca86828701612587565b9150509250925092565b6000602082840312156127e657600080fd5b60006127f484828501612533565b91505092915050565b60006020828403121561280f57600080fd5b600061281d84828501612548565b91505092915050565b60006020828403121561283857600080fd5b6000612846848285016125b1565b91505092915050565b61285881613106565b82525050565b61286781613118565b82525050565b600061287882613008565b612882818561301e565b9350612892818560208601613189565b61289b81613355565b840191505092915050565b60006128b182613013565b6128bb818561302f565b93506128cb818560208601613189565b6128d481613355565b840191505092915050565b60006128ea82613013565b6128f48185613040565b9350612904818560208601613189565b80840191505092915050565b600061291d602b8361302f565b915061292882613366565b604082019050919050565b600061294060328361302f565b915061294b826133b5565b604082019050919050565b600061296360268361302f565b915061296e82613404565b604082019050919050565b6000612986601c8361302f565b915061299182613453565b602082019050919050565b60006129a960248361302f565b91506129b48261347c565b604082019050919050565b60006129cc60198361302f565b91506129d7826134cb565b602082019050919050565b60006129ef602c8361302f565b91506129fa826134f4565b604082019050919050565b6000612a1260388361302f565b9150612a1d82613543565b604082019050919050565b6000612a35602a8361302f565b9150612a4082613592565b604082019050919050565b6000612a5860298361302f565b9150612a63826135e1565b604082019050919050565b6000612a7b602e8361302f565b9150612a8682613630565b604082019050919050565b6000612a9e60208361302f565b9150612aa98261367f565b602082019050919050565b6000612ac160318361302f565b9150612acc826136a8565b604082019050919050565b6000612ae4602c8361302f565b9150612aef826136f7565b604082019050919050565b6000612b0760208361302f565b9150612b1282613746565b602082019050919050565b6000612b2a60298361302f565b9150612b358261376f565b604082019050919050565b6000612b4d602f8361302f565b9150612b58826137be565b604082019050919050565b6000612b7060218361302f565b9150612b7b8261380d565b604082019050919050565b6000612b9360318361302f565b9150612b9e8261385c565b604082019050919050565b6000612bb6602c8361302f565b9150612bc1826138ab565b604082019050919050565b6000612bd960308361302f565b9150612be4826138fa565b604082019050919050565b612bf881613170565b82525050565b6000612c0a82856128df565b9150612c1682846128df565b91508190509392505050565b6000602082019050612c37600083018461284f565b92915050565b6000608082019050612c52600083018761284f565b612c5f602083018661284f565b612c6c6040830185612bef565b8181036060830152612c7e818461286d565b905095945050505050565b6000602082019050612c9e600083018461285e565b92915050565b60006020820190508181036000830152612cbe81846128a6565b905092915050565b60006020820190508181036000830152612cdf81612910565b9050919050565b60006020820190508181036000830152612cff81612933565b9050919050565b60006020820190508181036000830152612d1f81612956565b9050919050565b60006020820190508181036000830152612d3f81612979565b9050919050565b60006020820190508181036000830152612d5f8161299c565b9050919050565b60006020820190508181036000830152612d7f816129bf565b9050919050565b60006020820190508181036000830152612d9f816129e2565b9050919050565b60006020820190508181036000830152612dbf81612a05565b9050919050565b60006020820190508181036000830152612ddf81612a28565b9050919050565b60006020820190508181036000830152612dff81612a4b565b9050919050565b60006020820190508181036000830152612e1f81612a6e565b9050919050565b60006020820190508181036000830152612e3f81612a91565b9050919050565b60006020820190508181036000830152612e5f81612ab4565b9050919050565b60006020820190508181036000830152612e7f81612ad7565b9050919050565b60006020820190508181036000830152612e9f81612afa565b9050919050565b60006020820190508181036000830152612ebf81612b1d565b9050919050565b60006020820190508181036000830152612edf81612b40565b9050919050565b60006020820190508181036000830152612eff81612b63565b9050919050565b60006020820190508181036000830152612f1f81612b86565b9050919050565b60006020820190508181036000830152612f3f81612ba9565b9050919050565b60006020820190508181036000830152612f5f81612bcc565b9050919050565b6000602082019050612f7b6000830184612bef565b92915050565b6000612f8b612f9c565b9050612f9782826131ee565b919050565b6000604051905090565b600067ffffffffffffffff821115612fc157612fc0613326565b5b612fca82613355565b9050602081019050919050565b600067ffffffffffffffff821115612ff257612ff1613326565b5b612ffb82613355565b9050602081019050919050565b600081519050919050565b600081519050919050565b600082825260208201905092915050565b600082825260208201905092915050565b600081905092915050565b600061305682613170565b915061306183613170565b9250827fffffffffffffffffffffffffffffffffffffffffffffffffffffffffffffffff0382111561309657613095613299565b5b828201905092915050565b60006130ac82613170565b91506130b783613170565b9250826130c7576130c66132c8565b5b828204905092915050565b60006130dd82613170565b91506130e883613170565b9250828210156130fb576130fa613299565b5b828203905092915050565b600061311182613150565b9050919050565b60008115159050919050565b60007fffffffff0000000000000000000000000000000000000000000000000000000082169050919050565b600073ffffffffffffffffffffffffffffffffffffffff82169050919050565b6000819050919050565b82818337600083830152505050565b60005b838110156131a757808201518184015260208101905061318c565b838111156131b6576000848401525b50505050565b600060028204905060018216806131d457607f821691505b602082108114156131e8576131e76132f7565b5b50919050565b6131f782613355565b810181811067ffffffffffffffff8211171561321657613215613326565b5b80604052505050565b600061322a82613170565b91507fffffffffffffffffffffffffffffffffffffffffffffffffffffffffffffffff82141561325d5761325c613299565b5b600182019050919050565b600061327382613170565b915061327e83613170565b92508261328e5761328d6132c8565b5b828206905092915050565b7f4e487b7100000000000000000000000000000000000000000000000000000000600052601160045260246000fd5b7f4e487b7100000000000000000000000000000000000000000000000000000000600052601260045260246000fd5b7f4e487b7100000000000000000000000000000000000000000000000000000000600052602260045260246000fd5b7f4e487b7100000000000000000000000000000000000000000000000000000000600052604160045260246000fd5b6000601f19601f8301169050919050565b7f455243373231456e756d657261626c653a206f776e657220696e646578206f7560008201527f74206f6620626f756e6473000000000000000000000000000000000000000000602082015250565b7f4552433732313a207472616e7366657220746f206e6f6e20455243373231526560008201527f63656976657220696d706c656d656e7465720000000000000000000000000000602082015250565b7f4f776e61626c653a206e6577206f776e657220697320746865207a65726f206160008201527f6464726573730000000000000000000000000000000000000000000000000000602082015250565b7f4552433732313a20746f6b656e20616c7265616479206d696e74656400000000600082015250565b7f4552433732313a207472616e7366657220746f20746865207a65726f2061646460008201527f7265737300000000000000000000000000000000000000000000000000000000602082015250565b7f4552433732313a20617070726f766520746f2063616c6c657200000000000000600082015250565b7f4552433732313a206f70657261746f7220717565727920666f72206e6f6e657860008201527f697374656e7420746f6b656e0000000000000000000000000000000000000000602082015250565b7f4552433732313a20617070726f76652063616c6c6572206973206e6f74206f7760008201527f6e6572206e6f7220617070726f76656420666f7220616c6c0000000000000000602082015250565b7f4552433732313a2062616c616e636520717565727920666f7220746865207a6560008201527f726f206164647265737300000000000000000000000000000000000000000000602082015250565b7f4552433732313a206f776e657220717565727920666f72206e6f6e657869737460008201527f656e7420746f6b656e0000000000000000000000000000000000000000000000602082015250565b7f45524337323155524953746f726167653a2055524920736574206f66206e6f6e60008201527f6578697374656e7420746f6b656e000000000000000000000000000000000000602082015250565b7f4552433732313a206d696e7420746f20746865207a65726f2061646472657373600082015250565b7f45524337323155524953746f726167653a2055524920717565727920666f722060008201527f6e6f6e6578697374656e7420746f6b656e000000000000000000000000000000602082015250565b7f4552433732313a20617070726f76656420717565727920666f72206e6f6e657860008201527f697374656e7420746f6b656e0000000000000000000000000000000000000000602082015250565b7f4f776e61626c653a2063616c6c6572206973206e6f7420746865206f776e6572600082015250565b7f4552433732313a207472616e73666572206f6620746f6b656e2074686174206960008201527f73206e6f74206f776e0000000000000000000000000000000000000000000000602082015250565b7f4552433732314d657461646174613a2055524920717565727920666f72206e6f60008201527f6e6578697374656e7420746f6b656e0000000000000000000000000000000000602082015250565b7f4552433732313a20617070726f76616c20746f2063757272656e74206f776e6560008201527f7200000000000000000000000000000000000000000000000000000000000000602082015250565b7f4552433732313a207472616e736665722063616c6c6572206973206e6f74206f60008201527f776e6572206e6f7220617070726f766564000000000000000000000000000000602082015250565b7f455243373231456e756d657261626c653a20676c6f62616c20696e646578206f60008201527f7574206f6620626f756e64730000000000000000000000000000000000000000602082015250565b7f4d696e74696e67204e465473206d6f7265207468616e206d6178537570706c7960008201527f206973206e6f7420616c6c6f7765642e00000000000000000000000000000000602082015250565b61395281613106565b811461395d57600080fd5b50565b61396981613118565b811461397457600080fd5b50565b61398081613124565b811461398b57600080fd5b50565b61399781613170565b81146139a257600080fd5b5056fea2646970667358221220f5b5276784c96561e033940a25056c3b0a0ac1e3e68700bbb8c9fd4ff7375d1e64736f6c63430008020033",
  "immutableReferences": {
    "4712": [
      {
        "length": 32,
        "start": 1766
      },
      {
        "length": 32,
        "start": 3476
      }
    ]
  },
  "source": "// SPDX-License-Identifier: MIT\npragma solidity ^0.8.2;\n\nimport \"@openzeppelin/contracts/token/ERC721/ERC721.sol\";\nimport \"@openzeppelin/contracts/token/ERC721/extensions/ERC721Enumerable.sol\";\nimport \"@openzeppelin/contracts/token/ERC721/extensions/ERC721URIStorage.sol\";\nimport \"@openzeppelin/contracts/access/Ownable.sol\";\n\n/// @title Condo Registry Contract \n/// @notice Condo units being registered as NFTs, which can later be transferred to homeowners\n/// @dev Only the estate developer is able to mint NFTs; homeowners can only transfer\ncontract CondoRegistry is ERC721, ERC721Enumerable, ERC721URIStorage, Ownable {\n\n    uint256 immutable maxSupply;\n\n    event MintedNFT(uint256 indexed tokenId, string tokenURI);\n\n    /// @dev _tokenIdCounter starts from 1, which naturally corresponds to the real-world condo unit #1\n    constructor(uint256 _maxSupply) ERC721(\"CondoRegistry\", \"CONDO\") {\n        maxSupply = _maxSupply;    \n    }\n\n    /// @dev With this function, owner can only mint maxSupply amount NFTs, since there is only limited units in our condo for simplicity\n    /// @param _tokenURI The token URI of the condo_unit metadata\n    /// @return tokenId The tokenID of the corresponding assets\n    function safeMint(address to, uint256 tokenId, string memory _tokenURI) public onlyOwner returns (uint256) {\n        require((tokenId > 0 && tokenId <= maxSupply), \"Minting NFTs more than maxSupply is not allowed.\");\n        _safeMint(to, tokenId);\n        _setTokenURI(tokenId, _tokenURI);\n        emit MintedNFT(tokenId, _tokenURI);\n\n        return tokenId;\n    }\n\n    function maxTotalSupply()\n        public\n        view\n        returns (uint256)\n    {\n        return maxSupply;\n    }\n\n    // The following functions are overrides required by Solidity.\n\n    function _beforeTokenTransfer(address from, address to, uint256 tokenId)\n        internal\n        override(ERC721, ERC721Enumerable)\n    {\n        super._beforeTokenTransfer(from, to, tokenId);\n    }\n\n    function _burn(uint256 tokenId) internal override(ERC721, ERC721URIStorage) {\n        super._burn(tokenId);\n    }\n\n    function tokenURI(uint256 tokenId)\n        public\n        view\n        override(ERC721, ERC721URIStorage)\n        returns (string memory)\n    {\n        return super.tokenURI(tokenId);\n    }\n\n\n    function supportsInterface(bytes4 interfaceId)\n        public\n        view\n        override(ERC721, ERC721Enumerable)\n        returns (bool)\n    {\n        return super.supportsInterface(interfaceId);\n    }\n}\n\n",
  "sourcePath": "/Users/admin/blockchain-developer-bootcamp-final-project/contracts/CondoRegistry.sol",
  "compiler": {
    "name": "solc",
    "version": "0.8.2+commit.661d1103.Emscripten.clang"
  },
  "schemaVersion": "3.4.3",
  "updatedAt": "2021-11-22T00:23:46.864Z",
  "networkType": "ethereum",
  "devdoc": {
    "details": "Only the estate developer is able to mint NFTs; homeowners can only transfer",
    "kind": "dev",
    "methods": {
      "approve(address,uint256)": {
        "details": "See {IERC721-approve}."
      },
      "balanceOf(address)": {
        "details": "See {IERC721-balanceOf}."
      },
      "constructor": {
        "details": "_tokenIdCounter starts from 1, which naturally corresponds to the real-world condo unit #1"
      },
      "getApproved(uint256)": {
        "details": "See {IERC721-getApproved}."
      },
      "isApprovedForAll(address,address)": {
        "details": "See {IERC721-isApprovedForAll}."
      },
      "name()": {
        "details": "See {IERC721Metadata-name}."
      },
      "owner()": {
        "details": "Returns the address of the current owner."
      },
      "ownerOf(uint256)": {
        "details": "See {IERC721-ownerOf}."
      },
      "renounceOwnership()": {
        "details": "Leaves the contract without owner. It will not be possible to call `onlyOwner` functions anymore. Can only be called by the current owner. NOTE: Renouncing ownership will leave the contract without an owner, thereby removing any functionality that is only available to the owner."
      },
      "safeMint(address,uint256,string)": {
        "details": "With this function, owner can only mint maxSupply amount NFTs, since there is only limited units in our condo for simplicity",
        "params": {
          "_tokenURI": "The token URI of the condo_unit metadata"
        },
        "returns": {
          "_0": "tokenId The tokenID of the corresponding assets"
        }
      },
      "safeTransferFrom(address,address,uint256)": {
        "details": "See {IERC721-safeTransferFrom}."
      },
      "safeTransferFrom(address,address,uint256,bytes)": {
        "details": "See {IERC721-safeTransferFrom}."
      },
      "setApprovalForAll(address,bool)": {
        "details": "See {IERC721-setApprovalForAll}."
      },
      "symbol()": {
        "details": "See {IERC721Metadata-symbol}."
      },
      "tokenByIndex(uint256)": {
        "details": "See {IERC721Enumerable-tokenByIndex}."
      },
      "tokenOfOwnerByIndex(address,uint256)": {
        "details": "See {IERC721Enumerable-tokenOfOwnerByIndex}."
      },
      "totalSupply()": {
        "details": "See {IERC721Enumerable-totalSupply}."
      },
      "transferFrom(address,address,uint256)": {
        "details": "See {IERC721-transferFrom}."
      },
      "transferOwnership(address)": {
        "details": "Transfers ownership of the contract to a new account (`newOwner`). Can only be called by the current owner."
      }
    },
    "title": "Condo Registry Contract ",
    "version": 1
  },
  "userdoc": {
    "kind": "user",
    "methods": {},
    "notice": "Condo units being registered as NFTs, which can later be transferred to homeowners",
    "version": 1
  }
}