{
  "contractName": "CondoTreasury",
  "abi": [
    {
      "inputs": [
        {
          "internalType": "string",
          "name": "name_",
          "type": "string"
        }
      ],
      "stateMutability": "nonpayable",
      "type": "constructor"
    },
    {
      "anonymous": false,
      "inputs": [
        {
          "indexed": true,
          "internalType": "address",
          "name": "previousOwner",
          "type": "address"
        },
        {
          "indexed": true,
          "internalType": "address",
          "name": "newOwner",
          "type": "address"
        }
      ],
      "name": "OwnershipTransferred",
      "type": "event"
    },
    {
      "anonymous": false,
      "inputs": [
        {
          "indexed": true,
          "internalType": "address",
          "name": "_from",
          "type": "address"
        },
        {
          "indexed": true,
          "internalType": "uint256",
          "name": "value",
          "type": "uint256"
        }
      ],
      "name": "ReceivedEther",
      "type": "event"
    },
    {
      "anonymous": false,
      "inputs": [
        {
          "indexed": true,
          "internalType": "address",
          "name": "_to",
          "type": "address"
        },
        {
          "indexed": true,
          "internalType": "uint256",
          "name": "value",
          "type": "uint256"
        }
      ],
      "name": "SentEther",
      "type": "event"
    },
    {
      "stateMutability": "payable",
      "type": "fallback"
    },
    {
      "inputs": [],
      "name": "owner",
      "outputs": [
        {
          "internalType": "address",
          "name": "",
          "type": "address"
        }
      ],
      "stateMutability": "view",
      "type": "function"
    },
    {
      "inputs": [],
      "name": "renounceOwnership",
      "outputs": [],
      "stateMutability": "nonpayable",
      "type": "function"
    },
    {
      "inputs": [
        {
          "internalType": "address",
          "name": "newOwner",
          "type": "address"
        }
      ],
      "name": "transferOwnership",
      "outputs": [],
      "stateMutability": "nonpayable",
      "type": "function"
    },
    {
      "stateMutability": "payable",
      "type": "receive"
    },
    {
      "inputs": [],
      "name": "name",
      "outputs": [
        {
          "internalType": "string",
          "name": "",
          "type": "string"
        }
      ],
      "stateMutability": "view",
      "type": "function"
    },
    {
      "inputs": [],
      "name": "getBalance",
      "outputs": [
        {
          "internalType": "uint256",
          "name": "",
          "type": "uint256"
        }
      ],
      "stateMutability": "view",
      "type": "function"
    },
    {
      "inputs": [
        {
          "internalType": "address payable",
          "name": "_to",
          "type": "address"
        },
        {
          "internalType": "uint256",
          "name": "_value",
          "type": "uint256"
        }
      ],
      "name": "sendEther",
      "outputs": [],
      "stateMutability": "payable",
      "type": "function"
    }
  ],
  "bytecode": "0x60806040523480156200001157600080fd5b5060405162000efe38038062000efe833981810160405281019062000037919062000265565b620000576200004b6200007760201b60201c565b6200007f60201b60201c565b80600190805190602001906200006f92919062000143565b50506200041a565b600033905090565b60008060009054906101000a900473ffffffffffffffffffffffffffffffffffffffff169050816000806101000a81548173ffffffffffffffffffffffffffffffffffffffff021916908373ffffffffffffffffffffffffffffffffffffffff1602179055508173ffffffffffffffffffffffffffffffffffffffff168173ffffffffffffffffffffffffffffffffffffffff167f8be0079c531659141344cd1fd0a4f28419497f9722a3daafe3b4186f6b6457e060405160405180910390a35050565b82805462000151906200033f565b90600052602060002090601f016020900481019282620001755760008555620001c1565b82601f106200019057805160ff1916838001178555620001c1565b82800160010185558215620001c1579182015b82811115620001c0578251825591602001919060010190620001a3565b5b509050620001d09190620001d4565b5090565b5b80821115620001ef576000816000905550600101620001d5565b5090565b60006200020a6200020484620002d3565b620002aa565b9050828152602081018484840111156200022357600080fd5b6200023084828562000309565b509392505050565b600082601f8301126200024a57600080fd5b81516200025c848260208601620001f3565b91505092915050565b6000602082840312156200027857600080fd5b600082015167ffffffffffffffff8111156200029357600080fd5b620002a18482850162000238565b91505092915050565b6000620002b6620002c9565b9050620002c4828262000375565b919050565b6000604051905090565b600067ffffffffffffffff821115620002f157620002f0620003da565b5b620002fc8262000409565b9050602081019050919050565b60005b83811015620003295780820151818401526020810190506200030c565b8381111562000339576000848401525b50505050565b600060028204905060018216806200035857607f821691505b602082108114156200036f576200036e620003ab565b5b50919050565b620003808262000409565b810181811067ffffffffffffffff82111715620003a257620003a1620003da565b5b80604052505050565b7f4e487b7100000000000000000000000000000000000000000000000000000000600052602260045260246000fd5b7f4e487b7100000000000000000000000000000000000000000000000000000000600052604160045260246000fd5b6000601f19601f8301169050919050565b610ad4806200042a6000396000f3fe6080604052600436106100595760003560e01c806306fdde03146100ea57806312065fe014610115578063715018a6146101405780638da5cb5b14610157578063c1756a2c14610182578063f2fde38b1461019e576100a4565b366100a457343373ffffffffffffffffffffffffffffffffffffffff167fa419615bc8fda4c87663805ee2a3597a6d71c1d476911d9892f340d965bc7bf160405160405180910390a3005b343373ffffffffffffffffffffffffffffffffffffffff167fa419615bc8fda4c87663805ee2a3597a6d71c1d476911d9892f340d965bc7bf160405160405180910390a3005b3480156100f657600080fd5b506100ff6101c7565b60405161010c91906107fe565b60405180910390f35b34801561012157600080fd5b5061012a610259565b6040516101379190610880565b60405180910390f35b34801561014c57600080fd5b50610155610261565b005b34801561016357600080fd5b5061016c6102e9565b60405161017991906107e3565b60405180910390f35b61019c600480360381019061019791906106af565b610312565b005b3480156101aa57600080fd5b506101c560048036038101906101c09190610686565b610483565b005b6060600180546101d690610943565b80601f016020809104026020016040519081016040528092919081815260200182805461020290610943565b801561024f5780601f106102245761010080835404028352916020019161024f565b820191906000526020600020905b81548152906001019060200180831161023257829003601f168201915b5050505050905090565b600047905090565b61026961057b565b73ffffffffffffffffffffffffffffffffffffffff166102876102e9565b73ffffffffffffffffffffffffffffffffffffffff16146102dd576040517f08c379a00000000000000000000000000000000000000000000000000000000081526004016102d490610860565b60405180910390fd5b6102e76000610583565b565b60008060009054906101000a900473ffffffffffffffffffffffffffffffffffffffff16905090565b61031a61057b565b73ffffffffffffffffffffffffffffffffffffffff166103386102e9565b73ffffffffffffffffffffffffffffffffffffffff161461038e576040517f08c379a000000000000000000000000000000000000000000000000000000000815260040161038590610860565b60405180910390fd5b60008273ffffffffffffffffffffffffffffffffffffffff16826040516103b4906107ce565b60006040518083038185875af1925050503d80600081146103f1576040519150601f19603f3d011682016040523d82523d6000602084013e6103f6565b606091505b505090508061043a576040517f08c379a000000000000000000000000000000000000000000000000000000000815260040161043190610840565b60405180910390fd5b818373ffffffffffffffffffffffffffffffffffffffff167f69653cad22163f3a958003e9b2beebd4a65139765733fd4d3d41be96eb4e3a0660405160405180910390a3505050565b61048b61057b565b73ffffffffffffffffffffffffffffffffffffffff166104a96102e9565b73ffffffffffffffffffffffffffffffffffffffff16146104ff576040517f08c379a00000000000000000000000000000000000000000000000000000000081526004016104f690610860565b60405180910390fd5b600073ffffffffffffffffffffffffffffffffffffffff168173ffffffffffffffffffffffffffffffffffffffff16141561056f576040517f08c379a000000000000000000000000000000000000000000000000000000000815260040161056690610820565b60405180910390fd5b61057881610583565b50565b600033905090565b60008060009054906101000a900473ffffffffffffffffffffffffffffffffffffffff169050816000806101000a81548173ffffffffffffffffffffffffffffffffffffffff021916908373ffffffffffffffffffffffffffffffffffffffff1602179055508173ffffffffffffffffffffffffffffffffffffffff168173ffffffffffffffffffffffffffffffffffffffff167f8be0079c531659141344cd1fd0a4f28419497f9722a3daafe3b4186f6b6457e060405160405180910390a35050565b60008135905061065681610a59565b92915050565b60008135905061066b81610a70565b92915050565b60008135905061068081610a87565b92915050565b60006020828403121561069857600080fd5b60006106a684828501610647565b91505092915050565b600080604083850312156106c257600080fd5b60006106d08582860161065c565b92505060206106e185828601610671565b9150509250929050565b6106f4816108c2565b82525050565b60006107058261089b565b61070f81856108b1565b935061071f818560208601610910565b610728816109a4565b840191505092915050565b60006107406026836108b1565b915061074b826109b5565b604082019050919050565b60006107636014836108b1565b915061076e82610a04565b602082019050919050565b60006107866020836108b1565b915061079182610a2d565b602082019050919050565b60006107a96000836108a6565b91506107b482610a56565b600082019050919050565b6107c881610906565b82525050565b60006107d98261079c565b9150819050919050565b60006020820190506107f860008301846106eb565b92915050565b6000602082019050818103600083015261081881846106fa565b905092915050565b6000602082019050818103600083015261083981610733565b9050919050565b6000602082019050818103600083015261085981610756565b9050919050565b6000602082019050818103600083015261087981610779565b9050919050565b600060208201905061089560008301846107bf565b92915050565b600081519050919050565b600081905092915050565b600082825260208201905092915050565b60006108cd826108e6565b9050919050565b60006108df826108e6565b9050919050565b600073ffffffffffffffffffffffffffffffffffffffff82169050919050565b6000819050919050565b60005b8381101561092e578082015181840152602081019050610913565b8381111561093d576000848401525b50505050565b6000600282049050600182168061095b57607f821691505b6020821081141561096f5761096e610975565b5b50919050565b7f4e487b7100000000000000000000000000000000000000000000000000000000600052602260045260246000fd5b6000601f19601f8301169050919050565b7f4f776e61626c653a206e6577206f776e657220697320746865207a65726f206160008201527f6464726573730000000000000000000000000000000000000000000000000000602082015250565b7f4661696c656420746f2073656e64204574686572000000000000000000000000600082015250565b7f4f776e61626c653a2063616c6c6572206973206e6f7420746865206f776e6572600082015250565b50565b610a62816108c2565b8114610a6d57600080fd5b50565b610a79816108d4565b8114610a8457600080fd5b50565b610a9081610906565b8114610a9b57600080fd5b5056fea26469706673582212204698d282af8a29052d20eb58c71c6acc17f4052dd511dca66264614c0989d08064736f6c63430008020033",
  "immutableReferences": {},
  "source": "// SPDX-License-Identifier: MIT\npragma solidity ^0.8.2;\n\nimport \"@openzeppelin/contracts/access/Ownable.sol\";\n\ncontract CondoTreasury is Ownable {\n\n    string private _name;\n\n    event ReceivedEther(address indexed _from, uint256 indexed value);\n    event SentEther(address indexed _to, uint256 indexed value);\n\n    constructor(string memory name_) {\n        _name = name_;\n    }\n\n    function name() public view returns (string memory) {\n        return _name;\n    }\n\n    function getBalance() public view returns (uint) {\n        return address(this).balance;\n    }\n\n    function sendEther(address payable _to, uint256 _value) public payable onlyOwner {\n        (bool sent, ) = _to.call{value: _value}(\"\");\n        require(sent, \"Failed to send Ether\");\n        emit SentEther(_to, _value);\n    }\n\n    receive() external payable {\n        emit ReceivedEther(msg.sender, msg.value);\n    }\n\n    fallback() external payable {\n        emit ReceivedEther(msg.sender, msg.value);\n    }\n}\n",
  "sourcePath": "/Users/admin/blockchain-developer-bootcamp-final-project/contracts/CondoTreasury.sol",
  "compiler": {
    "name": "solc",
    "version": "0.8.2+commit.661d1103.Emscripten.clang"
  },
  "schemaVersion": "3.4.3",
  "updatedAt": "2021-11-19T21:43:59.218Z",
  "devdoc": {
    "kind": "dev",
    "methods": {
      "owner()": {
        "details": "Returns the address of the current owner."
      },
      "renounceOwnership()": {
        "details": "Leaves the contract without owner. It will not be possible to call `onlyOwner` functions anymore. Can only be called by the current owner. NOTE: Renouncing ownership will leave the contract without an owner, thereby removing any functionality that is only available to the owner."
      },
      "transferOwnership(address)": {
        "details": "Transfers ownership of the contract to a new account (`newOwner`). Can only be called by the current owner."
      }
    },
    "version": 1
  },
  "userdoc": {
    "kind": "user",
    "methods": {},
    "version": 1
  }
}